:100000000C94CC050C9404060C9404060C94040681
:100010000C9404060C9404060C9404060C94040638
:100020000C9404060C9404060C9405180C94C01649
:100030000C94AB190C9404060C9404060C9404065E
:100040000C9404060C9404060C9404060C94040608
:100050000C9404060C945E190C9404060C9404068B
:100060000C9404060C9404060C9404060C940406E8
:100070000C9404060C9404060C9404060C940406D8
:100080000C9404060C9404060C9404060C940406C8
:100090000C9404060C9404060C9404060C940406B8
:1000A0000C9404060C9404060C940406630B630B76
:1000B000960B960B370C550C700D700D600CD40C14
:1000C000E50CE50CF6140C151315D715D7154B15C3
:1000D00057156615D7156D15D715D715D71575157D
:1000E000B62EDD2E9230DD2E9230292F4C2F9230FD
:1000F0004D305D3000047F3F1F6432146432147849
:100100003C1E1E140A05FD377A585A000004E6D634
:10011000B4460200210116000000742FE5A3E0128E
:1001200009037C5D003D8889C65436C3174FE4E956
:10013000A5387F8BE9FE6CC6D11618F873919FD550
:1001400062119BA4B66099BDAD1B4F478C18F9D7BF
:100150001C38A37065E14AE397EC66CCAF7D23C7FA
:100160005B432FBE60A44C9D0CCEBDED023704F066
:10017000708EC194AECF073BDDE112287F03347B44
:1001800091C2710A5D1F63A88725E4091EAB522541
:100190000A74C4E6F2DBA266CE96682C3E98E5F3BC
:1001A000F2A100E4084F873602473AA59DE2A5FA7E
:1001B000A88F427C097FFF0F28C0706AF80365A5ED
:1001C0005B17F6967E2AD7167E02369EA4362563E6
:1001D00046E46EBE5CD35E316A7E96364E05743E52
:1001E0007F7FA110CE78A97B5FB22E96BB8B1FD2EA
:1001F0008A29244E4F15EA047F142684307D3A79EB
:10020000BCC16A3BBC8C797CC70B5D629029F6123D
:100210009FBC726FE207234D24B501792C59666E9D
:10022000447B7679397BC5E71F40BF07E91CBFC80F
:10023000072EC77275B45962609315B43C3E2D50B9
:100240002092E08EE6DD23B300D291BF14A7DF88B1
:1002500065AA80157F670BB4E4405B955F1E255A45
:100260000092DB1015C8A56DFBAC5E67B60DF559A5
:1002700067E095F8ED846EBCB88DFA0966786A0B74
:1002800039E01E962F7417F74194A47F17E4556F39
:10029000974C3132B786DB98B841CB5454E0C17AE1
:1002A0007D51244DEBFF67F99C984C536B3098CFF0
:1002B000444E52D8370D4DA373038DCD2A89BDF915
:1002C0002F60C5B71B3296B01A5CB2EA1A23E34E10
:1002D0008E193027FC471D62465BAAC7718A994B6D
:1002E000787BAFDA8FBB5CD0A2176628AE93E86943
:1002F0007921F82D8A946DCCE0BA43796895B7DD01
:100300007D3A4FC189959B4B032730F4733DEBC277
:10031000E9A799C9578E5C1F666A8A86B0BEAE632C
:10032000AB83E4BCA53C7E9D840B7DB14D62FC4556
:10033000315B41A336691C612E24A04327D4DF1210
:100340000AC46605AD9B5840A806185B1260C5B389
:100350001A7AED960F5D8E4E37060D8D53917C12F5
:10036000D29F52EDFC1A865CE4A8419C4A25A16DFF
:10037000D53B3EA6C35568B75E78743B25F4FAF0CA
:10038000FDCFCDD5F5CAB8247ED9A8E0D501501F40
:10039000735914C3E73B3ED03022A7F35D56ABB68A
:1003A000B8E369AB3D4C17D31534D1BC3D59A8F91E
:1003B00064CBF813648C36E8D75F388F94C9146126
:1003C00083FEBDF0AAEE83B22FDBD36B66DB51F662
:1003D000E5A6420A6A0EA5F1262FED87101E69F6E2
:1003E0009FEB3DDD27D07404ACF7CB23E38CFFC734
:1003F000A29C3DEFBE9BF0068C300BE87FD4C9C2B7
:1004000072AA9153E2FAF3163EC7C01BECC3FBA4D9
:1004100010BCE0EB672E08B9570562511586A9C7D5
:10042000B8ED12B3740DCDA6B69163C4A0911DEAC8
:100430000135A87DB78B5C904404C99FDC2303EF92
:1004400082EF314EC062C2109BE2DB7A753913CA6B
:100450004810C29F2DABB89793CB1075551B952BA9
:1004600096D08D9C004EF668EFCA09F1EF21B0BA24
:1004700042B709940E3101B5BD33CB13718DD2B2A1
:10048000CE8A07E37BD5E2BF343F426505353B7E2C
:10049000647C1D8E214A6D4753BB96A3F8E8CB3A86
:1004A0008E0099B49AB0D6A860E0000198078A241B
:1004B00000008024E03DB1C467FB0200000000049E
:1004C000595A29001E001F0020002100220023008D
:1004D00024002500260027002D002E0031003500C5
:1004E0002B0014001A000800150017001C0018004B
:1004F0000C00120013002F00300031000000390002
:1005000004001600070009000A000B000D000E0091
:100510000F0033003400320028000000E1006400C6
:100520001D001B0006001900050011001000360018
:1005300037003800E50052004C00E000E300E20024
:1005400001510000000000002C000151E600E40011
:10055000500051004F000000005C3A003B003C009E
:100560003D003E003F004000410042004300440087
:10057000450001004C000100C25C5200C35CC55C38
:10058000C65CC75CC85CC95CCA5C010001000100B4
:10059000010000000100500051004F000100010067
:1005A0000100010001000100010001000100010043
:1005B00000000100010001000100BD5CBF5CBE5CE9
:1005C0000100010001000100010001000100010023
:1005D0000100010001000100000000000000010016
:1005E0000100010001000100010001000000010004
:1005F00001000100010001000100010001000100F3
:1006000001000100010001000100010001000100E2
:1006100001000100010001000100010001000100D2
:1006200001000100010001000000010001000100C3
:1006300001000100010001000100010001000100B2
:1006400001000100010000000100010001000100A3
:100650000100010001000100010001000100010092
:100660000100010001000100010001000100000083
:100670000000000001000100010001000100010074
:100680000100000001000100010001000100010063
:100690000100010001000100010001000100010052
:1006A0000100010001000100010001000100010042
:1006B0000100010001000100010001000100000033
:1006C0000100010001000100010001000100010022
:1006D0000100010001000100010001000000010013
:1006E0000100010001000100010001000100010002
:1006F00001000100010001000100010001000100F2
:1007000001000100000000000000010001000100E4
:1007100001000100010001000000000101010101D0
:1007200001010101020202020202020202030303AA
:10073000030303030304040404040404050505057A
:10074000050606060606070707070708080808093A
:100750000909090A0A0A0B0B0B0C0C0C0D0D0D0EE6
:100760000E0E0F0F0F10101111111212131314147B
:10077000151516161717181819191A1A1B1B1C1DF0
:100780001D1E1E1F20202122222324242526262749
:100790002829292A2B2C2D2D2E2F3031323233347B
:1007A00035363738393A3B3C3D3E3F404142434481
:1007B00045464748494A4C4D4E4F50515354555663
:1007C00058595A5B5D5E5F616264656668696B6C0F
:1007D0006D6F7072737577787A7B7D7E808283858A
:1007E00087888A8C8E8F91939596989A9C9EA0A2CA
:1007F000A3A5A7A9ABADAFB1B3B5B7BABCBEC0C2D4
:10080000C4C6C9CBCDCFD1D4D6D8DBDDDFE2E4E797
:10081000E9EBEEF0F3F5F8FAFDFFFFAA7F55402271
:1008200023252628292A2C2D2F3032333536383AE5
:100830003B3D3E4042434547494A4C4E505153553B
:1008400057595A5C5E6062646668696B6D6F71735C
:100850007577797B7D7F81838587898A8C8E90925D
:100860009496989A9C9E9FA1A3A5A7A8AAACAEAF68
:10087000B1B3B4B6B8B9BBBCBEBFC1C2C3C5C6C7AD
:10088000C9CACBCCCDCED0D1D2D2D3D4D5D6D7D75E
:10089000D8D9D9DADADBDBDBDCDCDCDCDCDDDDDDA6
:1008A000DDDCDCDCDCDCDBDBDBDADAD9D9D8D7D7A2
:1008B000D6D5D4D3D2D2D1D0CECDCCCBCAC9C7C64F
:1008C000C5C3C2C1BFBEBCBBB9B8B6B4B3B1AFAE8D
:1008D000ACAAA8A7A5A3A19F9E9C9A989694929033
:1008E0008E8C8A89878583817F7D7B79777573710B
:1008F0006F6D6B6968666462605E5C5A59575553E8
:1009000051504E4C4A4947454342403E3D3B3A38A0
:1009100036353332302F2D2C2A292826252322053F
:10092000010902A10185020901A100050919012996
:100930000515002501950575018102950175038155
:10094000010501093009311581257F95027508815E
:100950000609381581257F950175088106050C0A61
:1009600038021581257F950175088106C0C00501F3
:100970000980A101850319012AB700150126B700D6
:10098000950175108100C0050C0901A101850419AC
:10099000012AA002150126A002950175108100C050
:1009A00005010906A1018506050719E029E71500DB
:1009B00025019508750181020507190029EF150029
:1009C000250195F075018102050819012905950594
:1009D00075019102950175039101C00660FF0961DF
:1009E000A1010962150026FF009520750881020902
:1009F00063150026FF00952075089102C0050109C6
:100A000006A101050719E029E715002501950875DC
:100A10000181029501750881010507190029FF155B
:100A20000026FF00950675088100050819012905B3
:100A3000950575019102950175039101C009025B4D
:100A400000030100A0FA09040000010301010009EC
:100A5000211101000122400007058103080001095E
:100A600004010002030000000921110100012222FB
:100A70000007058203200001070503032000010988
:100A8000040200010300000009211101000122BC41
:100A90000007058403200001120100020000000885
:100AA0004D594D600100010203011C0376006900ED
:100AB00061006C003A0066003600340063003200CA
:100AC00062003300630000000E035900440036004A
:100AD00030004D00510000000A0359004D00440051
:100AE0004B000000040309040000000000000000A7
:100AF00000000000000000000000000000000000F6
:100B00000000000000000000000000007E0F00D484
:100B1000FFFFFFC700000078000000000000000099
:100B20002A2B280000000000000000000000000048
:100B300000000029000000002C1E34202122243453
:100B40002627252E362D3738271E1F202122232425
:100B500025263333362E37381F0405060708090AC1
:100B60000B0C0D0E0F101112131415161718191A5D
:100B70001B1C1D2F3130232D350405060708090ADB
:100B80000B0C0D0E0F101112131415161718191A3D
:100B90001B1C1D2F3130354C11241FBECFEFDAE066
:100BA000DEBFCDBF04B603FE18C0809194039091C0
:100BB0009503A0919603B09197038730904BA7407F
:100BC000B04B59F41092940310929503109296032F
:100BD00010929703E0E0F8E3099511E0A0E0B1E09E
:100BE000E2E9F6E602C005900D92A03AB107D9F706
:100BF00023E0A0EAB1E001C01D92A439B207E1F7F9
:100C00000E94010F0C9447330C940000A1E1B0E066
:100C1000ECE0F6E00C94E332FC01808191812381C9
:100C20003481232B31F09F3F31F491E08F3F19F451
:100C300003C091E001C090E090FF02C00C94FD0E53
:100C40007F0185E0DE01119601900D928A95E1F712
:100C5000D70112962C9189819A81222349F00E9412
:100C60005C1C182F682F89819A810E948A1E03C0FC
:100C70000E94561E182F69817A81812F0E94C31B02
:100C80008C01F7012280222009F4BBC082519F45CC
:100C9000409708F049C78FEF93E00E94ED31811132
:100CA00090C43EEED32ED00E0FEC12E0DD2071F09A
:100CB0000115F4E01F0709F484C4C8010E94ED3156
:100CC000811101C0DA940F5F1F4FF0CF1E821F8287
:100CD00018861986AA24AA9468012FEFC21AD20A8C
:100CE000C8010E94ED318E831F82882309F469C4F4
:100CF000813009F081C0480132E0830E911CC601A9
:100D00000E94ED31B82E8F83882309F45AC48FEFE7
:100D10008B0D833060F4680143E0C40ED11CC40124
:100D20000E94ED318887811167C08601D5CF8BEF96
:100D30008B0D833090F5380153E0650E711CC401B2
:100D40000E94ED318887811102C06301EECF6801F6
:100D500084E0C80ED11CC3010E94ED31898788232D
:100D600021F3888599858130AFEF9A0718F0182F05
:100D700000E001C08C01B6E0BB1639F0E7E0BE161A
:100D800041F0C8010E94722B04C0C8010E94722B5E
:100D9000CCCFC8010E94382BC8CFF4E0BF1611F0A9
:100DA0006401C3CFC4010E94ED31B82E680124E074
:100DB000C20ED11CC80103960E94ED31BB2009F47C
:100DC00000C4882309F4FDC3282F30E021503109E5
:100DD000A29EA001A39E500D11248B2D90E001979F
:100DE000840F951F019708F4A0CFAFE9BFE01197DA
:100DF000F1F700C00000F6CFCE0106960E94FD2C50
:100E000094CF8031EFE59E0729F081319F4551F560
:100E100082E001C081E00E94C41E0E94F12CD1C377
:100E20000D3B2CE5120709F495C608F4BEC30F3B31
:100E30008CE5180709F4DDC608F4C2C6003CACE531
:100E40001A0709F497C60F35BDE51B0709F4F1C66B
:100E50000036EDE51E0709F4F0C60E35FDE51F0767
:100E600009F4E3C68091000181112DC0033F2CE5F8
:100E7000120709F4A7C1A8F4083D4CE5140709F4CA
:100E80009BC1093D5CE5150709F4AEC1073D8CE542
:100E9000180709F0B2C106E221EE41EE67ED7CE5EC
:100EA000A8C1053F9CE5190709F498C108F490C151
:100EB000063FBCE51B0709F0A0C107E225EE46EEA0
:100EC00066EF7CE596C14801E0EE8E1A91083090FD
:100ED000A8028091A501382A8091A502382AF8E05D
:100EE0008F16910480F498012770332781E090E0F9
:100EF00001C0880F2A95EAF7222011F0382A18C07D
:100F00008095382215C0222009F416C11093A30140
:100F10000093A2010E9493196093F7017093F80166
:100F20008093F9019093FA011092FF011092FE0153
:100F3000D7018D919C910E94561E21E030E0F9016D
:100F400002C0EE0FFF1F8A95E2F7F98BE88B209124
:100F50000002309101023D872C874091A2015091FF
:100F6000A3015F874E871A86422C512C5A85E52FA4
:100F7000F0E0EE0FFF1FE552FD4FC080D180C1149D
:100F8000D10409F4F0C0311005C0D60112968C913D
:100F90008111CEC0F601838190E0288939898223AE
:100FA0009323892B09F4C4C08085982F977009F486
:100FB00087E038E08316910440F4222019F081FD87
:100FC00009C0B6C082FD06C0B3C0222009F4B0C07B
:100FD00080FFAEC0D601AD90BC900A151B0519F478
:100FE000222009F4A5C0EC85FD85CE16DF0609F4A4
:100FF0009FC0D6011D96ED91FC911E97309721F070
:101000008081882309F494C0632DC6010E94931B3C
:10101000882309F48DC00A151B0511F4320102C0A2
:10102000612C712CB62DB170BB8781E0A114B10485
:1010300041F0B11106C0EE85FF85AE16BF0609F07E
:1010400080E080FF75C080E00E94241BD0920102E6
:10105000C092000281E08093FD01D60115968C912B
:101060008093FB01BB85B11113C0AB2889F0F60159
:10107000808191819C0124503109213A310530F45D
:10108000682F8BEC91E00E94D41902C00E941E1FB1
:10109000D6011696AD90BC901797C5019A9581150B
:1010A0009F4110F4E0EEBE2255245394C5010197F0
:1010B000803B9D4508F0512CD6011996ED91FC918D
:1010C0001A97309739F01B966D917C911C9781E0AF
:1010D00009955822552029F1F601868197810E94B1
:1010E0008D318093FC01C501F8E08F16910418F44E
:1010F0000E94D31A16C00497813A910530F46A2DE4
:101100008BEC91E00E94FC190EC00E9445278FE3F2
:101110009CE90197F1F700C000008A2D0E94751F1D
:1011200002C00E94452791E0692660FEFFC19ECE65
:10113000AA85AF5FAA871ACF8091A2019091A301DF
:101140000817190781F41092A3011092A2011092BE
:10115000F7011092F8011092F9011092FA01109221
:10116000FF011092FE018091000290910102009710
:1011700009F47CCEB8E08B16910438F4632D0E94FC
:10118000931B811173CE81E014C0FC012081318159
:101190000217130729F4211006C01092FD0108C0A0
:1011A000222009F463CEDC0118968C9185FD5ECE79
:1011B00080E00E94241B5ACE07E225EE45EE68ED42
:1011C0007CE517C006E221EE40EE63EF7CE511C03E
:1011D00007E225EE44EE64EF7CE50BC006E221EE6B
:1011E00042EE65EF7CE505C008E221E045EE69EDE1
:1011F0007CE5C7010E946A1AE4C1F7018281882355
:1012000009F4F2C1109204020330FDE51F0758F4FF
:101210000A3F2CE51207C0F4C80182509C45449750
:1012200008F071C111C0053A3DE5130769F030F4CB
:1012300001365DE5150709F066C106C0C8018D5A83
:101240009D45039708F05FC10E94AB269093110261
:101250008093100202318CE5180709F40CC108F0E4
:101260004DC00930ACE51A0709F4D9C008F50530BE
:10127000ECE51E0709F4C0C080F403302CE512072A
:1012800009F4B1C008F0B5C002304CE5140709F00C
:101290002AC1809110028160A9C007305CE5150762
:1012A00009F4B5C008F0B7C08091100280619EC0FB
:1012B0000D309CE5190709F4C8C058F40B30BCE5A3
:1012C0001B0709F4B6C008F0BCC08091100288600A
:1012D000ACC00F30FCE51F0709F4C5C008F4B8C066
:1012E00000313CE5130709F4C2C001314CE5140795
:1012F00009F0F9C0809110028F7B78C00F3F5CE548
:10130000150709F4C3C098F50A3F9CE5190709F4CD
:1013100077C0C0F40431BCE51B0709F4C6C008F46B
:10132000B0C00531FCE51F0709F0DDC08091100257
:1013300082FB222720F991E0922790FB82F990FB13
:1013400083F954C00C3F2CE5120709F485C008F45A
:101350005AC00D3F4CE5140709F481C00E3F5CE50F
:10136000150709F0C0C080911102826060C001368B
:101370008DE5180709F4ABC070F40130ADE51A072C
:1013800009F49FC008F487C00230EDE51E0709F09C
:10139000AAC060E097C00D3AFDE51F0701F160F4B7
:1013A000053A3DE5130709F09EC080911002982F81
:1013B000909590FB80F91AC00E3A4DE51407E9F1BB
:1013C0000F3A5DE5150709F08EC08091110283FB8D
:1013D000222720F991E0922790FB83F982C0809127
:1013E000110288607EC0809110028260809310029A
:1013F0007AC08091100219C0809110028860F6CFE7
:101400008091110214C08091110282606AC08091A3
:1014100010028062EBCF809110028064E7CF0E94BF
:10142000E21E809110028068E1CF8460DFCF81608E
:1014300058C0809110028E7FD9CF80911102877F92
:1014400050C0809110028D7FD1CF809110021CC0BE
:1014500080911002877FCACF809111021AC08091BB
:1014600011028D7F3EC0809110028F7EBFCF809190
:1014700010028F7DBBCF0E94E21E809110028F77F9
:10148000B5CF80911002877F8B7FB0CF8091110202
:101490008D7F8E7F26C080911102982F909591703C
:1014A0008E7F892B90FB81F91CC00E94E21E8091E7
:1014B000100287FB222720F991E0922790FB87F901
:1014C00095CF61E08EE090E00E9401320CC08091E7
:1014D000100284FB222720F991E0922790FB84F9E7
:1014E00085CF80931102609110021091110284E067
:1014F00090E00E940132612F82E290E00E9401326E
:101500000E94E21E5EC00631BCE51B07A1F480917B
:10151000A5028A7A91E009F490E09093A4018823CF
:1015200041F065E38BEC91E00E94FC190E94452795
:1015300048C069E2F7CF0A35ADE51A0781F160F4DA
:101540000115ECE51E0791F00E3DFCE51F0709F0C3
:101550006DC00E94C82618C00C352DE51207B9F0E1
:1015600000F1073A4DE5140779F060C00E94E21ED1
:101570005FEF84E39CE0515080409040E1F700C071
:1015800000000E943A191DC00E9477311AC0809154
:10159000110282FB882780F991E0892703C081E04E
:1015A00001C080E00E94DA2741C00B3B4CE51407E4
:1015B00009F0C9C285E00E94902C8091D9020E9456
:1015C0008A2C80918302877009F417C4D701129680
:1015D0008C91882309F411C48091110282FF0DC4FB
:1015E00082E00E94BD2709C406313CE5130709F4D7
:1015F0002AC38091A50282720C3C9CE5190709F46C
:10160000DCC308F05FC3063CBCE51B0709F4C1C39B
:1016100008F034C3033CFCE51F0709F4B0C308F02D
:101620001EC3023C3CE5130709F484C3F701828121
:1016300000811181882349F0C8010E945C1CD82ECA
:10164000682FC8010E948A1E04C0C8010E94561E4D
:10165000D82EB8018D2D0E94C31B0E940F25C82EC5
:10166000192FA82EF7010281D580D2949FE0D922AC
:10167000809183028770B9F00023A9F0812F807FC9
:10168000803421F080E28C0D883068F08091110266
:1016900082FF09C082E00E94BD278091830287708B
:1016A000BB24B3948111B12C912E92948FE0982297
:1016B000892D90E08C30910508F012C2FC01EA5AA5
:1016C000FF4F0C94A532812F807F1F70882311F06B
:1016D0001295107F0023B9F0112309F4EEC180E2C6
:1016E0008C0D883010F0A11006C08091A502182B37
:1016F0001093A50205C08091A402182B1093A40298
:101700000E944527DAC18C2D0E941E1F112309F467
:10171000E7C180E28C0D883088F1AA2079F110951C
:101720008091A40218231093A4022BC0812F807FE4
:101730001F70803211F01295107F8C2DAA2029F095
:10174000F1E0AF1609F46BC076C08091110282FD02
:101750001BC0002369F0112339F08091A502182BDA
:101760001093A5020E94452780E00E94751FB8C112
:1017700080E00E941E1F112309F4B2C1812F0E9434
:101780003E270E944527ACC1002349F1DD2009F125
:1017900021E0D2120FC08091A802182B181709F46B
:1017A0009FC10E949F199093A7028093A602109355
:1017B000A80296C135E0D3120CC00E943327909145
:1017C000A501812F892B891709F442C08093A501B7
:1017D0003FC08091A802812B0E94141F81C1DD208F
:1017E000C1F041E0D41211C08091A502812309F417
:1017F00077C10E9433279091A501812F809589237D
:10180000891749F08093A50106C055E0D51609F463
:1018100067C10E943327812F0E940D1F61C10023E1
:1018200029F085E08D1508F45BC112C094E09D1588
:1018300008F456C1F0CF002369F0DD2049F0D7014C
:1018400015968C91159780FF38C18F7015968C93E3
:10185000812FC2CFDD20F9F2893309F03EC1BFEFFD
:10186000E7EEF3E0B150E040F040E1F734C1812F02
:1018700086958695837019F0813061F031C100231F
:1018800021F08C2D912F937002C080E090E00E9497
:10189000471A2EC1002321F08C2D912F937002C086
:1018A00080E090E00E94311A23C18C2D002319F0B2
:1018B0000E94992302C00E94D2220E94A82218C12D
:1018C000812F8370A9F501110FC14C2D42954695CA
:1018D0004770440F440F8C2D8F7090E09C01042EB4
:1018E00001C0220F0A94EAF7C4FE08C08FE090E01E
:1018F00001C0880F4A95EAF7809501C080E01695EF
:1019000016951370123069F088F49091A902113085
:1019100019F0822B892302C0922B892B0E94DD1E95
:10192000E3C0822B9091A9028927F8CF822BF6CFB2
:10193000002319F0812F817001C08695882309F456
:10194000D3C04C2D429546954770440F440F8C2DC3
:101950008F7090E09C01042E01C0220F0A94EAF7D8
:10196000C4FE08C08FE090E001C0880F4A95EAF7F6
:10197000809501C080E0169516951370123059F0CD
:1019800078F490919303113019F0822B892309C0C8
:10199000922B892B06C0822B90919303892701C03B
:1019A000822B0E94BF1EA0C01F70002339F0812F20
:1019B0000E94D11E8C2D0E94141F96C08C2D0E9457
:1019C0000D1F812F0E94C41E8FC08C2D22EFA216E6
:1019D00091F12A1538F030EFA31659F041EFA41613
:1019E00019F166C053EFA51669F194EFA916C1F07D
:1019F0005FC0002381F0A4E0AD1508F471C01F7131
:101A000081E090E0012E01C0880F0A94EAF79091DE
:101A10009303892722C0B5E0BD1508F461C0EFCF5C
:101A20008091110282FD1CC0002339F0812F8F713B
:101A30000E94D11E55C00023C9F3812F8F710E94CF
:101A4000C41E4EC0002341F01F7181E0012E01C071
:101A5000880F0A94EAF701C080E00E94BF1E40C0D0
:101A60000023B9F0809183028770843039F40E949A
:101A7000B627812F8F710E94C41E54C0E4E0ED157B
:101A800008F450C01F71812F0E94D11E63E0812F86
:101A900008C0F4E0FD1540F40E94B62764E0812FF1
:101AA0008F710E94F6273EC081E00E94BD273AC098
:101AB000002329F0DD2009F4B9CF8C2D56CEDD208E
:101AC00009F4BBCF893349F42FEF37EE43E02150BF
:101AD00030404040E1F700C000008C2D0E941E1FE6
:101AE00088EF890D843020F40E945D1A0E947131C4
:101AF000BB2009F482C18091830280FD7EC1D701A1
:101B000012961C928595859585950E94D11EC701D8
:101B10000E940606809183028595859585950E9491
:101B2000C41E6BC1B12CE0CF0031FFE51F0711F4DB
:101B300081E006C001312FE5120709F071C982E08A
:101B40000E94D11E6AC90C3B5CE5150709F07BC9F0
:101B500080E031CD8091D902982F969596959695F3
:101B600049F1915E990F990F990F8770892B809396
:101B7000D90214C09091D902892F869586958695B1
:101B80008F5F8F71863008F04CC0880F880F880FE8
:101B90009770892B8093D9028091D902887F91E038
:101BA00009F490E08091D90290FB80F98093D902EA
:101BB0000E948A2C8091D90286958695869523C0AD
:101BC0002091D902822F869586958695482F50E0E0
:101BD0004530510554F48F5F982F990F990F990F45
:101BE000822F8770892B8093D9028091D9028160DE
:101BF000DDCF8091D90280FF09C08E7F8093D9020A
:101C00000E948A2C80E00E94E52BDBCC81608093CF
:101C1000D902813019F489E08093D9028091D902E8
:101C2000C7CF97709093D902B7CF809100018111EF
:101C300004C081E080930001C4CC1092000180E0D8
:101C40000E94241BBECC8091A401882311F065E37F
:101C500001C069E28BEC91E00E94D41967CC043C8E
:101C60004CE5140709F490C0053C5CE5150709F044
:101C7000DDCC4DE352E267E472E2A3C0093C9CE58F
:101C8000190709F490C078F4073CBCE51B0709F478
:101C900085C0083CECE51E0709F0C8CC40E352E2E1
:101CA00063E272E28EC00A3CFCE51F0709F480C0C3
:101CB0000B3C2CE5120709F0B9CC48EB50E26AEC7A
:101CC00070E27FC0013D3CE5130709F486C0A0F433
:101CD0000E3C5CE5150709F47AC008F475C00F3CAA
:101CE0009CE5190709F476C0003DACE51A0709F038
:101CF0009DCC6EE089E079C0043DBCE51B0709F48A
:101D000072C068F4023DFCE51F0709F469C0033D99
:101D10002CE5120709F08ACC61E088E16BC0053D33
:101D20003CE5130709F464C00D354DE5140709F4CB
:101D300048CC7CCC8091D40280FF1BC08E7F8093E6
:101D4000D4026091D4027091D5028091D602909114
:101D5000D7020E94A520109248025FEF80E792E030
:101D6000515080409040E1F700C000000E944B209D
:101D700028CC81608093D40261E086953BC043E922
:101D800052E26DE972E21DC04DE952E263E972E28E
:101D900018C047E452E26DE372E213C043E252E23C
:101DA00060E372E20EC049E052E266E172E209C00D
:101DB00046E152E269E072E204C04AEC50E268EBAC
:101DC00070E20E94EA2CFDCB61E081E013C065E087
:101DD00082E00BC068E086E008C064E18FE005C0E7
:101DE00067E185E102C062E289E10E94D62CE9CB7D
:101DF00061E083E20E945122E4CB6196E2E10C941F
:101E0000FF32A5E3B0E0E7E0FFE00C94E33285B7F2
:101E1000806885BF85B7806885BF84B7877F84BFAA
:101E20000FB6F894A8958091600088618093600057
:101E3000109260000FBE90E080E80FB6F894809397
:101E40006100909361000FBE81E094E29093A10144
:101E50008093A0010E94C42A0E9404170E94AA171E
:101E60008091E20084608093E200789480918903FD
:101E70008823A1F01091E9001F709091EC00892F48
:101E8000817090FD80E8182B1092E9008091E800A5
:101E900083FD0E94D32D1F701093E90082E084BD62
:101EA00093E095BD9AEF97BD80936E000E94CC2B76
:101EB000811102C00E94BC2B06E211E09BE2E92ED8
:101EC00091E0F92ED8018D918D018F3F11F00E9484
:101ED0004624E016F106B1F70BE211E08AE3E82EA2
:101EE00081E0F82EF80181918F018F3F11F00E945F
:101EF0004624E016F106B1F78AE0E1ECF1E0DF01FB
:101F0000282F1D922A95E9F7E6EAF1E0DF011D92FC
:101F10008A95E9F7849A8C9A0E94BC26811102C0A6
:101F20000E94C82682E090E00E94ED318093B301C8
:101F30000E94AB2690931102809310020E945D24B0
:101F4000EFE3FCE93197F1F700C000000E945D2447
:101F50008091C10180FF08C06FEF7FEF80E090E0CB
:101F60000E941F320E943A1983E090E00E94ED31F6
:101F70000E94DD1E279A2F988AE08093800089E1D5
:101F8000809381008FEF9FEF90938700809386006E
:101F90000E94AA2C0E94AA2C8091B001811133C00A
:101FA0000E94BC26811104C00E94C8260E94DC2029
:101FB00088E090E00E94F5316093D4027093D502DE
:101FC0008093D6029093D7026E7F71F40E94DC203A
:101FD00088E090E00E94F5316093D4027093D502BE
:101FE0008093D6029093D7020E94922010924802CA
:101FF0008091D40280FF04C060E086950E94512247
:1020000081E08093B00181E091E090930802809399
:102010000702332433948E010F5F1F4F8091890391
:10202000853009F052C0A0E1EA2EB2E1FB2E80918A
:102030008903853009F041C080918903843051F1D2
:1020400080E00E94E52B80E00E94713110920B022B
:1020500028E130E040E40FB6F894A89520936000A2
:102060000FBE4093600083B7817F846083BF83B7D6
:10207000816083BF7894889583B78E7F83BF0FB6C6
:10208000F894A89580916000886180936000109218
:1020900060000FBE80918803882309F4C8CF0E9496
:1020A0005D24E1ECF1E081919191892B09F0A7C5C4
:1020B00081E0EB3CF807B9F7BACF0E94E21E0E941C
:1020C000AA2C0E945D1A0E9471310E945D24E4EBEB
:1020D000CE2EE1E0DE2EF1ECEF2EF1E0FF2E2EEB26
:1020E00031E0D701F601419151918D919D91842765
:1020F00095272E173F0719F0892BA9F322C0892BAA
:1021000001F50E949F196C018091B1019091B2017B
:10211000C816D90609F459C08FEF8BA78CA71DA646
:102120000E949F198160782F9FA78EA74BA55CA561
:102130006DA58FA50E94AA30D092B201C092B101C4
:1021400044C071EC472E71E0572E212CD2018D90A6
:102150009D902D01F60160807180682479246114BE
:10216000710451F11DAAAA24A394B12CC3018A21A0
:102170009B21892BB9F0FDA9F8AB29AA21E0C40164
:102180008A219B21892B09F420E02AAB0E949F1908
:102190008160782F9CAB8BAB48A959A96AA98CA9FF
:1021A0000E94AA302DA92F5F2DABAA0CBB1C2F308B
:1021B000E9F6D6018D929C922394B2E0CB0ED11C0D
:1021C000E5E02E12C3CF0E9493198091FE019091F9
:1021D000FF01892B09F43EC04091F3015091F401B5
:1021E0006091F5017091F6012FB7F89480910C027F
:1021F00090910D02A0910E02B0910F022FBF841B8F
:10220000950BA60BB70B4091EF015091F001609137
:10221000F1017091F20184179507A607B707D0F076
:102220008091FE019091FF010E94BA311092FF014E
:102230001092FE011092F3011092F4011092F50138
:102240001092F6011092EF011092F0011092F1013C
:102250001092F20180914802882309F498C080917D
:102260004702E091D402E695E81BE09343028230F6
:1022700059F4F0E0EE5FFE4FE491CE2ED12C4BE509
:10228000A42E4AE2B42E5EC0863059F4F0E0E1504C
:10229000FF4FE491CE2ED12C3BE4A32E3AE2B32E95
:1022A00051C0893061F4E695F0E0E450FF4FE491CD
:1022B000CE2ED12C27EEA22E29E2B22E43C08F3093
:1022C00061F4E695F0E0E750FF4FE491CE2ED12C7B
:1022D00092E8A92E99E2B92E35C0853159F4F0E083
:1022E000EA50FF4FE491CE2ED12C84E3A82E89E250
:1022F000B82E28C08831B1F0833249F4E4EFF0E021
:10230000C590D490B1E1AB2EBAE2BB2E1BC0843293
:1023100089F0F0EDCF2EF7E0DF2EA0E8AA2EA8E29C
:10232000BA2E10C078E2C72ED12CE9EBAE2EE8E22F
:10233000BE2E08C054EFC52EDD24D39461E8A62E2E
:1023400068E2B62E80914402882361F01092440224
:102350000E949F199093420280934102109246027C
:10236000109245020E949F19E0914102F0914202B1
:102370008E1B9F0B8F3F9F4750F4CE0EDF1ED092D7
:102380004202C092410281E492E0F501099586E0A3
:10239000EBE3F2E0D80101900D928A95E1F71092FB
:1023A0003D0210923E0210923F02109240028B8139
:1023B000811104C08C81882309F451C080913902B5
:1023C00090913A020E9484199C01909135029923C0
:1023D00009F434C42531310508F441C09F3F19F098
:1023E0009F5F90933502DB80DD2061F00E947923AE
:1023F0001D1414F491E001C09FEF899F802D1124DA
:1024000080933D02DC80DD2061F00E9479231D1461
:1024100014F491E001C09FEF899F802D11248093D7
:102420003E0230913D023323D1F020913E0222231F
:10243000B1F045EB3403C0011124992319F09093B6
:102440003D0202C030923D0235EB2303C00111244E
:10245000992319F090933E0202C030923E028D8182
:10246000811104C08E81882309F451C08091370204
:10247000909138020E9484199C0190913402992312
:1024800009F4E1C32135310508F441C09F3F19F03B
:102490009F5F90933402DD80DD2061F00E9457231E
:1024A0001D1414F491E001C09FEF899F802D112429
:1024B00080933F02DE80DD2061F00E9457231D14CF
:1024C00014F491E001C09FEF899F802D1124809327
:1024D000400230913F023323D1F020914002222369
:1024E000B1F045EB3403C0011124992319F0909306
:1024F0003F0202C030923F0235EB2303C00111249A
:10250000992319F09093400202C03092400246E0B5
:1025100050E0B8018BE392E00E943333892BA9F499
:1025200080913D0281110FC080913E0281110BC04C
:1025300080913F02811107C081E09091400291118A
:1025400003C080E001C081E080FD0E94A82286E0F7
:10255000F801ABE3B2E001900D928A95E1F70E9499
:102560005D1AD82E8091BE01D81639F0D092BE01E6
:102570000E9493198D2D0E947131809189038430BE
:1025800009F04CCD83E08093E9008091E80082FF60
:1025900045CD8091E80085FF21C00E94231781115D
:1025A0001BC040E2A42EB12C680109C08091F1004B
:1025B000D6018D936D01B1E0AB1AB10869F080913D
:1025C000E80085FDF3CF8091E8008B778093E800E9
:1025D0000E942317882399F391E001C090E0809135
:1025E000E8008B778093E800992309F417CDC09019
:1025F000ED01D090EE018981C114D10461F08E3FCC
:1026000009F0D5C28A81833008F4E4C18550833053
:1026100008F0CDC2DFC1893009F40CC1D0F4843098
:1026200009F46CC050F48230A1F108F05AC0813036
:1026300009F0BBC21A8289E065C2863009F470C015
:1026400008F463C0873009F46EC0883009F4BCC058
:10265000ACC2803109F45AC180F48D3009F4F9C05C
:1026600028F48C3009F0A1C280E154C18E3009F405
:10267000F3C08F3009F41BC198C2823109F44CC1F8
:1026800008F447C1833109F471C18E3F09F4A2C136
:102690008CC28A81823009F4C8C2833051F0813003
:1026A00009F083C20E9493199B838C837D836E8380
:1026B0007EC280910D0190910E01892B09F477C2A1
:1026C000F801CE010B96D7012C9111963C91B2E006
:1026D000EB0EF11C3283238332968E179F0799F7F6
:1026E00066C28A81823009F060C26B817C818D81F3
:1026F0009E810E94AB320E94982B59C24C816B8103
:102700008A810E94962A9D8397C22D813E8132271D
:10271000232732274C816B818A810E946F2A47C20E
:102720000E94E01B44C28A81893061F48B81E5E01C
:102730008E9FC00111246FEF70E00E945B32862FE4
:102740000E94902C8A818138B1F050F4803809F0D1
:102750002EC220E04B816091D6028091D50231C01B
:10276000823859F1833809F022C220E04091D70223
:102770006C818B8126C060E08B810E9451229B81FD
:102780008091D402911111C08E7F8093D402109257
:102790004802FFEF20E732E0F15020403040E1F7FF
:1027A00000C000000E944B2002C281608093D402CE
:1027B00060E086950E945122FAC18B818093D802F5
:1027C000F6C10E949021F3C18A81893021F08A30BC
:1027D00089F41B82ECC18091D902869586958695F5
:1027E0004FEF849FC001112465E070E00E945B32CE
:1027F0006B83DDC1813899F030F4803809F0D7C19E
:102800008091D7027FC1823891F0833809F0CFC11F
:102810008091D5028B838091D6028C83C8C1809130
:10282000D40280FF02C086956DC180E06BC18091AB
:10283000D80268C18091D9020E948A2C6091D4028A
:102840007091D5028091D6029091D7020E94A52066
:10285000AEC13A8281E356C1EA80FB80FE24EF24B8
:10286000FE24AC80B12C8DE1A816B10408F09FC104
:102870006801C70181539D4F9601201B310B2A151A
:102880003B0508F094C1A1E3EA16A1E0FA0628F49A
:102890000E94ED31F601848303C0D60114961C9288
:1028A000BFEFEB1AFB0AEFEFCE1ADE0AE2CF809100
:1028B0000D0190910E01892B09F479C1EA80FB800A
:1028C000FE24EF24FE24CC80D12CFDE1CF16D104D0
:1028D00008F06DC15801C70181539D4F9501201B20
:1028E000310B2C153D0508F062C121E3E21621E011
:1028F000F20628F4D50114966C910E940132BFEFC4
:10290000EB1AFB0AEFEFAE1ABE0AE5CF0E94B31B2B
:102910004EC184E08A834BC1EA80FB80FE24EF2411
:10292000FE24AC80B12CFDE1AF16B10408F03FC12C
:102930006801C70187969601201B310B2A153B05BC
:1029400008F035C128E5E21622E0F20630F40E94D4
:10295000ED31D60114968C9302C0F6011482FFEF7C
:10296000EF1AFF0A2FEFC21AD20AE3CFEA80FB80E8
:10297000FE24EF24FE24CC80D12C3DE1C316D104EB
:1029800008F015C148E5E41642E0F40608F00FC16E
:1029900088E592E08E199F098C159D0508F407C102
:1029A0005801C70187969501201B310B2C153D0559
:1029B00008F0FDC0A8E5EA16A2E0FA0620F4F50149
:1029C00064810E940132FFEFEF1AFF0A2FEFA21A73
:1029D000B20AE7CFEA818E2F90E08E30910508F0A1
:1029E000E6C0FC01EE59FF4F0C94A53288E0EEE101
:1029F000F1E0DE01919601900D928A95E1F780E277
:102A0000D8011D928A95E9F785E0898388E0FE0167
:102A1000B196DE01159695C08CEB898383E08A839D
:102A20001B821C82C4C08C8190E0982F88272B8148
:102A3000820F911D092E000CAA0BBB0B35E0880FED
:102A4000991FAA1FBB1F3A95D1F7AC01BD01405E8B
:102A50005F4F6F4F7F4F481759076A077B0708F48E
:102A6000A6C08C3BE3E09E07A105B10508F09FC01E
:102A70004D3BF3E05F076105710520F04CEB53E03F
:102A800060E070E0481B590BBC016A5F7E4FC801D3
:102A90000E94D4318CC040E250E06FEF70E0C8017A
:102AA0000E94403380910D018983CA8280C081E0F9
:102AB00090E09093EE018093ED0182E390E090939B
:102AC000C0018093BF010E949F1971C080910D01C8
:102AD0008983CA828091BF0115C040E250E06FEF48
:102AE00070E0C8010E94403362C08B81853061F084
:102AF000863061F181115BC080E2D8011D928A9518
:102B0000E9F788E08B8353C06C81CE0181962AE07F
:102B1000FC0111922A95E9F7683060F4FAE06F9FA2
:102B2000B001112461587D4F4AE050E00E94DD3130
:102B300080E001C08FEF89838AE0FE01B196DE015B
:102B4000129601900D928A95E1F731C06C818AE06E
:102B5000FE013596DE01919601900D928A95E1F77E
:102B60008BA19CA181152CE5920741F420910D01C8
:102B700030910E01232B11F480E090E09CA38BA3F5
:102B8000683070F43AE0639FB001112461587D4FC2
:102B90004AE050E0CE0181960E94253280E001C0DB
:102BA0008FEF89830E94C42A02C08FEF89838091AE
:102BB0008903843009F032CA8091E9008F70209136
:102BC000EC00922F917020FD90E8F92EF82A82E017
:102BD0008093E9008091E80080FF0CC040E050E065
:102BE00060E270E0C8010E94A92D8091E8008E7714
:102BF0008093E8008F2D8F708093E9000FCAE9BCA5
:102C0000F9BC09B400FEFDCF8091D8008F7D809380
:102C1000D8008091E00082608093E0008091E00025
:102C200081FDFCCF0E94E21E02CA86E290E00E9473
:102C3000ED311B821C821D828E83B9CF2B30310572
:102C400008F0CECB0CCC2B30310508F021CC5FCC7A
:102C50000895809166030895809312027093140280
:102C600060931302809189038430F9F48093E90022
:102C70008FEF9091E800815095FD06C095ED9A95F3
:102C8000F1F700008111F5CF8091E80085FF0DC0BC
:102C900040E050E063E070E082E192E00E94A92D04
:102CA0008091E8008E778093E8000895BC0184E06D
:102CB0000E942C160895BC0183E00E942C160895F2
:102CC00024E02093E9002FEF3091E800215035FDFA
:102CD00006C035ED3A95F1F700002111F5CF2091AE
:102CE000E80025FF0BC040E050E066E070E00E9485
:102CF000A92D8091E8008E778093E8000895CF9306
:102D0000DF9320911D01222339F02091100227FF2B
:102D100003C060E224E002C068E021E02093E90003
:102D20002FEF3091E800215035FD06C035ED3A9582
:102D3000F1F700002111F5CF2091E80025FF1DC01B
:102D4000EC0180911D01811105C040E050E068E078
:102D500070E003C070E040E050E0CE010E94A92D79
:102D60008091E8008E778093E80080E2FE01A7E67C
:102D7000B3E001900D928A95E1F7DF91CF9108952C
:102D80001F920F920FB60F9211242F933F934F93E0
:102D90005F936F937F938F939F93AF93BF93CF93E3
:102DA000DF93EF93FF93C091E900CF708091EC0027
:102DB000D82FD17080FDD0E81092E9008091F0000A
:102DC000877F8093F00078940E94D32D1092E900C1
:102DD0008091F00088608093F000CD2BCF70C0937D
:102DE000E900FF91EF91DF91CF91BF91AF919F915A
:102DF0008F917F916F915F914F913F912F910F90A4
:102E00000FBE0F901F901895E8EDF0E080818E7F47
:102E100080831092E2001092DA001092E100A0EE9E
:102E2000B0E08C9181608C9380818F77808319BC16
:102E3000A7EDB0E08C918E7F8C9380818F7E808314
:102E40001092150208952091E4003091E50095E676
:102E50004091EC00842F817040FF23C08091E800F6
:102E600080FD1DC080918903882399F0853099F0F9
:102E70008091EB0085FD11C04091E4005091E50088
:102E80002417350729F3915011F09A01E1CF84E01E
:102E9000089582E0089583E0089581E0089580E038
:102EA00008954091E80042FFDDCF089580918B03A3
:102EB00087FF11C08091E80082FD05C080918903E1
:102EC0008111F8CF11C08091E8008B770BC0809101
:102ED0008903882349F08091E80080FFF8CF809132
:102EE000E8008E778093E8000895982F973068F572
:102EF0009093E900981739F07091EC002091ED0063
:102F00005091F00003C0242F762F50E021FD02C025
:102F10009F5FECCF3091EB003E7F3093EB00309120
:102F2000ED003D7F3093ED003091EB003160309348
:102F3000EB007093EC002093ED005093F000209193
:102F4000EE0027FDE5CF80E008958F708093E900C3
:102F500081E00895A0E0B0E0E0EBF7E10C94ED3201
:102F6000C8EDD0E088818F7E8883E7EDF0E0808136
:102F70008160808384E082BF81E080931502888134
:102F80008E7F888302EE10E0F80110821092DA0042
:102F900081EEC82ED12CF601108288818F7788832C
:102FA00088818068888388818F7D888319BC10928E
:102FB000890310928A03109288031092870390EE7F
:102FC000E92EF12CF70180818B7F808388818160DD
:102FD000888342E060E080E00E947517F6018081FE
:102FE0008E7F8083F801808181608083808188600A
:102FF0008083F70180818E7F8083888180618883D0
:10300000CDB7DEB7E8E00C9409331F920F920FB6EC
:103010000F9211242F933F934F935F936F937F935E
:103020008F939F93AF93BF93EF93FF938091E100B2
:1030300082FF09C08091E20082FF05C08091E1001B
:103040008B7F8093E1008091DA0080FF2AC080911D
:10305000D80080FF26C08091DA008E7F8093DA004E
:103060008091D90080FF18C080E189BD82E189BDCF
:1030700009B400FEFDCF81E08093890380911502A1
:1030800081110FC00E9404170E94AA178091E200CC
:1030900084608093E20005C019BC109289031092ED
:1030A00015028091E10080FF17C08091E20080FF4F
:1030B00013C08091E2008E7F8093E2008091E20055
:1030C00080618093E2008091D80080628093D80074
:1030D00019BC85E0809389038091E10084FF30C0B2
:1030E0008091E20084FF2CC080E189BD82E189BD2E
:1030F00009B400FEFDCF8091D8008F7D8093D80069
:103100008091E1008F7E8093E1008091E2008F7ECC
:103110008093E2008091E20081608093E2008091E0
:103120008A03882311F084E007C08091E30087FDC3
:1031300002C081E001C083E080938903809189030C
:103140008091E10083FF27C08091E20083FF23C0CC
:103150008091E100877F8093E10082E08093890382
:1031600010928A038091E1008E7F8093E10080912C
:10317000E2008E7F8093E2008091E2008061809384
:10318000E20042E060E080E00E9475178091F0006C
:1031900088608093F000FF91EF91BF91AF919F9174
:1031A0008F917F916F915F914F913F912F910F90F0
:1031B0000FBE0F901F9018952091910330919203AC
:1031C0002617370748F06115710539F42091E8009A
:1031D0002E772093E80001C0B901FC0120E06115C1
:1031E000710579F1809189038823F1F18530F1F13E
:1031F0008091E80083FD3CC08091E80082FD2EC0F4
:103200008091E80080FFEBCF2091F3008091F200E5
:1032100090E0922B6115710551F08830910538F4DA
:1032200021912093F100615071090196F3CF21E0C3
:10323000089709F020E08091E8008E778093E800FD
:10324000CECF2111CFCF0AC080918903882361F0AE
:10325000853061F08091E80083FD0AC08091E8002C
:1032600082FFF2CF80E0089582E0089583E0089520
:1032700081E0089581E08093E00080E28093D800AF
:103280001092C9008FE19EE40197F1F700C00000A1
:1032900087E090EBDC018093940390939503A093D7
:1032A0009603B09397039CE088E10FB6F894A89535
:1032B000809360000FBE90936000FFCF78941F92C0
:1032C0000F920FB60F9211248F939F93AF93BF93DA
:1032D00080910C0290910D02A0910E02B0910F020C
:1032E0000196A11DB11D80930C0290930D02A09335
:1032F0000E02B0930F02BF91AF919F918F910F90EB
:103300000FBE0F901F9018959C014FB7F8948091B5
:103310000C0290910D02A0910E02B0910F024FBFCE
:10332000821B930B08952FB7F89460910C02709153
:103330000D0280910E0290910F022FBF08952FB7BA
:10334000F89480910C0290910D02A0910E02B09120
:103350000F022FBF08951F920F920FB60F921124E4
:103360008F939F93AF93BF9380910B02811113C0F2
:1033700080910C0290910D02A0910E02B0910F026B
:103380004196A11DB11D80930C0290930D02A09354
:103390000E02B0930F02BF91AF919F918F910F904A
:1033A0000FBE0F901F90189520911D012223C9F088
:1033B0002091100227FF15C0262F269526952695C9
:1033C0002E31C8F4FC01E20FF11D677081E090E03E
:1033D00001C0880F6A95EAF78095928189238283DC
:1033E0000895FC0106962281621301C01282319673
:1033F000E817F907C1F7089520911D012223C1F0B4
:103400002091100227FF14C0262F26952695269579
:103410002E3130F5FC01E20FF11D677081E090E084
:1034200001C0880F6A95EAF79281892B82830895FB
:10343000FC0132962FEF30E04191641789F02F3F65
:1034400019F4411101C0232F3F5F3630A9F72F3FF8
:1034500039F0FC01E20FF11D27FDFA956283089512
:1034600008952091090230910A022817390771F056
:1034700090930A0280930902E0910702F0910802FA
:10348000309721F00084F185E02D09950895209171
:103490000502309106022817390771F09093060251
:1034A00080930502E0910702F0910802309721F025
:1034B0000680F781E02D09950895E0910702F091CB
:1034C0000802309729F00190F081E02D09950895C8
:1034D00080E008950F931F93CF93DF93C42FD22FD3
:1034E000FC0182818823B1F0409304020E949F195D
:1034F000909303028093020280E28C0F883008F0E0
:103500004DC0C77081E001C0880FCA95EAF70E94DC
:10351000141F44C080910402481330C080910202FD
:10352000909103020E948419883C910538F510E2BD
:103530001D0FCD17B9F080E28C0F883040F4C770B2
:1035400081E001C0880FCA95EAF70E940D1F18306C
:1035500010F581E09D2F977001C0880F9A95EAF7CA
:103560000E94141F802F0E942C201830B8F4D770AE
:1035700081E001C0880FDA95EAF70AC080E28C0F7B
:10358000883060F4C77081E001C0880FCA95EAF7FF
:103590000E940D1F03C0802F0E942C20DF91CF912D
:1035A0001F910F910895CF93DF93EC014091F701A4
:1035B0005091F8016091F9017091FA012FB7F894D8
:1035C00080910C0290910D02A0910E02B0910F0219
:1035D0002FBF841B950BA60BB70B843F9140A10511
:1035E000B105A8F48091F7019091F801A091F9013B
:1035F000B091FA018093F3019093F401A093F50147
:10360000B093F60184EF91E0A0E0B0E00EC00E941C
:1036100093196093F3017093F4018093F5019093F3
:10362000F60182E390E0A0E0B0E08093EF01909398
:10363000F001A093F101B093F201D093FF01C09388
:10364000FE01DF91CF910895FF920F931F93CF93C7
:10365000DF9300910002109101020115110509F498
:103660005CC01092FF011092FE011092FB011092BB
:10367000FC01D80116966D917C9117979B013A95A4
:1036800021153F4108F4707EC62FD1E0611101C0C1
:10369000D0E0F82ED8011996ED91FC911A97309749
:1036A00039F01B966D917C911C9780E00995D82389
:1036B000DD2379F08CEF8C0F813A30F46C2F8BEC9A
:1036C00091E00E94D41905C00E9445278C2F0E94CA
:1036D0001E1FE0910002F091010240815181FF2004
:1036E00071F0808584FD0BC08091FD01882339F045
:1036F00091E09A0121503109203B3D4508F090E0CE
:1037000090FF03C0CA010E94D31A0E94452710925D
:103710000102109200021092FD01C801CDB7DEB780
:10372000E5E00C940C33FC0184818623C1F4928182
:103730009923B9F08085692383FF04C081E061117A
:1037400011C00DC0892F8F7092959F70982B862F76
:103750008F7062956F70682B81E0961719F080E08A
:10376000089581E00895CF93DF93CFECD2E060E03D
:10377000CE010E9401322196C11584E0D807B9F725
:10378000DF91CF9108952091ED013091EE01232B2F
:10379000A1F4703F39F4603F81F48091EB01909186
:1037A000EC010895843048F4753038F46F3028F413
:1037B000462F672F0E94962A089580E090E0089592
:1037C000AAE0B0E0E6EEFBE10C94E732A0900D0138
:1037D000B0900E0181E090E090930E0180930D0176
:1037E000612CC12CD12C712CE12CF12C00E010E0CB
:1037F00046018E0C9F1CF801EE0FFF1FE80DF91D0E
:10380000EE53FB4F25913491402F672D862D0E945A
:103810006F2A0F5F1F4F0F30110569F78EE1E80E19
:10382000F11C739495E07912E1CFE6E9CE0ED11C3C
:103830006394F4E06F12D7CFCE0101967C018AE049
:10384000F70111928A95E9F78FEF9FEF9E838D83A1
:1038500087E08A870FE712E04AE050E0B801C7012D
:103860000E942532065F1F4F0F3CF2E01F07A1F7B1
:10387000B0920E01A0920D012A96EEE00C94033353
:1038800080E090E00E94471A80E090E00E94311AA8
:103890001092A4020E944527EBE3F2E086E0DF01EC
:1038A0001D928A95E9F71092350210923402109217
:1038B00036020E94A8220895CF92DF92FF920F93C2
:1038C0001F93CF93DF936C01009193038091A90222
:1038D000082BC7E0D0E010E0C8010C2E02C095957F
:1038E00087950A94E2F780FD04C02197A8F7F12C90
:1038F00009C0FC2EB6018C2F0E94C31B0E940F250D
:10390000019799F38F2DDF91CF911F910F91FF9028
:10391000DF90CF900895CF93DF93EC010E945C1C61
:10392000BE010E94C31B0E940F25DF91CF91089515
:10393000CF93FC018081918123813481232B31F04D
:103940009F3F31F491E08F3F19F403C091E001C033
:1039500090E0C92FC17090FD1CC0808191810E94B0
:103960008B1C92959F70963079F010F4925001C0A4
:103970009A50923088F4803F71F018F4883E60F4D9
:103980000AC0843F49F407C0883E28F0813F21F4F3
:1039900002C0C0E001C0C1E08C2FCF910895A1E129
:1039A000B0E0E5EDFCE10C94EA328C0185E0F80131
:1039B000DE011D9601900D928A95E1F7F801E280F3
:1039C0009091490260914A0240914C0250914D02FF
:1039D0004115510531F06F3F31F481E09F3F19F4FB
:1039E00003C081E001C080E0F82FF1709F2E80FDC0
:1039F0001BC1F80130812181C380D48089E4A82EC5
:103A000082E0B82EF0904B02F601E41BF50BFF208C
:103A100009F4C7C080914E02E83CF10508F092C05D
:103A2000482F407F09F051C0621311C093130FC09B
:103A3000FE2CE1100CC08F70806180934E02C50196
:103A40000E94060680914E02F80185832AC1C114A6
:103A5000D10431F02F3F31F481E03F3F19F403C02E
:103A600081E001C080E080FD03C081E08E2502C0BE
:103A700080E090E0F82FF170FF2E80FF1CC0809155
:103A8000800240914F0256E0841709F4E8C090E0AC
:103A9000589FF001599FF00D1124E05BFD4F6181AB
:103AA000261306C06081631303C06281E61203C05F
:103AB00001968770E9CFFE2CEE2009F4F2C08091C8
:103AC0004E02816080934E0249C0621306C0931378
:103AD00004C0E11002C0F80186C0C8010E94981C11
:103AE000882351F1EE2041F120914E02822F8295E0
:103AF0008F7090E0029774F08091490290914A0291
:103B000098878F831986DB86CA862C87CE01079615
:103B10000E94060686E0F801A9E4B2E001900D9249
:103B20008A95E1F70E9417280AC06217C9F0C801F8
:103B30000E94981C81111EC0C8010E940606FF2425
:103B4000F394AFC0482F407F81F789E492E00E9450
:103B5000060686E0F50111928A95E9F7F12CA1C0DD
:103B60009313E5CFE110E3CFF8018583C8010E94EC
:103B7000060654C0EE2001F320914E02822F82955A
:103B80008F7090E0029734F28091490290914A023E
:103B90009A8389831B82DD82CC822E83CE0101969B
:103BA000B7CFE83CF105D0F5FE2CEE2029F26213E8
:103BB00027C0931325C020914E0220FD18C0822FEC
:103BC00082958F70482F50E04115510581F0F80122
:103BD00025834F30510541F08F5F982F9295907F4C
:103BE000822F8F70892B8583C8010E94060686E08C
:103BF000F801A9E4B2E001900D928A95E1F751C075
:103C0000C8010E94981C811185CF80914E0281606D
:103C100080934E02C8010E94060643C086E0F5016B
:103C200011928A95E9F73DC0EE2009F485CFC801CD
:103C30000E94981CF82E882309F47ECF86E0F801B4
:103C4000A9E4B2E001900D928A95E1F780914902D2
:103C500090914A020E948B1C0E94172822C03D8727
:103C60002E878D859E850E948B1C292F22952F7073
:103C7000223028F49F7039F0811105C00BC0243028
:103C800028F49F7049F4805E883020F0C8010E94BB
:103C900006069F2CF92C05C0F8019581907F99F7B5
:103CA000F9CF8F2D6196EBE00C940633292F9530D8
:103CB00078F58F3068F590E03FE0239F800D911DEF
:103CC0001124682F677023E0969587952A95E1F770
:103CD000FC01EE0FFF1FE80FF91FEA5EFD4F40E009
:103CE00050E080E0219130E0062E02C03695279505
:103CF0000A94E2F721703327042E01C0220F0A94A0
:103D0000EAF7822B4F5F5F4F4330510559F7089513
:103D100080E00895292F953088F58F3078F590E070
:103D20003FE0239F800D911D1124282F277051E023
:103D300001C0550F2A95EAF723E0969587952A95B5
:103D4000E1F7FC01EE0FFF1FE80FF91FEA5EFD4FE0
:103D500020E030E070E04081CB01022E02C0969559
:103D600087950A94E2F781708195842785238427BB
:103D700081932F5F3F4F2330310569F7089580937A
:103D800093030E94401C089521E030E001C0220FFF
:103D90008A95EAF720958091930382230E94BF1EA3
:103DA000089521E030E001C0220F8A95EAF7809162
:103DB0009303822B0E94BF1E08958093A9020E9444
:103DC000401C08951092A50280911D01882331F0B6
:103DD0008091100287FF02C08EE101C086E0EDEC09
:103DE000F1E0DF011D928A95E9F70E94401C0895D9
:103DF000882341F080959091A40289238093A402A6
:103E00000E9445270895882339F09091A402892BB8
:103E10008093A4020E9445270895882321F00E94E0
:103E20003E270E9445270895882339F09091A502E6
:103E3000892B8093A5020E9445270895882309F4C1
:103E400053C0823849F469E38BEC91E00E94FC197D
:103E50000E94452769E30AC0833879F463E58BEC57
:103E600091E00E94FC190E94452763E58BEC91E0EC
:103E70000E94D4190E9445270895843849F467E4C4
:103E80008BEC91E00E94FC190E94452767E4EECF7D
:103E90009CEF980F913A10F4682FE8CF90E2980FBA
:103EA000983050F4877091E001C0990F8A95EAF735
:103EB000892F0E943E27DECF9BE5980F933028F490
:103EC00080E090E00E94471A089598E5980F973196
:103ED00028F480E090E00E94311A0895803F20F09D
:103EE0000E94D2220E94A8220895CF93882309F429
:103EF000B1C0C82F823891F469E38BEC91E00E9445
:103F0000FC190E9445272FEF87EE93E02150804057
:103F10009040E1F700C0000069E313C08338C1F4AA
:103F200063E58BEC91E00E94FC190E9445272FEF7E
:103F300081EE94E0215080409040E1F700C0000005
:103F400063E58BEC91E00E94D4190E94452782C062
:103F5000843891F467E48BEC91E00E94FC190E9494
:103F600045272FEF81EE94E0215080409040E1F70B
:103F700000C0000067E4E5CF8CEF8C0F813AC0F5FC
:103F800080911D018823E1F08091100287FF18C005
:103F9000EC2FE695E695E695F0E0E553FE4F82813D
:103FA000282F30E04C2F477081E090E002C0880F4E
:103FB000991F4A95E2F782239323892B61F412C05B
:103FC000EDECF1E083ED91E02191C21721F08E1725
:103FD0009F07D1F707C06C2F8BEC91E00E94D4199A
:103FE0000E9445276C2F8BEC91E00E94FC19ADCF0D
:103FF00080E28C0F883068F4C77081E090E001C0E7
:10400000880FCA95EAF79091A502892B8093A502A3
:104010009CCFEBE5EC0FE33040F4F0E0E15AFE4FCB
:10402000808190E00E94471A15C0E8E5EC0FE73167
:1040300050F4F0E0EE0FFF1FEE59FE4F80819181AA
:104040000E94311A07C0C03F28F08C2F0E9499238C
:104050000E94A822CF9108951F93CF93DF93182F2A
:10406000893319F0C0E0D0E002C0C0E5D0E0812F74
:104070000E94751F209741F08FE99FE00197F1F7AB
:1040800000C000002197F6CF812F0E941E1FDF91F4
:10409000CF911F9108958091D40280FF0AC06A9A3F
:1040A0008EB18B7F9EB194602FB7F894E0EBF2E075
:1040B0000BC0E0EBF2E0118210821282339632E004
:1040C000E43DF307C1F7EBCF32E0E43DF30789F0BD
:1040D000319148E09EB9000000C037FF8EB9330F20
:1040E000000000C000C000C08EB900C04A9591F722
:1040F000EBCF2FBF8FE594E00197F1F700C00000F0
:1041000008959091D40290FF0CC0E0EBF2E081831F
:1041100060834283339692E0E43DF907C1F70E9441
:104120004B2008958091D402282F269530E0211548
:10413000310519F48170826005C02532310524F003
:10414000817088648093D4020895CF92DF92EF92B9
:10415000FF926B017C010E949220B701A60188E0CA
:1041600090E00E941332FF90EF90DF90CF9008957F
:104170008091D802882319F081508093D8026091F1
:10418000D4027091D5028091D6029091D7020E94FC
:10419000A52008958091D802833018F48F5F809312
:1041A000D8026091D4027091D5028091D60290918C
:1041B000D7020E94A5200895E4EDF2E083E0808319
:1041C00011828FEF82838383148260817181828167
:1041D00093810E94A5200895A0E0B0E0E2EFF0E214
:1041E0000C94EB32E82EF62EE901E42FF0E0611199
:1041F00006C0E65EF84FE4914E2F2E2F71C0062FB9
:1042000010E0E65EF84F4491F42FC42ED12C26E046
:10421000829FC00111242FEF30E0B9010E945B3270
:104220005BEA5603C001579F900D11248E0D911D1E
:104230008E0D911D582F550F580FD901A01BB10B92
:10424000AC9DC001AD9D900DBC9D900D1124E92F3A
:10425000F59ED0011124AB2FBB277901EA1AFB0A86
:10426000EC9CD001ED9CB00DFC9CB00D11245901CB
:10427000A51AB108A09E7001A19EF00CB09EF00C92
:104280001124EF2CFF242E193F092C9D80012D9D18
:10429000100D3C9D100D1124212F6230710591F0FD
:1042A00048F461157105E1F061307105B9F4242F0E
:1042B0004B2F16C06430710569F040F0663071050F
:1042C00079F00CC0242F492FE12F0AC0492FEF2F7E
:1042D0002B2F06C0292FE42F412F02C0292FEB2FAF
:1042E00049832883EA83CDB7DEB7EAE00C9407332D
:1042F000A3E0B0E0EEE7F1E20C94F3329091D40247
:1043000090FF0AC09E012F5F3F4F0E94EC204B811F
:1043100069818A810E9481202396E2E00C940F3308
:10432000A3E0B0E0E6E9F1E20C94E632F82E762E56
:10433000E42E622E9091D40290FF67C0E92FE6959B
:10434000AE2FB0E0A65CBE4F8C91809347029E7F5B
:10435000923061F49E012F5F3F4F8F2D0E94EC2021
:104360004B8169818A810E9481203DC0823019F48D
:10437000E090D70238C0863019F4F090D50233C0EF
:104380008930D9F3893179F5E9518E2F8170582E12
:10439000E695F0E0E65EF74FE4910E2F10E080EB3B
:1043A000C82E82E0D82EA12CB12C9CE0892E912C15
:1043B000C501B4010E945B328F2D511002C0860FDF
:1043C00001C0861B96014E2D672D0E94EC20A00E89
:1043D000B11E83E0C80ED11C84EDC81682E0D80659
:1043E00039F70E944B20F092D5027092D602E092EB
:1043F000D702662051F06091D4027091D50280916D
:10440000D6029091D7020E94A5202396EFE00C944B
:104410000233E4EDF2E0438128E0421B08F440E07F
:1044200021E0628181810E9490210895E4EDF2E013
:10443000438128E0420F08F44FEF21E0628181813F
:104440000E9490210895E4EDF2E0628128E0621B71
:1044500008F460E021E0438181810E949021089569
:10446000E4EDF2E0628128E0620F08F46FEF21E0F2
:10447000438181810E9490210895E4EDF2E08181E1
:1044800021E04381628188500E9490210895E4EDEB
:10449000F2E0818121E043816281885F0E94902166
:1044A00008959091D40290FF3DC09170811102C097
:1044B000926006C0853210F0986402C0880F982B75
:1044C0009093D402662351F06091D4027091D5028A
:1044D0008091D6029091D7020E94A5206091D402CB
:1044E000669570E04BE050E08FE091E00E9426334B
:1044F000892B19F01092480209C081E0809348028C
:104500000E949F19909342028093410281E0809320
:10451000440220E04091D7026091D6028091D502FA
:104520000E94902108958091D4028695815009F4CB
:1045300084E261E00E94512208958091D402869520
:104540008F5F853208F081E061E00E94512208957A
:104550000E949F1920913D02211104C020913E022A
:10456000222321F090933A028093390220913F0256
:10457000211104C020914002222321F0909338029F
:1045800080933702E0910702F0910802309749F0DA
:1045900082E080933B020480F581E02D8BE392E082
:1045A00009950895803F39F480913E0287FF6AC0E3
:1045B00010923E0267C0813F29F480913E02181696
:1045C000BCF360C090913D02823F29F497FF5AC02E
:1045D00010923D0257C0833F19F41916CCF352C014
:1045E00090913F02893F31F419160CF04BC01092A4
:1045F0003F0248C08A3F19F497FF44C0F8CF8B3F71
:1046000039F48091400287FF3DC0109240023AC0C9
:104610008C3F29F4809140021816BCF333C0843FCC
:1046200021F480913C028E7F17C0853F21F4809158
:104630003C028D7F11C0863F21F480913C028B7F2C
:104640000BC0873F21F480913C02877F05C0883FE3
:1046500031F480913C028F7E80933C0213C08D3FE9
:1046600021F4809136028E7F0BC08E3F21F4809121
:1046700036028D7F05C08F3F29F4809136028B7FF3
:104680008093360280913D02811106C080913E02E6
:10469000811102C01092350280913F02811106C043
:1046A00080914002811102C01092340208958091DD
:1046B000360280FD16C081FD16C082FD18C08091B3
:1046C0003402882391F0883290F428E0829FC00160
:1046D000112468E270E00E946F32862F672B29F068
:1046E00007C082E0089584E0089581E0089588E09D
:1046F00008958091360280FD14C081FD14C082FDB2
:1047000016C080913502882381F08E3180F420E537
:10471000829FC00111246EE170E00E946F32862FEB
:10472000089584E1089588E2089588E0089580E579
:104730000895803F21F40E947923819504C0813F30
:1047400029F40E94792380933E020895823F21F448
:104750000E947923819504C0833F29F40E94792324
:1047600080933D020895893F19F40E94572305C0A4
:104770008A3F31F40E945723819580933F02089528
:104780008B3F21F40E945723819504C08C3F29F46C
:104790000E945723809340020895843F21F4809122
:1047A0003C02816017C0853F21F480913C02826009
:1047B00011C0863F21F480913C0284600BC0873F8A
:1047C00021F480913C02886005C0883F31F48091DB
:1047D0003C02806180933C0208958D3F21F48091DA
:1047E000360281600BC08E3F21F4809136028260D8
:1047F00005C08F3F29F48091360284608093360291
:10480000089580E008959091100292FF0DC0282F26
:104810002871283019F4877F846006C0282F2471FE
:10482000243011F48B7F886093FF0DC0282F2871EE
:10483000283119F4877E846106C0282F2471243121
:1048400011F48B7E88612091110220FF0DC0382F5A
:104850003871383019F4877F816006C0382F317184
:10486000313011F48E7F886021FF0DC0282F287110
:10487000283119F4877E816106C0282F21712131EA
:1048800011F48E7E886194FD877E0895F894E82F58
:10489000E295EF70F0E031A1282F2F7081E090E0D9
:1048A00001C0880F2A95EAF7982F9095932391A33A
:1048B00092A1892B82A378940895AAE0B0E0E3E660
:1048C000F4E20C94E732AE014F5F5F4F7A018AE069
:1048D000FA0111928A95E9F706E211E06A019BE27A
:1048E000692E91E0792E88248394912CF80180819F
:1048F0008F3F09F447C0F894E82FE295EF70F0E09D
:1049000021A18F70A40102C0440F551F8A95E2F7C0
:10491000CA01922F982B91A392A18095892382A3FB
:10492000789400C0EBE2F1E021E030E0A12CB12C62
:1049300041914F3F89F0A42FA295AF70B0E09096BF
:104940008C9190E04F7002C0959587954A95E2F75B
:1049500080FD02C0C90102C080E090E0A82AB92A07
:10496000220F331F51E0EA33F50711F7F801808178
:104970008F3F11F00E944624F0EAFA95F1F7F60114
:10498000B182A0820F5F1F4FF2E0CF0ED11C6016E4
:10499000710609F0ABCF4AE050E0B70186EA91E03A
:1049A0000E943333892B89F08AE0F701A6EAB1E04F
:1049B00001900D928A95E1F781E08093AC020E940C
:1049C0009F199093AB028093AA028091AC0281114F
:1049D00002C080E020C08091AA029091AB020E94A8
:1049E00084190597B0F34AE050E066EA71E081EC83
:1049F00091E00E943333892B59F08AE0E6EAF1E036
:104A0000A1ECB1E001900D928A95E1F781E001C03F
:104A100080E01092AC022A96EEE00C940333CF9320
:104A2000DF938238910569F1B0F48133910509F47F
:104A300077C048F48932910509F469C08A3291053A
:104A400009F473C092C08533910509F45BC08933C2
:104A50009105B9F08AC0833E910591F138F4803E0A
:104A60009105D1F0823E910531F17FC0863E9105DE
:104A7000D9F1873E9105E9F1843E910509F075C0B1
:104A800028C02091100220FD5BC021FD59C020915B
:104A9000110223FD61C069C08091100280FD4AC0EF
:104AA0008091110280FF4CC08091100284FD4EC1A4
:104AB00083EE90E04DC18091100282FF3EC0F4CFA2
:104AC0008091100282FD39C08091110280FD38C0B2
:104AD000EBCF8091110281FF39C08091100284FDDB
:104AE00035C187EE90E034C18091100283FF2BC066
:104AF000F4CF8091100283FD26C08091110281FDC8
:104B000025C0EBCF8091100285FD26C022C0809188
:104B1000100285FD1EC08091110283FF1DC00AC0D6
:104B20008091100286FD1BC01DC08091100286FD81
:104B300019C015C089E390E00BC182EE90E008C176
:104B400080EE90E005C186EE90E002C184EE90E038
:104B5000FFC085E390E0FCC089E290E0F9C08AE202
:104B600090E0F6C081E390E0F3C0811531E5930752
:104B700008F061C0811520E59207B0F0482F4F7012
:104B80004695469520E2429FA0011124982F9370EC
:104B900021E030E002C0220F331F9A95E2F7C901ED
:104BA0009D68842B952BD4C0883E910568F5803E86
:104BB000910508F0CDC0883A9105B8F4853A910581
:104BC00048F0855AE82FF0E0E15AFE4F808190E0EE
:104BD0009064BEC08130910509F4B5C008F4B6C038
:104BE0008430910508F4B2C0B3C08F3B910508F042
:104BF000ADC0885AE82FF0E0EE0FFF1FEE59FE4FD0
:104C0000808191819464A4C0811530E2930758F4A7
:104C1000811521E0920708F09BC0803F910508F4C0
:104C200095C0906595C0811530E4930708F48EC057
:104C30009F70906A8DC0811525E5920708F042C0EB
:104C4000811534E5930728F0982F8827846F906AA0
:104C50007FC0811523E59207B0F09C0123703327B4
:104C600041E050E002C0440F551F2A95E2F7282F7B
:104C70002695269580E2289F90011124CA01822B57
:104C8000932B9A6865C0811532E5930728F4982F15
:104C90008827816F906A5CC09C012370332741E0B4
:104CA00050E002C0440F551F2A95E2F7282F2695A1
:104CB000269580E2289F90011124CA01822B932B14
:104CC0009C6846C0EC01C11589E5D807B0F4C11550
:104CD00028E5D20728F09C2F8827806F906A38C07B
:104CE000C11536E5D30790F58C2F0E9403248F71F0
:104CF00090E0982F882790622BC0C1158AE5D807CD
:104D000090F48C2F8F700E94032494E0D695C79561
:104D10009A95E1F7CF70D0E0DC2FCC27D0699E01C7
:104D2000282BC90115C0CE0190568115904270F410
:104D30008D2F8F710E940324282F2F71CE01992768
:104D40009062922B05C081E090E002C080E090E08C
:104D5000DF91CF910895CF9384E090E00E94ED31F0
:104D6000C82F82E290E00E94ED312C2F30E0A901A3
:104D7000582BCA01CF91089580E090E00E94FB314A
:104D8000883E9E4F19F40E94CC2B089580E0089530
:104D900068EE7EEF80E090E00E941F3260E082E0EB
:104DA00090E00E94013260E083E090E00E940132D6
:104DB0001092A90260E084E090E00E94013264E079
:104DC00082E290E00E94013260E085E090E00E9483
:104DD000013260E086E090E00E9401326FEF87E0F0
:104DE00090E00E94013240E050E0BA0188E090E09B
:104DF0000E94133260E08DE090E00E94013240E0BA
:104E000050E0BA0188E190E00E94133260E087E14F
:104E100090E00E94013240E050E0BA018CE190E065
:104E20000E94133260E070E080E290E00E941F3246
:104E300040E050E0BA0188E190E00E94133280E047
:104E40000E949D2B0E94BC2B40E050E0BA018FE0F5
:104E500090E00E94133240E050E0BA0183E190E01C
:104E60000E94133208958091A802882331F0109295
:104E7000A8021092A7021092A60208958095909120
:104E8000A50289238093A5020895CF939091A5024E
:104E90008091A402892B8093CB018091A802882362
:104EA00061F10E949F192091A6023091A702821BF6
:104EB000930B8838934110F00E9433279091CB01D7
:104EC0008091A802892B8093CB0180911D018823BA
:104ED00031F08091100287FF02C08EE101C086E0B0
:104EE000EDECF1E090E0815028F021912223D9F3FC
:104EF0009F5FF9CF91110E943327C091FB01C095AC
:104F00008091CB01C8238091FC01C82BC093CB01B9
:104F100040E250E064E872E08BEC91E00E943333B1
:104F2000892B11F180E2EBECF1E0A4E8B2E0019012
:104F30000D928A95E1F7E0910702F091080230970F
:104F400099F080911D01882349F08091100287FF1C
:104F500005C0C093CC0186E08093CB010280F38131
:104F6000E02D8BEC91E00995CF910895109283028A
:104F700010928202109281020895209183028095FE
:104F8000822380938302982F977099F430E0482F02
:104F9000082E000C550B2417350759F0909111027B
:104FA00092FF07C08595859585950E94C41E0E9435
:104FB000B6270895CF93C0911102C2FB992790F9AB
:104FC000981791F080FBC2F9C09311026091100212
:104FD00084E090E00E9401326C2F82E290E00E9417
:104FE000013282E00E94BD27CF9108959091110275
:104FF00092FF10C098E0899F90011124262B2093E6
:1050000083020E94D11E0E949F1990938202809376
:10501000810208950E94D11E08958091800290918E
:105020004F02891719F08F5F8770FBCF08950F9398
:105030001F93CF93DF9380914E0282958F7009F07A
:105040005AC080914B02882309F455C08091800298
:1050500010914F026091490270914A02C0914C0236
:10506000D0914D0291E06F3F09F090E0292F06E0CA
:10507000811709F440C0209721F07F3F21F030E0F4
:1050800003C031E001C0322F90E030FD31C0089FF5
:10509000F001099FF00D1124DF01A05BBD4F1196B7
:1050A0003C911197371324C03C91361321C01296BE
:1050B0003C91129731111CC013964D915C9114973D
:1050C0004C1B5D0B483C510598F480914E028F704B
:1050D000806180934E02EB5AFD4F80818F7080611A
:1050E000808389E492E00E9406060E940D2803C096
:1050F00001968770BDCFDF91CF911F910F910895D9
:105100000895EF92FF920F931F93CF93DF938C013B
:10511000C0EBD2E0E12CF12CF8018481F6E0EF162F
:10512000F1041CF4882339F002C0811104C09E01EF
:105130004091D70202C09E0140E06091D60280916A
:10514000D5020E94EC208FEFE81AF80A23969CE023
:10515000E916F10409F70E944B20F801848190E0E0
:105160000196817099278483CDB7DEB7E6E00C9471
:105170000B33A0E0B0E0EFEBF8E20C94E932EC0185
:105180004C81042F10E09801D8010E94BA329B0193
:10519000AC010E94D0326B017C01E0E2F0E0E01B48
:1051A000F10BA5E5B0E09B01AC010E94D0324B01B0
:1051B0005C019F01DF010E94B2329B01AC010E94A1
:1051C000DB329B01AC012C0D3D1D4E1D5F1DC50149
:1051D000B4010E948332822FF22E99E2921728F0B6
:1051E00093E0299F900111240DC025E530E0281B94
:1051F0003109C901880F991F280F391F37FF02C0D5
:105200002F5F3F4F35952795122F109590EBC92EA4
:1052100092E0D92E00E085E5E82EEF1801FD02C0EE
:105220008E2D01C08F2D9601412F6091D6020E94D4
:10523000EC200F5F83E0C80ED11C0C3079F70E9480
:105240004B208C81811102C091E003C0803219F49F
:105250009FEF90931C0190911C01890F8C83CDB717
:10526000DEB7ECE00C9405330F931F93CF93DF93DD
:10527000C0EBD2E0FE01118210821282339682E0EE
:10528000E43DF807C1F700E010E08091AE02082E7F
:10529000000C990B0817190794F080911B01082E38
:1052A000000C990B8017910754F09E014091D70292
:1052B0006091D6028091D5020E94EC2003C0198231
:1052C00018821A820F5F1F4F23960C301105E9F6E2
:1052D0000E944B2080911A019091AE02980F9093FA
:1052E000AE0220911B01280F20931B01121614F40B
:1052F0009B301CF0819580931A01DF91CF911F9113
:105300000F910895A0E0B0E0E8E8F9E20C94EC32E7
:10531000FC01828180FF03C0DD24DA9402C0DD2419
:10532000D39400EB12E0C0E0D0E02CE0B22EF80104
:1053300011821082128294E0E92EF12CC12C80910E
:10534000AD028C0D8D302CF06B2D0E944D32892FCB
:1053500002C087FD845F082E000C990BC817D9077F
:1053600091F48091D7028E9DA0018F9D500D112444
:10537000559547955595479598016091D60280912E
:10538000D5020E94EC20CD0CF1E0EF1AF108B9F63D
:1053900021960D5F1F4FCC30D10549F60E944B205E
:1053A0008091AD0291E0D91206C0811102C08BE05C
:1053B00007C0815005C090E00196BE010E946F3287
:1053C0008093AD02CDB7DEB7E9E00C940833EF92DD
:1053D000FF921F93CF93DF93EC0180EBE82E82E0E6
:1053E000F82E10E08C8197014091D7026091D6028F
:1053F000810F0E94EC201B5E83E0E80EF11C1C3F35
:1054000089F70E944B209A818C8190FF02C08F5FA8
:1054100001C081508C83DF91CF911F91FF90EF905D
:105420000895A3E0B0E0E7E1FAE20C94F1328C01D8
:105430008091AF0281110AC09E012F5F3F4F4FEF55
:105440006FEF0E94EC208A818093AF02F801848183
:10545000813051F028F0823061F44091AF020AC0EF
:105460008091AF0240E007C06091AF0240E080E071
:1054700003C040E080E060E00E948120F801848168
:1054800090E0019663E070E00E946F32848323967F
:10549000E4E00C940D33CF93DF93EC01E4EDF2E004
:1054A000438162818C810E9478218C818F5F8C8303
:1054B000DF91CF910895CF93DF93EC01EC81F0E081
:1054C000E15EF74F4491E4EDF2E0628181810E9458
:1054D00078218C818F5F8C83DF91CF9108951F930A
:1054E000CF93DF93962F8430E8F46530D8F44F30B3
:1054F000C8F4632F122FC42FD0E0CC0FDD1F2EE194
:10550000929FC00DD11D112496E9899FC00DD11D18
:105510001124CE0187960E940132612FCE01889618
:105520000E940132DF91CF911F9108950F931F9335
:10553000CF93DF93843008F56530F8F44F30E8F40A
:10554000C42FD0E0CC0FDD1F2EE1629FC00DD11D16
:10555000112436E9839FC00DD11D1124CE018796F9
:105560000E94ED3190E0182F0027CE0188960E940E
:10557000ED319801282BC90102C080E090E0DF9155
:10558000CF911F910F910895AAE0B0E0EAECFAE202
:105590000C94E9320DEE12E08BEDC82E82E0D82E8D
:1055A0009FE7E92E92E0F92E2FE0922E3AEDA32EFE
:1055B00032E0B32E88248394F601019311936F0196
:1055C0004AE050E0B701CE0101960E94DD31F801BA
:1055D000892D11928A95E9F789819A81F801918341
:1055E00080838F8182838D8183838885848389856D
:1055F00085838B819C819783868310868A8587FF2C
:1056000003C01686158603C0F801B686A58680FFFE
:1056100002C0F801808681FF04C0F8019085926085
:10562000908782FF04C0F80190859460908783FF83
:1056300004C0F80190859860908784FF04C0F80149
:1056400090859061908785FF04C0F8018085806215
:105650008087015F1F4FFAE0EF0EF11C8FECE81618
:1056600082E0F80609F0A8CF2A96ECE00C94053306
:10567000A5E0B0E0EEE3FBE20C94F1328C019093F4
:10568000EC018093EB01011580E21807B8F4802F3C
:105690000E941E1FC801805E9109089718F001152D
:1056A000110531F4C8010E948D310E940D1F16C0F2
:1056B000C8010E948D310E94F81E10C080EF8983BE
:1056C0008A831B820E949F198160782F9D838C831F
:1056D00049815A816B818D810E94AA302596E4E030
:1056E0000C940D33A5E0B0E0E8E7FBE20C94F33254
:1056F0009093EC018093EB01811520E2920718F45E
:105700000E94BA3111C080EF89838A8381E08B8344
:105710000E949F198160782F9D838C8349815A81D3
:105720006B818D810E94AA302596E2E00C940F33A4
:1057300086E290E00E9401320895CF93C82F811134
:1057400002C06FEF01C06DE183E290E00E94013280
:10575000C11102C06FEF01C06CEA84E290E00E94C8
:105760000132C11102C06FEF01C065EE85E290E029
:105770000E940132CF91089580E00E949D2B60E04D
:1057800070E0CB010E94982B0E94E01B0E94B31B8B
:1057900081E00E949D2B089583E290E00E94ED310C
:1057A0008D3181F484E290E00E94ED318C3A51F425
:1057B00085E290E00E94ED3191E0853E09F090E0B5
:1057C000892F01C080E081700895A0E0B0E0EBEE89
:1057D000FBE20C94E932863048F4811108C09091C4
:1057E0008000977F909380002F9806C085E090916D
:1057F0008000986090938000A0918600B09187000F
:10580000282F30E00E94BA3225E030E040E050E03E
:105810000E9483320027122F232F342F012F122FA3
:10582000232F332780918600909187006CE070E0F1
:105830000E945B326017710730F0C80169E070E0C8
:105840000E945B325EC08091860090918700E0905C
:105850008600F0908700E0918600F0918700C6E016
:10586000D0E0BE010E945B32060F171F211D311DC3
:105870004801590185E0880C991CAA1CBB1C8A951B
:10588000D1F7C701BE010E945B326F01E12CF12C00
:10589000A7019601260F371F411D511DC501B401F7
:1058A0000E94833269017A01E0918600F0918700BD
:1058B000CA01B9010E943D329B01AC01DF010E9487
:1058C000D0329B01AC01C701B6010E943D32DC0120
:1058D000CB012FE0B695A795979587952A95D1F797
:1058E000009186001091870020E030E0081719072A
:1058F0002A073B0728F46091860070918700CB014E
:10590000BC0170938D0060938C00CDB7DEB7ECE0E6
:105910000C940533682F86E090E00E9401320895D0
:10592000863008F085E09091D9029770282F220FD9
:10593000220F220F922B9093D902987F21E009F435
:1059400020E09091D90220FB90F99093D9020E9417
:10595000E52B08950E94BC2681110AC00E94C8262A
:105960008091D902847089628093D9020E948A2C26
:1059700086E090E00E94ED318093D902282F269591
:105980002695269530E02630310524F08770886210
:105990008093D9028091D90280FF04C086958695B4
:1059A000869501C080E00E94E52B08959091D40275
:1059B00090FF04C09695981748F003C0811106C067
:1059C00090E0961718F40E949D22089561E00E94CD
:1059D00051220895882311F0FA0101C0FB010995B5
:1059E000089580919303982F9670963011F48860F3
:1059F00001C0877F0E94BF1E0895A0E0B0E0E3E0F1
:105A0000FDE20C94EB32EC018AE0A82E28812223DF
:105A100009F49AC0213009F041C08981813039F4FC
:105A20008E010E5F1F4F8A810E942C2008C0823099
:105A300041F48E010E5F1F4F8A810E94751FE8019D
:105A400081C0833039F48E010E5F1F4F8A810E941E
:105A50001E1FF5CF843011F0219674C02A81229642
:105A600080E090E030E0205331092A30310558F4CD
:105A7000A89EA001A99E500D1124C901840F951F55
:105A800021962881EFCF009709F45CC0EFE9FFE091
:105A90003197F1F700C000000197F5CFE22FF0E059
:105AA000E85EF44FB490822F86958695869590E0B7
:105AB000FC01E85FF44FE4902770F12C022E02C045
:105AC000F594E7940A94E2F7F1E0EF22FF24FC0159
:105AD000E850F54FC490D12C022E02C0D594C79443
