:100000000C94C2020C94FA020C94FA020C94FA02B8
:100010000C94FA020C94FA020C94FA020C94FA0270
:100020000C94FA020C94FA020C9427280C94F928E8
:100030000C94F4220C94FA020C94FA020C94FA0236
:100040000C94FA020C94FA020C94FA020C94FA0240
:100050000C94FA020C947D230C94FA020C94FA028C
:100060000C94FA020C94FA020C94FA020C94FA0220
:100070000C94FA020C94FA020C94FA020C94FA0210
:100080000C94FA020C94FA020C94FA020C94FA0200
:100090000C94FA020C94FA020C94FA020C94FA02F0
:1000A0000C94FA020C94FA020C94FA02E205E205AE
:1000B0000E060E069206B006B607B607BB06310757
:1000C0004207420761298829802A8829802AD42961
:1000D000F729802A4E2A5D2A29001E001F002000D1
:1000E00021002200230024002500260027002D00E7
:1000F0002E00310035002B0014001A0008001500F6
:1001000017001C0018000C00120013002F00300014
:1001100031000000390004001600070009000A0041
:100120000B000D000E000F003300340032002800D9
:100130000000E10064001D001B000600190005001E
:1001400011001000360037003800E50052004C0066
:10015000E000E300E20001510000000000002C007C
:100160000151E600E400500051004F000000005C27
:100170003A003B003C003D003E003F004000410093
:10018000420043004400450001004C000100C35CF4
:100190005200C45CC65CC75CC85CC95CCA5CCB5C12
:1001A00001000100010001000000010050005100A9
:1001B0004F000100010001000100010001000100E9
:1001C0000100010001000000010001000100010028
:1001D000BE5CC05CBF5C01000100010001000100C9
:1001E0000100010001000100010001000100000008
:1001F00000000000010001000100010001000100F9
:100200000100000000047F3F1F6432146432147840
:100210003C1E1E140A052223252628292A2C2D2FB0
:100220003032333536383A3B3D3E4042434547490C
:100230004A4C4E5051535557595A5C5E6062646641
:1002400068696B6D6F71737577797B7D7F8183854D
:1002500087898A8C8E90929496989A9C9E9FA1A34F
:10026000A5A7A8AAACAEAFB1B3B4B6B8B9BBBCBE73
:10027000BFC1C2C3C5C6C7C9CACBCCCDCED0D1D2EF
:10028000D2D3D4D5D6D7D7D8D9D9DADADBDBDBDCF1
:10029000DCDCDCDCDDDDDDDDDCDCDCDCDCDBDBDB9D
:1002A000DADAD9D9D8D7D7D6D5D4D3D2D2D1D0CEFD
:1002B000CDCCCBCAC9C7C6C5C3C2C1BFBEBCBBB902
:1002C000B8B6B4B3B1AFAEACAAA8A7A5A3A19F9E80
:1002D0009C9A98969492908E8C8A89878583817F48
:1002E0007D7B79777573716F6D6B69686664626029
:1002F0005E5C5A5957555351504E4C4A49474543F5
:1003000042403E3D3B3A3836353332302F2D2C2A91
:10031000292826252322FFAA7F554000010101013B
:1003200001010101010202020202020202020303B0
:100330000303030303030404040404040405050580
:100340000505060606060607070707070808080842
:10035000090909090A0A0A0B0B0B0C0C0C0D0D0DEF
:100360000E0E0E0F0F0F1010111111121213131485
:1003700014151516161717181819191A1A1B1B1CFD
:100380001D1D1E1E1F202021222223242425262657
:10039000272829292A2B2C2D2D2E2F30313232338C
:1003A0003435363738393A3B3C3D3E3F4041424395
:1003B0004445464748494A4C4D4E4F505153545579
:1003C0005658595A5B5D5E5F616264656668696B29
:1003D0006C6D6F7072737577787A7B7D7E808283A7
:1003E0008587888A8C8E8F91939596989A9C9EA0EB
:1003F000A2A3A5A7A9ABADAFB1B3B5B7BABCBEC0F8
:10040000C2C4C6C9CBCDCFD1D4D6D8DBDDDFE2E4C0
:10041000E7E9EBEEF0F3F5F8FAFDFF0E03590044BF
:1004200000360030004D00510000000A0359004D15
:100430000044004B0000000403090409023B0002D1
:100440000100A0FA090400000103010100092111C3
:100450000100012240000705810308000109040191
:1004600000010300000009211101000122BC000766
:1004700005820320000112010002000000084D590E
:100480004D6001000102000105010902A101850280
:100490000901A10005091901290515002501950586
:1004A000750181029501750381010501093009314A
:1004B0001581257F95027508810609381581257FEC
:1004C000950175088106050C0A38021581257F956E
:1004D0000175088106C0C005010980A101850319C5
:1004E000012AB700150126B700950175108100C0DB
:1004F000050C0901A101850419012AA00215012694
:10050000A002950175108100C005010906A10185B1
:1005100006050719E029E7150025019508750181F1
:10052000020507190029EF1500250195F0750181D5
:1005300002050819012905950575019102950175B6
:10054000039101C005010906A101050719E029E78A
:100550001500250195087501810295017508810135
:100560000507190029FF150026FF0095067508816B
:100570000005081901290595057501910295017578
:10058000039101C011241FBECFEFDAE0DEBFCDBF63
:1005900004B603FE18C080912E0390912F03A09102
:1005A0003003B09131038730904BA740B04B59F4E2
:1005B00010922E0310922F031092300310923103E9
:1005C000E0E0F8E3099511E0A0E0B1E0EAEFF7E53B
:1005D00002C005900D92A63CB107D9F723E0A6EC26
:1005E000B1E001C01D92AE32B207E1F70E945E1386
:1005F0000C94FB2B0C940000849A8C9A0895CF9352
:10060000C82F0E94F803882329F0C1FD02C08C9AEC
:1006100001C08C98CF91089581E0089581E00895FC
:100620000E940E03089508950E9413030895A5E003
:10063000B0E0EDE1F3E00C945C2B49835A833091F8
:10064000CD0189819A81311114C0662359F022238A
:1006500049F00E949B09182F682F89819A810E9476
:10066000770903C00E948909182F69817A81812F37
:1006700004C00E949B0969817A810E94D41025964A
:10068000E3E00C94782BFC01262F4081518162819C
:10069000738184810E941703089581E00895CF93A8
:1006A000DF93EC0160E00E944303BE010E9414034B
:1006B000DF91CF9108950E94FC0208950E942212BA
:1006C000089508950E943C080E9461032FEF84E37F
:1006D0009CE0215080409040E1F700C00000089568
:1006E0000E9462030E94A32308950E9462030E9455
:1006F000C72308950F931F93CF93DF93EC018B01D2
:100700000E941003882309F44EC0B801CE010E9454
:10071000EC1D882309F447C0B801CE010E941D21B9
:10072000882309F440C0B801CE010E94051F882328
:10073000D1F1B801CE010E9483208823A1F1B80134
:10074000CE010E94241C882371F1F8018281882344
:1007500031F1CB358DE5D807E9F050F4C115FCE552
:10076000DF0779F0CF3DDC45D1F40E94E70E0CC0E5
:10077000CD35EDE5DE0759F080F0C83ADD4521F0D2
:100780000EC00E9470030FC00E9475030CC00E942F
:10079000220E05C00E942C0E02C00E94300EC8011D
:1007A0000E940C0301C080E0DF91CF911F910F9157
:1007B0000895CF93DF93EC0161E00E944303BE01F3
:1007C0000E947A03DF91CF9108950E94CC2280E0AD
:1007D0000E94211E0E94040408950E94071D0E9489
:1007E00008040E94D522089508950E94F4030895F4
:1007F00081E008950895CF93C82F0E94F5038C2FB0
:100800000E94FF02CF91089580E00E94FB030895AB
:100810000E9479210E94FB030895CF930E947921C1
:10082000C82F8091C801C81779F0C093C8010E94F1
:1008300062236093C9017093CA018093CB019093A6
:10084000CC018C2F0E94FB03CF910895ABE0B0E068
:10085000ECE2F4E00C945B2B4F83588769877A872E
:100860008B8761110E943C0D8E010F5F1F4F86E048
:10087000F80111928A95E9F785E0FE013796D801D3
:1008800001900D928A95E1F78091DE0282FF0CC003
:100890000E94FF0C882319F082E00E94F00D0E9454
:1008A000E60C81110E94600D99818A812C813D8125
:1008B000232B31F08F3F31F481E09F3F19F403C0C7
:1008C00081E001C080E080FF09C049815A816B81CD
:1008D0007C818D819E810E94400C05C0C8010E94D0
:1008E0004D038111F2CF2B96E4E00C94772BFC01A1
:1008F000808191810E94CD090895CF93882309F4C6
:1009000097C0C82F8238A1F469E3809100019091CB
:1009100001010E9470220E946E0D2FEF87EE93E07E
:10092000215080409040E1F700C0000069E315C00D
:100930008338E1F463E580910001909101010E9408
:1009400070220E946E0D2FEF81EE94E021508040C6
:100950009040E1F700C0000063E5809100019091B4
:1009600001010E947E220E946E0D62C08438A1F4B3
:1009700067E480910001909101010E9470220E9421
:100980006E0D2FEF81EE94E0215080409040E1F712
:1009900000C0000067E4E1CF8CEF8C0F813AD0F407
:1009A0006C2F80910001909101010E94F021882319
:1009B00049F06C2F80910001909101010E947E22EC
:1009C0000E946E0D6C2F80910001909101010E9498
:1009D0007022C9CF80E28C0F883048F4C77081E064
:1009E00001C0880FCA95EAF70E941F0DBCCFEBE546
:1009F000EC0FE33040F4F0E0E85AFE4F808190E0E5
:100A00000E94AE2115C0E8E5EC0FE73150F4F0E0AC
:100A1000EE0FFF1FE65DFE4F808191810E94C42191
:100A200007C0CD3E28F08C2F0E94E3130E94D01403
:100A3000CF910895882309F45BC0823859F469E3A3
:100A400080910001909101010E9470220E946E0D20
:100A500069E30CC0833899F463E5809100019091BB
:100A600001010E9470220E946E0D63E580910001D9
:100A7000909101010E947E220E946E0D089584389B
:100A800059F467E480910001909101010E94702265
:100A90000E946E0D67E4EACF9CEF980F913A10F434
:100AA000682FE4CF90E2980F983050F4877091E06F
:100AB00001C0990F8A95EAF7892F0E94250DDCCF96
:100AC0009BE5980F933028F480E090E00E94AE21DF
:100AD000089598E5980F973128F480E090E00E94FF
:100AE000C42108958D3E20F00E944B140E94D01422
:100AF00008951F93CF93DF93182FEB010E947D047D
:100B0000209741F08FE99FE00197F1F700C00000C6
:100B10002197F6CF812F0E941A05DF91CF911F9167
:100B20000895893319F060E070E002C060E570E07C
:100B30000E9479050895882321F00E941F0D0E94CC
:100B40006E0D0895882321F00E94250D0E946E0DE0
:100B50000895A0E0B0E0EFEAF5E00C94572B7C019B
:100B6000D62FC72FFC011281058102950F700E94BC
:100B7000150D8823B9F01123A9F08C2F807F8034C4
:100B800021F080E28D0F883068F08091DE0282FFD4
:100B900009C082E00E94F00D0E94150D91E0D82E50
:100BA000D92601C0D12CCC2EC2948FE0C8228C2D26
:100BB00090E08C30910508F0D9C1FC01EA5AFF4F52
:100BC0000C94162B8C2F807FCF70882311F0C29548
:100BD000C07F112399F0CC2309F4B4C180E28D0FBA
:100BE000883010F0D11104C08C2F0E941F0D03C05B
:100BF0008C2F0E942F0D0E946E0DA4C18D2F0E947C
:100C00001A05CC2309F4B2C180E28D0F883040F17F
:100C1000DD2331F18C2F0E94350D25C08C2F807F74
:100C2000CF70803211F0C295C07FDD2321F0D1302A
:100C300009F44FC058C08091DE0282FD17C0112315
:100C400049F0CC2329F08C2F0E941F0D0E946E0DBD
:100C500080E079C180E00E941A05CC2309F486C1A6
:100C60008C2F0E94250D0E946E0D80C11123C1F0B2
:100C7000002391F0013031F40E943F0D8C2B0E9433
:100C8000490D74C1053041F40E94600D0E94E30CCF
:100C90008C2B0E94BC0D31C00E943F0D8C2B2EC0AE
:100CA0000023A1F0013079F40E941C0D8C2309F47B
:100CB0005DC10E94600D0E94E30C9C2F90958923DA
:100CC0000E94BC0D2BC0053009F450C10E94600D7C
:100CD00025C0112321F0063008F048C10EC00530B0
:100CE00008F044C11BC0112361F0002331F0F7016B
:100CF000858180FF27C18F7085838C2F0E949B0583
:100D000035C1002359F0D93309F02DC1FFEF27EE8B
:100D100083E0F15020408040E1F723C18C2F0E94F6
:100D2000A20524C18C2F86958695837019F0813099
:100D300061F01CC1112321F08D2F9C2F937002C0F4
:100D400080E090E00E94AE2119C1112321F08D2F87
:100D50009C2F937002C080E090E00E94C4210EC1DD
:100D60008D2F112319F00E94E31302C00E944B142F
:100D70000E94D01403C18C2F8370B1F51111FAC0F9
:100D80004D2F429546954770440F440F8D2F8F701D
:100D900090E09C01042E02C0220F331F0A94E2F758
:100DA000D4FF0AC08FE090E002C0880F991F4A95D7
:100DB000E2F78095909502C080E090E0C695C695D8
:100DC000C370822B932BC23049F058F4C13019F014
:100DD0000E94A808CFC00E949F08CCC00E94B10802
:100DE000C9C00E949C08C6C0112319F08C2F8170C5
:100DF00001C08695882309F4BDC04D2F42954695C4
:100E00004770440F440F8D2F8F7090E09C01042E8B
:100E100002C0220F331F0A94E2F7D4FF0AC08FE00A
:100E200090E002C0880F991F4A95E2F7809590954F
:100E300002C080E090E0C695C695C370822B932BCC
:100E4000C23049F058F4C13019F00E94120992C022
:100E50000E9409098FC00E941B098CC00E94BD0816
:100E600089C0CF70112339F08C2F0E94D7088D2FA5
:100E70000E949B057FC08D2F0E94A2058C2F0E948F
:100E8000E70878C0D23F21F128F4D03F41F0D13FAC
:100E9000C1F054C0D33F19F1D43F79F04FC01123B2
:100EA00041F0053008F062C08C2F8F710E94F90864
:100EB0005DC0063008F05AC0F7CF8091DE0282FD97
:100EC00018C0112339F08C2F8F710E94D7084EC0A3
:100ED0001123C9F38C2F8F710E94E70847C011239B
:100EE00029F08C2F8F710E94CB0840C00E94C60849
:100EF0003DC01123A9F00E94FB0C843039F40E94FC
:100F0000E60D8C2F8F710E94E7084CC0053008F069
:100F100049C0CF718C2F0E94D70863E08C2F07C087
:100F2000053040F00E94E60D64E08C2F8F710E9426
:100F3000C80D38C081E00E94F00D34C0112331F09B
:100F4000002309F28D2F0E947D0410C0002311F2AE
:100F5000D93349F49FEFE7EEF3E09150E040F040E1
:100F6000E1F700C000008D2F0E941A0588EF8C0D5C
:100F7000843020F40E9479210E94FB03DD20A1F03F
:100F80000E94FB0C80FD10C0F70112820E94F50C3C
:100F90000E94D708C7010E94F1070E94F50C0E9429
:100FA000E70802C0D12CE6CFCDB7DEB7E8E00C945D
:100FB000732B0F931F93CF93DF93EC01688179819B
:100FC0008A810E94D8098C010E9424090E948B0802
:100FD000B801CE010E94A905DF91CF911F910F9119
:100FE0000895CF93DF93EC01988189812B813C8117
:100FF000232B31F08F3F31F481E09F3F19F403C080
:1010000081E001C080E080FD1AC0CE010E94D903BA
:1010100081110FC00E94150D882389F08A818823D1
:1010200071F08091DE0282FF0AC082E00E94F00D22
:1010300006C0CE010E94D907CE010E944F03DF9166
:10104000CF91089580E090E00E94AE2180E090E092
:101050000E94C4210E943C0D0E946E0D0E94EF145C
:101060000E94D014089580910001909101010E9486
:101070008C220E94220808950E942C0D0E943308A1
:10108000089592959F70963079F010F4925001C0B7
:101090009A50923068F4803F69F018F4883E40F42A
:1010A00009C0843F29F406C0883E20F0813F11F03A
:1010B00080E0089581E00895FC0190818181238181
:1010C0003481232B31F08F3F31F481E09F3F19F4BD
:1010D00003C081E001C080E080FD07C08081918174
:1010E0000E94CD090E944108089580E00895A5E07E
:1010F000B0E0EDE7F8E00C945D2B2596E2E00C946F
:10110000792BA6E0B0E0E7E8F8E00C945D2B26969A
:10111000E2E00C94792B089508950E948C080895BC
:101120000E948D0808950E9490089093F901809381
:10113000F8010E94220808950E94930808952091C2
:10114000F8013091F901822B932B0E9493080895A6
:101150002091F8013091F901822393230E94930892
:1011600008952091F8013091F901822793270E9478
:10117000930808950E948C0808950E94BA089093DD
:10118000F7018093F6010E942208089580E090E024
:101190000E94BD08089521E030E0A90102C0440F7B
:1011A000551F8A95E2F7CA010E94BD08089521E003
:1011B00030E002C0220F331F8A95E2F78091F601DA
:1011C0009091F701822B932B0E94BD08089521E096
:1011D00030E002C0220F331F8A95E2F72095309548
:1011E0008091F6019091F701822393230E94BD081C
:1011F000089521E030E002C0220F331F8A95E2F704
:101200008091F6019091F701822793270E94BD08F3
:1012100008952091F6013091F701822B932B0E94C3
:10122000BD0808952091F6013091F70182239323A0
:101230000E94BD0808952091F6013091F7018227A0
:1012400093270E94BD0808950895962F9770A1E0F6
:1012500001C0AA0F9A95EAF793E0769567959A955B
:10126000E1F7660F771F660F771FFA01E60FF71F8A
:1012700040E050E0682F70E090819B01042E02C096
:10128000369527950A94E2F72170219529272A237C
:10129000292721934F5F5F4F4430510569F7089527
:1012A000FB01782F777023E0969587952A95E1F7D3
:1012B000880F991F880F991FE80FF91F40E050E031
:1012C00080E0219130E0072E02C0369527950A94E0
:1012D000E2F721703327042E01C0220F0A94EAF7A7
:1012E000822B4F5F5F4F4430510559F70895282FE7
:1012F000953070F48F3060F4862F622F70E02FE00D
:10130000929F600D711D11244EEC51E00E94250941
:101310000895953070F48F3060F4292F90E06EECD2
:1013200071E03FE0239F800D911D11240E94500920
:10133000089580E00895A0E0B0E0E1EAF9E00C94BF
:10134000562B7C010091F6011091F7018091F80174
:101350009091F901082B192BCFE0D0E0CC24C39455
:10136000D12CC6010C2E02C0880F991F0A94E2F7F7
:1013700080239123892B21F4219798F7B12C07C062
:10138000BC2EB7018C2F0E94ED100197A9F38B2D75
:10139000CDB7DEB7E9E00C94722BCF93DF93EC016D
:1013A0000E949B09BE010E94ED10DF91CF9108952C
:1013B0001F93CF93DF93EB019091CD01992321F0FF
:1013C000CB010E94CD0913C0882349F0CB010E94B4
:1013D0009B09182F682FCE010E94770904C0CB010A
:1013E0000E948909182FBE01812F0E94ED10DF9104
:1013F000CF911F9108951F93CF93DF93C091FA016E
:1014000016E08091FB01C81799F0D0E01C9FF00115
:101410001D9FF00D1124E450FE4F408151816281E7
:101420007381848195810E9481082196C770E9CFDC
:10143000DF91CF911F91089540912C0250912D0280
:1014400060912E0270912F028091300290913102B2
:101450000E94810808950F931F93CF93DF9380918B
:10146000310282958F7009F05AC080912E02882334
:1014700009F455C08091FA011091FB0160912C0292
:1014800070912D02C0912F02D091300291E06F3FF8
:1014900009F090E0292F06E0811709F440C0209759
:1014A00021F07F3F21F030E003C031E001C0322F56
:1014B00090E030FD31C0089FF001099FF00D11242C
:1014C000DF01A450BE4F11963C911197371324C0F1
:1014D0003C91361321C012963C91129731111CC0D9
:1014E00013964D915C9114974C1B5D0B483C510534
:1014F00098F4809131028F70806180933102EF5FA8
:10150000FD4F80818F70806180838CE292E00E9429
:10151000F1070E94FB0903C001968770BDCFDF91E0
:10152000CF911F910F910895A1E1B0E0EAE9FAE0AF
:101530000C94542B8C0185E0F801DE011D9601907E
:101540000D928A95E1F7F801E28090912C0260916A
:101550002D0220912F02309130022115310531F0FA
:101560006F3F31F481E09F3F19F403C081E001C077
:1015700080E0F82FF1709F2E80FD40C1F80140817E
:101580005181A380B4808CE2C82E82E0D82EF090E6
:101590002E02F501E21BF30BFF2009F4DAC0809163
:1015A0003102E83CF10508F096C0282F207F09F0B1
:1015B00053C0561313C0491311C0FE2CE1100EC0C6
:1015C0008F708061809331020E941C0AC6010E94C4
:1015D000F10780913102F80185834DC1A114B10456
:1015E00031F05F3F31F481E04F3F19F403C081E0F7
:1015F00001C080E080FD03C081E08E2502C080E054
:1016000090E0F82FF170FF2E80FF1CC08091FA014E
:101610002091FB0136E0821709F40BC190E0389F5E
:10162000F001399FF00D1124E450FE4F61815613F3
:1016300006C06081461303C06281E61203C00196B2
:101640008770E9CFFE2CEE2009F415C1809131029C
:1016500081608093310254C0561306C0491304C000
:10166000E11002C0F80199C0C8010E945C088823FB
:1016700061F1EE2051F120913102822F82958F701D
:1016800090E0029774F080912C0290912D0298873F
:101690008F831986BB86AA862C87CE0107960E9467
:1016A000F10786E0F801ACE2B2E001900D928A9574
:1016B000E1F70E942B0A0E941C0A0AC0561711F17A
:1016C000C8010E945C0881112CC0C8010E94F1076A
:1016D000FF24F394D0C0282F207F81F77A2DB98A78
:1016E000A88A6E2D89890E9477088CE292E00E9478
:1016F000F10786E0F60111928A95E9F70E941C0A2B
:10170000F12CB9C04913DCCFE110DACFF8018583A1
:10171000C8010E94F10786E0F60111928A95E9F767
:10172000AAC0EE2091F220913102822F82958F7013
:1017300090E002970CF4B5CF80912C0290912D028D
:101740009A8389831B82BD82AC822E83CE0101964F
:10175000A6CFE83CF10508F044C0FE2CEE2009F4C9
:10176000B4CF561330C049132EC02091310220FD52
:1017700021C0822F82958F70482F50E0411551056E
:10178000C9F0F80125834F30510541F08F5F982F44
:101790009295907F822F8F70892B8583C8010E943C
:1017A000F10786E0F801ACE2B2E001900D928A9573
:1017B000E1F73CC086E0F801ACE2B2E001900D92A6
:1017C0008A95E1F758C0C8010E945C08811169CF71
:1017D00080913102816080933102C8010E94F1073B
:1017E0004AC07A2DB98AA88A6E2D89890E94770805
:1017F00086E0F60111928A95E9F718C0EE2009F407
:1018000064CFC8010E945C08F82E882309F45DCFDC
:1018100086E0F801ACE2B2E001900D928A95E1F722
:101820008CE292E00E9477040E942B0A0E941C0A1C
:1018300022C04D875E878D859E850E94CD09292F08
:1018400022952F70223028F49F7039F0811105C045
:101850000BC0243028F49F7049F4805E883020F05B
:10186000C8010E94F1079F2CF92C05C0F801958151
:10187000907F99F7F9CF8F2D6196EBE00C94702B48
:10188000ACE0B0E0E6E4FCE00C945C2B4F835887BE
:1018900069877A878B879C87CE0107960E94940A76
:1018A0008823D1F09F8188852A853B85232B31F0C1
:1018B0008F3F31F481E09F3F19F403C081E001C004
:1018C00080E080FD47C04F81588569857A858B858A
:1018D0009C850E9481083EC086E0FE013796DE01AD
:1018E000119601900D928A95E1F7FF81E8856A854E
:1018F0007B856115710531F0EF3F31F481E0FF3FE9
:1019000019F403C081E001C080E080FD23C0209174
:10191000FB0130E0C9010196877099274091FA01D7
:1019200050E084179507F1F1F983EA837D836C8396
:1019300096E0929FD001939FB00D1124A450BE4F0A
:10194000FE01319601900D929A95E1F78093FB018B
:101950000E94FB0916E08091FA019091FB01891722
:1019600071F1189FC001112484509E4F0E94940A67
:10197000882329F1E091FA011E9FF0011124E4501F
:10198000FE4F4081518162817381848195810E94E3
:1019900081088091FA0190E00196877099278093E1
:1019A000FA01D9CF0E943C081092FB011092FA0173
:1019B000ECE2F2E086E0DF011D928A95E9F72C96D1
:1019C000E3E00C94782B8091570208950E945623EF
:1019D0002091550230915602821B930B9C0181E0AD
:1019E0002838334108F480E00895809154028595A9
:1019F00085958595089580915402877008950E9479
:101A000056232091520230915302821B930B883847
:101A1000934140F08091540282FB882780F991E045
:101A2000892701C080E081700895909154029770D9
:101A300081E009F480E0089580917A020895909100
:101A40007A02892B80937A020895809590917A0288
:101A5000892380937A02089510927A0208959091D2
:101A60007902892B8093790208958095909179026B
:101A700089238093790208951092790208958091C4
:101A80005802089508950E94420D08950E94430D42
:101A90000895CF939091DE0292FF10C0909158026A
:101AA000981761F0C82F0E94562390935602809396
:101AB0005502C09358028C2F0E94460DCF91089575
:101AC00080915802882349F01092580210925602D1
:101AD0001092550280E00E94460D0895CF93DF9347
:101AE000E0910001F091010180917A028083E09100
:101AF0000001F0910101908180917902892B80830E
:101B0000809158028823B9F00E94E60C81110E944E
:101B1000600DE0910001F0910101908180915802E7
:101B2000892B808380910001909101010E94DA212C
:101B300081110E94600DC0910001D091010140E22D
:101B400050E062E372E0CE010E949D2B892B59F098
:101B500080E2FE01A2E3B2E001900D928A95E1F7E6
:101B6000CE010E948621DF91CF9108950E94420DFF
:101B700008950E94B60D089590915702981721F08C
:101B8000809357020E94B90D08950E94420D089556
:101B90009091DE0292FF17C098E0899F9001112476
:101BA000262B209354020E94D7080E94562390931C
:101BB00053028093520280915402859585958595B4
:101BC0000E94C50D08950E94D708089510925402EE
:101BD000109253021092520280E00E94C50D0895A7
:101BE000209154028095822380935402982F9770FD
:101BF00099F430E0482F082E000C550B24173507B8
:101C000059F09091DE0292FF07C0859585958595E4
:101C10000E94E7080E94E60D08959091DE0292FB73
:101C2000222720F9281769F080FB92F99093DE02B1
:101C30008091DD029091DE020E94610E82E00E949E
:101C4000F00D08958091DE0282FB882780F991E0F3
:101C500089270E940D0E089581E00E940D0E0895BF
:101C600080E00E940D0E08956FEF7FEF80E090E01E
:101C70000E94E52B089580E090E00E94C12B21E0B6
:101C8000883E9E4F09F020E0822F089582E090E088
:101C90000E94B32B089583E090E00E94B32B089537
:101CA000CF9384E090E00E94B32BC82F82E290E0B3
:101CB0000E94B32B2C2F30E0A901582BCA01CF91E1
:101CC0000895CF93C92F682F84E090E00E94C72B1E
:101CD0006C2F82E290E00E94C72BCF910895AB0158
:101CE000BC018FE090E00E94D92B0895AB01BC01AC
:101CF00083E190E00E94D92B089560E070E0CB0171
:101D00000E94760E089560E070E0CB010E946F0E95
:101D10000E947D0E089568EE7EEF80E090E00E94C4
:101D2000E52B60E082E090E00E94C72B60E083E05A
:101D300090E00E94C72B1092F9011092F80160E028
:101D400084E090E00E94C72B64E082E290E00E9471
:101D5000C72B60E085E090E00E94C72B60E086E042
:101D600090E00E94C72B6FEF87E090E00E94C72BA6
:101D700040E050E0BA0188E090E00E94D92B60E09A
:101D80008DE090E00E94C72B40E050E0BA0188E16E
:101D900090E00E94D92B60E087E190E00E94C72B81
:101DA00040E050E0BA018CE190E00E94D92B60E065
:101DB00070E080E290E00E94E52B40E050E0BA0144
:101DC00088E190E00E94D92B0E94830E08950E9422
:101DD0008B0E0895682F8EE090E00E94C72B089527
:101DE0000E94622360938B0270938C0280938D0219
:101DF00090938E0260938702709388028093890289
:101E000090938A02089581E008950E94030F089537
:101E100008950E94080F08950E94080F08950E94D7
:101E20000C0F08950E94080F08950E94120F089544
:101E30000E94080F089581ED91E10E946F210E9498
:101E4000180F0E94150F08950E94090F0E94080F95
:101E500008950E94ED110E94FA030E94C91E089580
:101E60000E944D230E94C3120E94290F0E94071D49
:101E70000E94461B0E940F0F0895AAE0B0E0E3E421
:101E8000FFE00C94522B0E94D9122DE7E22E22E0A3
:101E9000F22E5701D12CF501019111915F018D2D89
:101EA0000E940B1280279127D394F5E0DF1619F0DA
:101EB000892B89F322C0892B01F50E9456238C01BE
:101EC00080917B0290917C020817190709F45BC08E
:101ED0008FEF89838A831B820E9456238160782F2B
:101EE0009D838C8349815A816B818D810E94260458
:101EF00010937C0200937B0246C080918F0281FD8B
:101F00000E9414120E94050F782E10E0812F0E946B
:101F10000B124C01F701A080B180A826B926A114AC
:101F2000B10449F100E0CC24C394D12CC5018C212B
:101F30009D21892BC1F07720B1F00E831F8321E012
:101F4000C4018C219D21892B09F420E028870E945F
:101F500056238160782F9A8789874E815F816885B3
:101F60008A850E9426040F5FCC0CDD1C0F30F1F631
:101F7000F701918280821F5FF2E0EF0EF11C1530B5
:101F800029F60E94F00E0E94791B0E94C81E0E9432
:101F900011150E940D042A96EDE00C946E2BCF9340
:101FA000DF930E94F210EC01811521E5920708F001
:101FB00046C0811530E5930708F093C0883E91052F
:101FC00028F5803E910508F0EBC0883A910570F441
:101FD000853A910508F07BC08130910509F474C001
:101FE00008F4DBC0049708F0DBC0D7C08F3B910535
:101FF00008F0D3C0C85AD0E0CC0FDD1FC55ADE4F61
:102000000990D881C02DCE019464CBC0C11580E267
:10201000D80760F4C11591E0D90708F0C1C0CD3EE2
:10202000D10508F4BAC0CE019065BBC0C11520E44B
:10203000D20708F4B2C0DF70CE01906AB2C0811539
:1020400035E59307A8F4C11584E5D80708F088C0E2
:10205000C11593E5D90708F06DC0C11522E5D20777
:1020600008F052C0DC2FCC27CE01816F906A99C056
:10207000811539E59307A0F4C11588E5D80708F064
:1020800075C0C11596E5D90708F087C08C2F0E944E
:102090008E118F7190E0D82FCC27CE01906281C035
:1020A00081152AE5920708F467C090568115904281
:1020B00008F073C08D2F8F710E948E11DD27D062C2
:1020C0008F719E01382B67C081E090E06AC0C55ACD
:1020D000D0E0C757DE4F8881C82FD0E0CE01906492
:1020E00060C08F708695869590E2899F900111243B
:1020F000C37081E090E002C0880F991FCA95E2F793
:102100009D68822B932B4DC0CE018370992721E0CF
:1021100030E002C0220F331F8A95E2F79C2F96957C
:10212000969580E2989FE0011124C22BD32BCE011B
:102130009C6837C0CE018370992721E030E002C04F
:10214000220F331F8A95E2F79C2F9695969580E291
:10215000989FE0011124C22BD32BCE019A6821C095
:10216000DC2FCC27CE01846F906A1BC0DC2FCC27DC
:10217000CE01806F906A15C08F700E948E1194E01E
:10218000D695C7959A95E1F7CF70D0E0DC2FCC2794
:10219000D0699E01282BC90104C080E090E001C0F5
:1021A000CE01DF91CF9108957530A0F46F3090F497
:1021B0009BE4899FF00111248FE0789FE00DF11DD1
:1021C0001124E60FF11DEE0FFF1FE852FF4F85911E
:1021D0009491089580E090E008950E94D4100E94A8
:1021E000CF0F08958238910569F1B0F481339105DC
:1021F00009F475C048F48932910509F467C08A3240
:10220000910509F471C008958533910509F459C009
:1022100089339105B9F00895833E910589F138F429
:10222000803E9105D1F0823E910529F10895863EC8
:102230009105C9F1873E9105D9F1843E910509F0D8
:102240006CC027C02091DD0220FD57C021FD55C084
:102250002091DE0223FD5BC008958091DD0280FDA8
:1022600048C08091DE0280FF48C08091DD0284FD7D
:1022700046C083EE51C08091DD0282FF3CC0F5CFA5
:102280008091DD0282FD37C08091DE0280FD35C085
:10229000ECCF8091DE0281FF36C08091DD0284FDAB
:1022A0002EC087EE39C08091DD0283FF2AC0F5CFB2
:1022B0008091DD0283FD25C08091DE0281FD23C077
:1022C000ECCF8091DD0285FD22C01FC08091DD0230
:1022D00085FD1BC08091DE0283FF19C00AC080917A
:1022E000DD0286FD16C017C08091DD0286FD13C099
:1022F00010C089E311C082EE0FC080EE0DC080E0F7
:102300000BC086EE09C084EE07C085E305C089E2F4
:1023100003C08AE201C081E390E008959091DD025C
:1023200092FF0DC0282F2871283019F4877F846010
:1023300006C0282F2471243011F48B7F886093FF0E
:102340000DC0282F2871283119F4877E846106C0BA
:10235000282F2471243111F48B7E88612091DE02B4
:1023600020FF0DC0382F3871383019F4877F816015
:1023700006C0382F3171313011F48E7F886021FF13
:102380000DC0282F2871283119F4877E816106C07D
:10239000282F2171213111F48E7E886194FD877E72
:1023A000089580E008950E94340E08950E94D91285
:1023B0008FE39CE90197F1F700C000000E94D91259
:1023C00080E00E940B1280FF04C00E94D3110E9483
:1023D000A32308950E94D61108950E943B0E8111F7
:1023E00002C00E94E70E0E94460E80938F020E9458
:1023F000500E9093DE028093DD020E94EA110E944B
:102400004B0E90E00E949C088091F6019091F7019C
:102410000E94BA080895E82FF0E0EE0FFF1FE75181
:10242000FD4F808191810895089580EA8A95F1F7A2
:10243000089500C008950E941512089508950E94FD
:102440001E1208950E941F120895F894E82FE29535
:10245000EF70F0E031A1282F2F7081E090E001C0F3
:10246000880F2A95EAF7982F9095932391A392A12C
:10247000892B82A3789408950F931F93CF93DF93B2
:10248000CBE9D1E089918F3F11F00E94251281E0C4
:10249000C03AD807B9F7CCE8D1E00BE911E089914F
:1024A0008F3F11F00E9425120C171D07C1F7DF9115
:1024B000CF911F910F910895A0E0B0E0E2E6F2E124
:1024C0000C94562B8C01C62FD0E0CE0185569E4F22
:1024D0006C01FC0190819F3F09F450C0B62EF89426
:1024E000E92FE295EF70F0E081A19F7021E030E0EC
:1024F00001C0220F9A95EAF7822B81A382A1209531
:10250000282322A378940E941912ECE8F1E04BE909
:1025100051E021E030E0E12CF12C61916F3F89F036
:10252000A62FA295AF70B0E090968C9190E06F705E
:1025300002C0959587956A95E2F780FD02C0C901B2
:1025400002C080E090E0E82AF92A220F331F4E17DC
:102550005F0719F7F60180818F3F11F00E94251265
:1025600061E0E114F10409F460E08B2D0E941B127C
:10257000CC0FDD1FC00FD11FF982E882CDB7DEB7C7
:10258000E9E00C94722B0E943C128AE0E9EEF2E042
:10259000DF01982F1D929A95E9F7EFEDF2E0DF0148
:1025A0001D928A95E9F785E00E9414130E945B034F
:1025B0000895AAE0B0E0EFEDF2E10C945A2B8E0101
:1025C0000F5F1F4F8AE0F80111928A95E9F7F12C0D
:1025D0006F2DC8010E945C12F394F5E0FF12F8CF52
:1025E0004AE050E0B8018FED92E00E949D2B21E07F
:1025F000009709F420E0892B41F08AE0F801AFED63
:10260000B2E001900D928A95E1F745E069EE72E043
:102610008FED92E00E941513182F0E945E03812F08
:102620002A96E5E00C94762B0895EF92FF920F9393
:102630001F93CF93DF937C018B01C42F222349F09A
:1026400081E0809392020E9456239093910280939E
:10265000900280919202811102C080E01CC08091A2
:102660009002909191020E946E230597B0F3D0E002
:10267000CC0FDD1FAE01B701C8010E949D2B892B35
:1026800039F0AE01B701C8010E94AA2B81E001C058
:1026900080E010929202CDB7DEB7E6E00C94752B85
:1026A0000E9481250E94300F0E948E2508950E946D
:1026B00093250E943D0F0E94AD2508950E94ED22B2
:1026C0000E9467250E941B0F0E9450130E945713FF
:1026D0000E94240FFBCF8091990280FF06C0609179
:1026E000070170E0660F771F26C081FF04C060916C
:1026F000070184E005C082FF07C06091070188E000
:10270000689FB001112417C0909198029923D1F0CD
:1027100060910601961788F72091070188E0289FAD
:1027200090011124929FA001939F500D112470E0FD
:10273000CA010E94E02A6038710540F461157105F4
:1027400019F406C068E070E0862F08958FE70895B9
:1027500081E008958091990280FF08C06091030193
:1027600070E0759567957595679521C081FF06C0E6
:102770006091030170E07595679519C082FF04C0F0
:102780006091030170E010C090919702992399F035
:10279000609102019617A0F780910301899FC00103
:1027A000112470E00E94E02A6038710540F4611540
:1027B000710519F406C061E070E0862F08958FE777
:1027C000089581E008958D3E21F40E946B13819558
:1027D00004C08E3E29F40E946B1380939D020895DD
:1027E0008F3E21F40E946B13819504C0803F29F431
:1027F0000E946B1380939C020895893F19F40E94F4
:10280000AA1305C08A3F31F40E94AA1381958093D0
:102810009E0208958B3F21F40E94AA13819504C063
:102820008C3F29F40E94AA1380939F020895813F50
:1028300021F480919B02816017C0823F21F4809136
:102840009B02826011C0833F21F480919B028460CF
:102850000BC0843F21F480919B02886005C0853FB6
:1028600031F480919B02806180939B0208958D3F9B
:1028700021F48091990281600BC08E3F21F48091F8
:102880009902826005C08F3F29F48091990284608B
:102890008093990208958D3E39F480919D0287FFBF
:1028A0006AC010929D0267C08E3E29F480919D02FD
:1028B0001816BCF360C090919C028F3E29F497FFDC
:1028C0005AC010929C0257C0803F19F41916CCF3DD
:1028D00052C090919E02893F31F419160CF04BC002
:1028E00010929E0248C08A3F19F497FF44C0F8CF67
:1028F0008B3F39F480919F0287FF3DC010929F0269
:102900003AC08C3F29F480919F021816BCF333C063
:10291000813F21F480919B028E7F17C0823F21F47A
:1029200080919B028D7F11C0833F21F480919B0297
:102930008B7F0BC0843F21F480919B02877F05C071
:10294000853F31F480919B028F7E80939B0213C060
:102950008D3F21F4809199028E7F0BC08E3F21F430
:10296000809199028D7F05C08F3F29F48091990253
:102970008B7F8093990280919C02811106C0809187
:102980009D02811102C01092980280919E028111D5
:1029900006C080919F02811102C010929702089593
:1029A0000E94562320919C02211104C020919D0277
:1029B000222321F0909396028093950220919E020B
:1029C000211104C020919F02222321F090939402B0
:1029D000809393028AE992E00E94A0210895EAE997
:1029E000F2E086E0DF011D928A95E9F710929802E5
:1029F00010929702109299020895FC018281811130
:102A00000DC0838181110AC08481811107C091E0CA
:102A10008581811101C090E0892F01C081E0817022
:102A20000895A6E0B0E0E7E1F5E10C945C2B86E0C8
:102A3000EAE9F2E0DE01119601900D928A95E1F744
:102A400010929C0210929D0210929E0210929F0280
:102A50008B81811104C08C81882309F45FC080912F
:102A60009502909196020E946E23AC01909198027B
:102A7000992339F02091080130E02417350758F0E8
:102A80004DC0209109018AE0289F9001112424174C
:102A9000350718F043C09F3F19F09F5F909398024D
:102AA0001B81112361F00E946B13111614F09FEF2C
:102AB00001C091E0989F902D112490939C021C815D
:102AC000112361F00E946B13111614F09FEF01C0E7
:102AD00091E0989F902D112490939D0230919C023B
:102AE0003323E1F020919D022223C1F045EB340312
:102AF000C0011124992319F090939C0203C081E036
:102B000080939C0235EB2303C0011124992319F013
:102B100090939D0203C081E080939D028D8181117D
:102B200004C08E81882309F45FC080919302909144
:102B300094020E946E23AC0190919702992339F080
:102B40002091040130E02417350758F04DC0209142
:102B500005018AE0289F900111242417350718F0F9
:102B600043C09F3F19F09F5F909397021D811123EF
:102B700061F00E94AA13111614F09FEF01C091E0BA
:102B8000989F902D112490939E021E81112361F035
:102B90000E94AA13111614F09FEF01C091E0989FB4
:102BA000902D112490939F0230919E023323E1F0E7
:102BB00020919F022223C1F045EB3403C001112470
:102BC000992319F090939E0203C081E080939E02A6
:102BD00035EB2303C0011124992319F090939F0230
:102BE00003C081E080939F02BE016F5F7F4F8AE93F
:102BF00092E00E949E22811105C08AE992E00E9423
:102C0000FD1481110E94D01486E0FE013196AAE9DC
:102C1000B2E001900D928A95E1F72696E3E00C94DC
:102C2000782BEF92FF920F931F93CF93DF938B013B
:102C3000682F11110AC0442329F0E82FF0E0E55E67
:102C4000FC4F6491762F862F75C0212F30E0E82F3E
:102C5000F0E0442321F0E55EFC4FE491F0E046E033
:102C6000049FC0011124CFEFD0E0BE010E94CC2A06
:102C70004BEA4603C001479F900D1124800F911D20
:102C8000800F911D982F990F890FAE01421B530B96
:102C90004E9FD0014F9FB00D5E9FB00D11249B2F12
:102CA000189FA0011124452F55278E01041B150BD9
:102CB0000E9FA0010F9F500D1E9F500D11247E01ED
:102CC000E81AF108E29E8001E39E100DF29E100DBD
:102CD0001124212F3327C21BD30BCE9F9001CF9FEE
:102CE000300DDE9F300D112462307105A9F048F4DB
:102CF0006115710569F061307105C9F48B2F752F6D
:102D00000DC06430710581F058F06630710579F4BA
:102D10007E2F8B2F932F0DC0832F7B2F9E2F09C0CB
:102D20008E2F7B2F952F05C08E2F732F02C07E2FE5
:102D3000852F692FCDB7DEB7E6E00C94752B41E007
:102D40000E941116089508950E949F160895CF932A
:102D5000DF93762FE901682F842F0E94A4167983D0
:102D600068838A83DF91CF9108958091F302282FA1
:102D7000269530E02115310519F48170826005C077
:102D80002532310524F0817088648093F302089520
:102D900088E090E00E94BB2B0895CF92DF92EF92E3
:102DA000FF926B017C010E94B516B701A60188E075
:102DB00090E00E94D92BFF90EF90DF90CF90089584
:102DC000E3EFF2E083E0808311828FEF82838383DD
:102DD000148260817181828193810E94CD16089551
:102DE0008091F30280FF02C08695089580E00895E7
:102DF0009091F702933018F49F5F9093F702882325
:102E000051F06091F3027091F4028091F50290917B
:102E1000F6020E94CD16089581E00E94F8160895EA
:102E20009091F702992319F091509093F70288231B
:102E300051F06091F3027091F4028091F50290914B
:102E4000F6020E94CD16089581E00E9410170895A1
:102E500070E00E94DA1E089560910E018091F302E5
:102E600080FF0BC080910D0123E0829FC0011124DF
:102E700088509D4F0E942817089580910F019091CE
:102E80001001891778F7E82FF0E09F01220F331F18
:102E9000E20FF31FE850FD4F1182108212828F5F04
:102EA000F0CF9091F30290FF16C090910F01209106
:102EB0001001921770F4E92FF0E0DF01AA0FBB1F99
:102EC000EA0FFB1FE850FD4F8183608342839F5FC1
:102ED000F0CF0E942C170895A3E0B0E0E2E7F7E1FD
:102EE0000C945D2B9091F30290FF0AC09E012F5F1E
:102EF0003F4F0E94A7164B8169818A810E9451171A
:102F00002396E2E00C94792BCF93DF93EC01EC81D4
:102F1000F0E0EA5EFD4F4491E3EFF2E062818181EF
:102F20000E946C178C818F5F8C83DF91CF91089505
:102F3000CF93DF93EC01E3EFF2E0438162818C8178
:102F40000E946C178C818F5F8C83DF91CF910895E5
:102F5000A3E0B0E0EEEAF7E10C945B2B8C018091EA
:102F6000A00281110AC09E012F5F3F4F4FEF6FEF0C
:102F70000E94A7168A818093A002F8018481813083
:102F800051F028F0823061F44091A0020AC0809193
:102F9000A00240E007C06091A00240E080E003C0D2
:102FA00040E080E060E00E945117F801848190E0E9
:102FB000019663E070E00E94E02A84832396E4E0B7
:102FC0000C94772BA3E0B0E0E8EEF7E10C94562BDD
:102FD000082FE62EF42ED22E9091F30290FF67C0B8
:102FE000E92FE695AE2FB0E0A056BE4F8C918093AE
:102FF000AA029E7F923061F49E012F5F3F4F802F87
:103000000E94A7164B8169818A810E9451173DC099
:10301000823019F4F090F60238C0863019F400912D
:10302000F40233C08930D9F3893179F5E9518E2F13
:103030008170C82EE695F0E0EA5EFC4F1491B12C49
:1030400060911101B616F8F4B19EC001112470E030
:103050000E94CC2A802FC11002C0860F01C0861B9F
:1030600090910F012B2D30E0290F311DA901440F44
:10307000551F240F351F28503D4F4F2D6E2D0E9498
:10308000A716B394DDCF0E942C170093F402E092B0
:10309000F502F092F602DD2051F06091F30270919A
:1030A000F4028091F5029091F6020E94CD162396CB
:1030B000E9E00C94722BE3EFF2E09181282F438139
:1030C000628188E0890F0E94E217089581E00E94E2
:1030D0005B180895E3EFF2E09181282F438162812C
:1030E00088EF890F0E94E217089581E00E946A1814
:1030F0000895E3EFF2E0628128E0620F08F46FEFD9
:10310000282F438181810E94E217089581E00E9467
:1031100079180895E3EFF2E0628128E0621B08F479
:1031200060E0282F438181810E94E217089581E0A9
:103130000E948A180895E3EFF2E0438128E0420FED
:1031400008F44FEF282F628181810E94E2170895D1
:1031500081E00E949B180895E3EFF2E0438128E0AC
:10316000421B08F440E0282F628181810E94E2170F
:10317000089581E00E94AC18089520E00E94E217B3
:103180000895FF920F931F93CF93DF93EC01F12CDF
:103190000FEF10E060911101F616F0F480910F012D
:1031A0002F2D30E0280F311DC901880F991F280FDE
:1031B000391F28503D4F70E0C8010E94E02A962F29
:1031C0008C814091F6026091F502F99E800D1124E8
:1031D0000E94A716F394DECF0E942C179A818C814F
:1031E00090FF02C08F5F01C081508C83CDB7DEB7E6
:1031F000E5E00C94762BA0E0B0E0E1E0F9E10C947E
:10320000552BFC01828180FF02C00FEF01C001E05D
:1032100010E04CE0A42E80911101181708F043C073
:1032200080910F01C12ED12CE601C80FD11DCE0116
:10323000880F991FC80FD91FC850DD4F19821882F7
:103240001A8234E0E32EF12CB12C8091A2028B0D76
:103250008D302CF06A2D0E94BE2A892F05C087FF71
:1032600003C090911101890F082E000C990BC8160C
:10327000D90691F48091F6028E9DA0018F9D500D8C
:10328000112455954795559547959E016091F502F6
:103290008091F4020E94A716B00EF1E0EF1AF10837
:1032A000A1F61F5FB8CF0E942C178091A2020130B7
:1032B00031F4811102C080911101815007C090E06A
:1032C00001966091110170E00E94E02A8093A202B1
:1032D000CDB7DEB7EAE00C94712BCF9380910F014C
:1032E00090911001891770F4E82FF0E09F01220FF0
:1032F000331FE20FF31FE850FD4F1182108212823C
:103300008F5FF0CFC0E060911101C617C0F5EC2FC0
:10331000F0E070E0CF010E94E02A20910F01820FBF
:103320002091A102022E000C330B90E0E217F3076C
:10333000CCF020910C01022E000C330B2E173F070E
:103340008CF09C01220F331F820F931F9C01285089
:103350003D4F4091F6026091F5028091F4020E9487
:10336000A7160BC0FC01EE0FFF1F8E0F9F1FFC0165
:10337000E850FD4F118210821282CF5FC4CF0E94AD
:103380002C1720910B018091A102820F8093A10242
:1033900090910C01920F90930C0119165CF4082E79
:1033A000000C990B4091110150E0415051098417D4
:1033B00095071CF0219520930B01CF910895A0E073
:1033C000B0E0E5EEF9E10C94532B8C01FC01448153
:1033D000C42FD0E09E01DE010E94242B9B01AC0192
:1033E0000E943A2B6B017C01E0E2F0E0EC1BFD0B4C
:1033F000A5E5B0E09B01AC010E943A2B4B015C01BA
:103400009F01DF010E941C2B9B01AC010E94452BF8
:103410009B01AC012C0D3D1D4E1D5F1DC501B4016E
:103420000E94F42AC22FD22F2A3228F4F3E02F9FD1
:10343000900111240DC025E530E02C1B3109C90194
:10344000880F991F280F391F37FF02C02F5F3F4F8A
:1034500035952795C22FC095F12C85E5E82EED1AFC
:1034600080911101F816C8F4F1FC02C08E2D01C044
:103470008D2F90910F012F2D30E0290F311DA901C3
:10348000440F551F240F351F28503D4F4C2F60917E
:10349000F5020E94A716F394E3CF0E942C17F801BF
:1034A0008481811102C091E003C0803219F49FEF42
:1034B00090930A0190910A01890FF8018483CDB796
:1034C000DEB7ECE00C946F2B0F931F93CF93DF9339
:1034D000EC0100E010E080911101282F30E002178C
:1034E000130724F590910F019801290F311DA901AF
:1034F000440F551F240F351F28503D4F869590E0EF
:103500004C81081719071CF4442331F002C0411103
:1035100003C04091F60201C040E06091F502809145
:10352000F4020E94A7160F5F1F4FD5CF0E942C17E1
:103530008C8190E00196817099278C83DF91CF91E7
:103540001F910F910895E3EFF2E080818E7F8083D9
:1035500060817181828193810E94CD161092AB02AD
:103560002FEF80E792E0215080409040E1F700C0CB
:1035700000000E942C1708956091F302669570E098
:103580004BE050E082E191E00E94902B892B19F4EE
:1035900081E08093AB020E9456239093A402809313
:1035A000A30208959091F30290FF35C091708111AC
:1035B00002C0926006C0853210F0986402C0880F85
:1035C000982B9093F302662351F06091F30270916F
:1035D000F4028091F5029091F6020E94CD1660915E
:1035E000F302669570E04BE050E082E191E00E94CA
:1035F000902B892B19F01092AB0202C00E94BC1ACA
:1036000081E08093A6024091F6026091F5028091DC
:10361000F4020E94BD180895682F9091F3029695C8
:1036200081E0890F853208F081E00E94D21A089566
:1036300081E00E940C1B0895682F9091F3029695EB
:103640008FEF890F09F484E20E94D21A089581E075
:103650000E941C1B089561E00E94D21A0895E3EFB6
:10366000F2E080818160808386950E942B1B089503
:103670008091F30280FF03C00E94A31A08950E9464
:103680002F1B089560E00E94D21A08958091A9022C
:1036900081112EC00E943B0E811104C00E94E70ED2
:1036A0000E94E0160E94C8166093F3027093F40221
:1036B0008093F5029093F6026E7F61F40E94E0160B
:1036C0000E94C8166093F3027093F4028093F5028F
:1036D0009093F6020E94B5161092AB028091F3020D
:1036E00080FF03C086950E94421B81E08093A9025F
:1036F00008950F931F93CF93DF938091AB0288239C
:1037000009F481C08091AA02E091F302E695E81BDA
:10371000E093A502823049F4F0E0EE5EFD4FE491C3
:10372000CE2FD0E004E817E149C0863049F4F0E03C
:10373000E15FFD4FE491CE2FD0E008E917E13EC0F4
:10374000893051F4E695F0E0E45FFD4FE491CE2F2F
:10375000D0E001EC18E132C08F3051F4E695F0E092
:10376000E75FFD4FE491CE2FD0E00BEF18E126C0CC
:10377000853149F4F0E0EA5FFD4FE491CE2FD0E0CF
:103780000DE619E11BC0883181F0833239F4E4E0A1
:10379000F2E0C591D49108EA17E110C0843251F4E7
:1037A000C4EFD1E004E61AE109C0C8E2D0E00FEDB1
:1037B00019E104C0C0EDD7E003EA16E18091A6024A
:1037C000882361F01092A6020E9456239093A402CF
:1037D0008093A3021092A8021092A7020E9456237F
:1037E000E091A302F091A4028E1B9F0B8F3F9F4795
:1037F00050F4EC0FFD1FF093A402E093A30283EAC0
:1038000092E0F8010995DF91CF911F910F910895F2
:10381000882311F0FA0101C0FB0109950895CF93A7
:10382000DF93C82FD62F0E94F0168C1738F00E9415
:10383000F0168D1718F40E94181B03C08C2F0E94DD
:103840002B1BDF91CF9108951F93CF93DF93FB0143
:1038500012811111C3C0EC010E941C0D8272CD3C7B
:10386000FCE5DF0709F49AC0A8F5C73CECE5DE07E4
:1038700009F476C0A8F4C43C9CE5D90709F45FC0FC
:1038800028F4C33CDC4509F457C054C0C53C9CE552
:10389000D90709F459C0C63CDC4509F45CC04AC0EC
:1038A000CA3CFCE5DF0709F46AC050F4C83CECE50B
:1038B000DE0709F45AC0C93CDC4509F45BC03AC0D4
:1038C000CB3C9CE5D90709F45FC0CC3CDC4509F44E
:1038D00060C030C0C23DFCE5DF0709F46FC088F46A
:1038E000CF3C9CE5D90709F460C008F45CC0C03D3A
:1038F000FCE5DF0709F45CC0C13DDC4509F45BC0B1
:1039000019C0C53D9CE5D90709F460C050F4C33D1A
:10391000FCE5DF0709F455C0C43DDC4509F454C09B
:1039200009C0C63D9CE5D90709F455C0CE35DD4533
:1039300009F454C011E052C00E94381B4FC047E246
:103940005BE168E17BE104C048E15BE167E27BE1C8
:103950000E94081C43C045E758E166E678E1F8CFCD
:1039600046E658E165E778E1F3CF47E958E166E8D4
:1039700078E1EECF46E858E167E978E1E9CF49EB35
:1039800058E168EA78E1E4CF48EA58E169EB78E188
:10399000DFCF44E257E16CE077E1DACF4CE057E16A
:1039A00064E277E1D5CF81E017C065E082E010C026
:1039B00068E086E00DC06EE089E00AC064E18FE057
:1039C00007C067E185E104C088E106C062E289E1E1
:1039D0000E940F1C03C083E20E942B1B812FDF91EA
:1039E000CF911F91089586E090E00E94B32B089537
:1039F000682F86E090E00E94C72B089580911C03F9
:103A00008470896280931C030E94F81C08950E94B0
:103A10003B0E811104C00E94E70E0E94FE1C0E9412
:103A2000F31C80931C03282F26952695269530E0BD
:103A30002630310524F08770886280931C038091C2
:103A40001C0380FF04C086958695869501C080E0A2
:103A50000E94211E089520911C03822F8695869531
:103A60008695482F50E04530510554F48F5F982FCC
:103A7000990F990F990F822F8770892B80931C03C0
:103A800080911C03816080931C030E94F81C80912C
:103A90001C038695869586950E94211E0895809127
:103AA0001C03982F969596959695A1F0915E990F87
:103AB000990F990F8770892B80931C03887F91E061
:103AC00009F490E080911C0390FB80F980931C0323
:103AD0000E94F81C80911C038695869586950E940D
:103AE000211E089580911C0380FD13C08160809386
:103AF0001C03813019F489E080931C0380911C031E
:103B00000E94F81C80911C038695869586950E94DC
:103B1000211E089580911C0380FF08C08E7F809332
:103B20001C030E94F81C80E00E94211E08958091D1
:103B30001C0380FF03C00E948A1D08950E94721D0D
:103B4000089590911C03892F8695869586958F5FA1
:103B50008F719770863038F4880F880F880F892B03
:103B600080931C0302C090931C0380911C03887FE8
:103B700091E009F490E080911C0390FB80F9809320
:103B80001C030E94F81C80911C03869586958695DF
:103B90000E94211E0895863008F085E090911C0354
:103BA0009770282F220F220F220F922B90931C0325
:103BB000987F21E009F420E090911C0320FB90F90C
:103BC00090931C030E94211E08950E94CB1D80919A
:103BD0001C030E94F81C08959C01FB01828188232C
:103BE00049F12E3BFCE53F07C9F040F42C3BECE5E6
:103BF0003E0769F02D3B3C4561F00895203C9CE573
:103C0000390791F070F0213C3C4589F0089585E03A
:103C100001C080E00E94E51D80E008950E944F1DD4
:103C2000FBCF0E942B1DF8CF0E94971DF5CF0E945D
:103C3000A11DF2CF81E00895279A2F9808952F981B
:103C40000895A0E0B0E0E7E2FEE10C94532BC82F0A
:103C5000863050F4811109C080918000877F809365
:103C600080000E941F1E06C0C5E080918000886011
:103C700080938000A0918600B09187002C2F30E0C7
:103C80000E94242B25E030E040E050E00E94F42A1E
:103C90000027122F232F342F012F122F232F3327EA
:103CA00080918600909187006CE070E00E94CC2AA1
:103CB0006017710730F0C80169E070E00E94CC2AFB
:103CC0005EC08091860090918700E0908600F09021
:103CD0008700E0918600F0918700C6E0D0E0BE0149
:103CE0000E94CC2A060F171F211D311D48015901C2
:103CF00085E0880C991CAA1CBB1C8A95D1F7C701CA
:103D0000BE010E94CC2A6F01E12CF12CA701960183
:103D1000260F371F411D511DC501B4010E94F42A11
:103D200069017A01E0918600F0918700CA01B9012A
:103D30000E94AE2A9B01AC01DF010E943A2B9B013D
:103D4000AC01C701B6010E94AE2ADC01CB012FE015
:103D5000B695A795979587952A95D1F700918600F6
:103D60001091870020E030E0081719072A073B0769
:103D700028F46091860070918700CB01BC0170939C
:103D80008D0060938C00CDB7DEB7ECE00C946F2B08
:103D900008950E941C1E8AE08093800089E1809330
:103DA00081008FEF9FEF90938700809386000E94A1
:103DB000071D08956A9A2EB12B7F3EB134604FB72C
:103DC000F894FC01CB01880F991F680F791F6E0FC3
:103DD0007F1FE617F70789F0819198E03EB9000050
:103DE00000C087FF2EB9880F000000C000C000C0CF
:103DF0002EB900C09A9591F7ECCF4FBF8FE594E0B4
:103E00000197F1F700C000000895CF93DF93EC0114
:103E1000FB018281882309F472C1C430FDE5DF070C
:103E200060F4CB3F9CE5D907D0F49E0122503C457D
:103E30002431310508F064C112C0C63AEDE5DE0751
:103E400071F030F4C2369DE5D90709F059C107C0B9
:103E50009E012E5A3D452330310508F051C10E9484
:103E6000500E9093DE028093DD02C231ECE5DE0756
:103E700009F405C108F04BC0C9308CE5D80709F436
:103E8000D2C000F5C530ECE5DE0709F4B9C078F41E
:103E9000C3308CE5D80709F4AAC008F0AEC0C23020
:103EA000DC4509F022C18091DD028160A3C0C730EA
:103EB000FCE5DF0709F4AFC008F0B1C08091DD0276
:103EC000806198C0CD309CE5D90709F4C2C058F490
:103ED000CB30FCE5DF0709F4B0C008F0B6C0809134
:103EE000DD028860A6C0CF309CE5D90709F4BFC0C9
:103EF00008F4B2C0C031FCE5DF0709F4BCC0C13131
:103F0000DC4509F0F2C08091DD028F7B73C0C115E2
:103F10009DE5D90709F4BEC088F5CB3FFCE5DF0776
:103F200009F472C0B8F4C4319CE5D90709F4C1C0E2
:103F300008F4ABC0C531DC4509F0D7C08091DD0283
:103F400082FB222720F991E0922790FB82F990FBD7
:103F500083F950C0CD3F8CE5D80709F481C008F43F
:103F600056C0CE3FECE5DE0709F47DC0CF3FDC450F
:103F700009F0BBC08091DE0282605DC0C2368DE573
:103F8000D80709F4A6C068F4C230EDE5DE0709F4ED
:103F90009CC008F484C0C330DD4509F0A6C080E0B1
:103FA00095C0CE3A9DE5D907F1F058F4C63ADD4503
:103FB00009F09BC08091DD02982F909590FB80F9CD
:103FC00019C0CF3A8DE5D807E1F1C03BDD4509F0D6
:103FD0008CC08091DE0283FB222720F991E092279A
:103FE00090FB83F980C08091DE0288607CC0809164
:103FF000DD0282608093DD0278C08091DD0219C00D
:104000008091DD028860F6CF8091DE0214C080913D
:10401000DE02826068C08091DD028062EBCF809119
:10402000DD028064E7CF0E943C088091DD02806859
:10403000E1CF8460DFCF816056C08091DD028E7F4A
:10404000D9CF8091DE02877F4EC08091DD028D7FC7
:10405000D1CF8091DD021CC08091DD02877FCACF65
:104060008091DE021AC08091DE028D7F3CC080917B
:10407000DD028F7EBFCF8091DD028F7DBBCF0E949E
:104080003C088091DD028F77B5CF8091DD02877F7C
:104090008B7FB0CF8091DE028D7F8E7F24C0809198
:1040A000DE02982F909591708E7F892B90FB81F97D
:1040B0001AC00E943C088091DD0287FB222720F96C
:1040C00091E0922790FB87F995CF81E00E94EA0E5C
:1040D0000CC08091DD0284FB222720F991E0922719
:1040E00090FB84F987CF8093DE028091DD0290916E
:1040F000DE020E94610E0E943C0880E001C081E067
:10410000DF91CF910895CF93DF9386319C4541F5A0
:10411000EB010E941C0D982F8A81209100013091A3
:104120000101882379F09A7A81E009F480E0809394
:10413000AC02911102C069E201C065E3C9010E94AD
:1041400070220AC08091AC02811102C069E201C0F4
:1041500065E3C9010E947E220E946E0D80E001C0CD
:1041600081E0DF91CF9108950F931F93CF93DF9359
:10417000C42FD22FFC0182818823B1F04093AF027B
:104180000E9456239093AE028093AD0280E28C0F82
:10419000883008F04DC0C77081E001C0880FCA9513
:1041A000EAF70E949B0544C08091AF02481330C0DB
:1041B0008091AD029091AE020E946E23883C9105E1
:1041C00038F510E21D0FCD17B9F080E28C0F883062
:1041D00040F4C77081E001C0880FCA95EAF70E94D9
:1041E000A205183010F581E09D2F977001C0880F4F
:1041F0009A95EAF70E949B05802F0E94910518303E
:10420000B8F4D77081E001C0880FDA95EAF70AC0E8
:1042100080E28C0F883060F4C77081E001C0880FA5
:10422000CA95EAF70E94A20503C0802F0E9491055B
:10423000DF91CF911F910F9108950F939C01CB01B6
:10424000243F4CE5340731F188F4293DFCE53F0774
:10425000D9F02A3D4CE5340779F1283D3C45A9F5D4
:1042600006E221EE41EE68ED7CE52BC0263FFCE541
:104270003F07E1F0A8F0273F3C4539F507E225EE7E
:1042800046EE67EF7CE51DC007E225EE45EE69EDE1
:104290007CE517C006E221EE40EE64EF7CE511C03C
:1042A00007E225EE44EE65EF7CE50BC006E221EE69
:1042B00042EE66EF7CE505C008E221E045EE6AEDDE
:1042C0007CE50E94B42080E008C0FC018281882344
:1042D00019F01092AF0201C081E00F910895909300
:1042E000C7018093C60108959093B5028093B402EC
:1042F0000895E091B402F091B502309729F0019051
:10430000F081E02D0995089580E00895FC01A091C9
:10431000B402B091B502109791F0809129018823E1
:1043200041F08091DD0287FF04C08081818386E0B7
:104330008083CF011296ED91FC9113970995089512
:10434000E091B402F091B502309739F022E0DC013F
:104350002C930480F581E02D099508952091B202F7
:104360003091B3022817390771F09093B30280930C
:10437000B202E091B402F091B502309721F00680CC
:10438000F781E02D099508952091B0023091B10296
:104390002817390771F09093B1028093B002E09131
:1043A000B402F091B502309721F00084F185E02D40
:1043B00009950895FC01329680912901882331F0F6
:1043C0008091DD0287FF02C09EE101C096E080E09F
:1043D000915028F021912223D9F38F5FF9CF0895CE
:1043E000662351F1209129012223E9F02091DD0279
:1043F00027FF19C0462F4695469546954E31E0F465
:10440000677021E030E002C0220F331F6A95E2F7A7
:10441000FC01E40FF11D828190E02823392381E023
:10442000232B69F409C0FC0132960896219162178A
:1044300029F0E817F907D1F780E0089581E00895A1
:104440009C01FC0132969FEF80E04191461789F074
:104450009F3F19F4411101C0982F8F5F8630A9F753
:104460009F3F39F0F901E90FF11D97FDFA9562833D
:10447000089508959C012A5F3F4FFC014281461335
:1044800001C01282019682179307B9F70895262F6B
:104490002695269526952E3168F4FC01E20FF11D34
:1044A000677021E030E001C0220F6A95EAF782814F
:1044B000282B22830895262F2695269526952E3182
:1044C00070F4FC01E20FF11D677021E030E001C0E3
:1044D000220F6A95EAF72095828128232283089586
:1044E00020912901222339F02091DD0227FF03C00A
:1044F0000E94472208950E942022089520912901B8
:10450000222339F02091DD0227FF03C00E945B22A5
:1045100008950E943A22089520912901FC013296C3
:10452000222331F08091DD0287FF02C08EE101C0BD
:1045300086E0DF011D928A95E9F7089546E050E094
:104540000E949D2B21E0892B09F420E0822F089501
:1045500008950E94A822089583E08093B6020E94E5
:10456000A9220895811102C081E001C082E08093F8
:10457000B6020E94A92208950E94B222089581E005
:104580008093B6020E94A92208950E94BF22089536
:1045900008950E94C82208950E94C92208950E9489
:1045A000C82208950E94C82208950E94C822089532
:1045B000CF930E94D2220E94D9120E94CF22C0E043
:1045C0008C2F0E940B12892B29F4CF5FC530C1F7C5
:1045D00080E001C081E0CF91089585B7806885BFF4
:1045E00085B7806885BF08951F920F920FB60F920E
:1045F00011248F939F93AF93BF938091B702811142
:1046000013C080911D0390911E03A0911F03B091D0
:1046100020034196A11DB11D80931D0390931E039D
:10462000A0931F03B0932003BF91AF919F918F91EF
:104630000F900FBE0F901F90189580912503843026
:1046400031F10E94E5031092B70220E488E190E086
:104650000FB6F894A895809360000FBE2093600079
:1046600083B7817F846083BF83B7816083BF789481
:10467000889583B78E7F83BF0FB6F894A8958091F5
:104680006000886180936000109260000FBE089502
:104690000E943C080E94ED03089582E084BD93E0EF
:1046A00095BD9AEF97BD80936E0008952FB7F8944B
:1046B00080911D0390911E03A0911F03B0912003D0
:1046C0002FBF08952FB7F89460911D0370911E03BA
:1046D00080911F03909120032FBF08959C014FB735
:1046E000F89480911D0390911E03A0911F03B09137
:1046F00020034FBF821B930B089578941F920F9253
:104700000FB60F9211248F939F93AF93BF93809115
:104710001D0390911E03A0911F03B09120030196E9
:10472000A11DB11D80931D0390931E03A0931F0331
:10473000B0932003BF91AF919F918F910F900FBEC7
:104740000F901F90189581E08093E00080E28093A5
:10475000D8001092C9008FE19EE40197F1F700C0E4
:10476000000087E090EBDC0180932E0390932F03F1
:10477000A0933003B09331039CE088E10FB6F89426
:10478000A895809360000FBE90936000FFCF9CE0DF
:1047900088E10FB6F894A895809360000FBE9093BF
:1047A0006000FFCF8091DB020895089522E02093FE
:1047B000E9002FEF3091E800215035FD06C035EDBE
:1047C0003A95F1F700002111F5CF2091E80025FF7F
:1047D0000BC040E050E066E070E00E94202680912F
:1047E000E8008E778093E8000895CF93DF932091BF
:1047F0002901222339F02091DD0227FF03C060E266
:1048000022E002C068E021E02093E9002FEF309120
:10481000E800215035FD06C035ED3A95F1F700006E
:104820002111F5CF2091E80025FF1DC0EC018091FA
:104830002901811105C040E050E068E070E003C04C
:1048400070E040E050E0CE010E9420268091E80018
:104850008E778093E80080E2FE01ABEBB2E001903E
:104860000D928A95E1F7DF91CF9108958093B80278
:104870007093BA026093B90280912503843001F5E8
:1048800082E08093E9008FEF9091E800815095FDE0
:1048900006C095ED9A95F1F700008111F5CF809152
:1048A000E80085FF0DC040E050E063E070E088EB79
:1048B00092E00E9420268091E8008E778093E800A5
:1048C0000895BC0184E00E9436240895BC0183E071
:1048D0000E943624089580912403811109C00E940A
:1048E000AB270E9408288091E20084608093E20058
:1048F00008951092240308950E94C522089560919E
:10490000210381E0611101C080E00E94AC22089582
:104910009091250381E0943009F080E060912103BB
:104920000E94B222089542E061EC81E00E942427B7
:1049300042E261EC82E00E9424279091250381E00D
:10494000943009F080E0609121030E94BC22089518
:1049500080912703833009F461C030F4813071F015
:10496000823009F49BC008958A3009F487C08B30E7
:1049700009F46CC0893009F0A9C020C080912603D9
:10498000813A09F0A3C08091E800877F8093E80016
:1049900080912A0390912B03892B21F460E28BEB09
:1049A00092E003C060E080E090E070E00E94652645
:1049B0008091E8008B778093E8000895809126032A
:1049C000813209F083C080912A0390912B030297D2
:1049D00008F07CC08091E800877F8093E800809198
:1049E000E80082FD05C0809125038111F8CF6EC0DB
:1049F0002091F3008091F20090E0922B029731F425
:104A00008091F100813011F0863021F48091F10025
:104A10008093DB028091E8008B7754C0809126035D
:104A2000813A09F053C080912A0390912B03892B7E
:104A300009F04CC08091E800877F8093E800809166
:104A4000E80080FFFCCF8091290137C080912603C8
:104A50008132E1F580912A0390912B03892BB1F5E6
:104A60008091E800877F8093E8000E945927809119
:104A70002803809329010E943C0808958091260311
:104A8000813221F58091E800877F8093E8000E94C1
:104A90005927809129038093DC0208958091260391
:104AA000813AA1F48091E800877F8093E8008091AB
:104AB000E80080FFFCCF8091DC028093F1008091C0
:104AC000E8008E778093E8000E945927089584B704
:104AD000877F84BF0FB6F894A895809160008861A5
:104AE00080936000109260000FBE90E080E80FB6E7
:104AF000F89480936100909361000FBE0E94BF22E2
:104B000008950E94AB270E940828E2EEF0E0808121
:104B10008460808378940E94932A08958DE191E0C7
:104B20000E9474210895809125038530A9F4809115
:104B30002503853079F40E941D2380912303882367
:104B4000B1F30E94D822882391F30E940A260E9482
:104B50003C08EDCF0E944823089508950E94B12596
:104B60000895292F332723303105C9F060F421300F
:104B7000310581F02230310509F044C08BE390E02B
:104B80002BE334E043C021323105E1F0223231051C
:104B900049F138C082E190E026E734E037C0992738
:104BA0008130910549F028F0029761F5EBE1F4E0DE
:104BB00005C0E7E3F4E002C0EBE2F4E0849190E0AA
:104BC0009F0124C06115710541F061307105D1F478
:104BD00089E090E026E634E019C089E090E02DE419
:104BE00034E014C06115710541F06130710551F474
:104BF0008CEB90E028E834E009C080E490E024E405
:104C000035E004C080E090E020E030E0FA0131833C
:104C10002083089580E189BD82E189BD09B400FE49
:104C2000FDCF8091D8008F7D8093D8008091E000E7
:104C300082608093E0008091E00081FDFCCF0895C8
:104C4000A0E0B0E0E6E2F6E20C94572BEC018B0119
:104C50007A010E947827811133C0E114F10439F000
:104C6000F70180819181081B190BC80FD91FC12C36
:104C7000D12C0115110519F18091E80085FD16C0B0
:104C80008091E8008E778093E800E114F10449F008
:104C9000F70180819181C80ED91ED182C08285E042
:104CA0000FC00E947827882321F30AC0899180933E
:104CB000F10001501109FFEFCF1ADF0ADACF80E0CF
:104CC000CDB7DEB7E8E00C94732B20912C03309124
:104CD0002D032617370748F06115710539F4209127
:104CE000E8002E772093E80001C0B901FC0120E024
:104CF0006115710579F1809125038823F1F18530E3
:104D0000F1F18091E80083FD3CC08091E80082FDD4
:104D10002EC08091E80080FFEBCF2091F3008091BE
:104D2000F20090E0922B6115710551F088309105E9
:104D300038F421912093F100615071090196F3CF6D
:104D400021E0089709F020E08091E8008E778093B9
:104D5000E800CECF2111CFCF0AC080912503882350
:104D600061F0853061F08091E80083FD0AC0809198
:104D7000E80082FFF2CF80E0089582E0089583E0AA
:104D8000089581E0089520912C0330912D0326177A
:104D9000370748F06115710539F42091E8002E7746
:104DA0002093E80001C0B901FC0120E06115710504
:104DB00091F180912503882309F440C0853009F4DE
:104DC0003FC08091E80083FD3DC08091E80082FDF6
:104DD0002FC08091E80080FFE9CF2091F3008091FF
:104DE000F20090E0922B6115710559F08830910521
:104DF00040F424912093F10031966150710901969D
:104E0000F2CF21E0089709F020E08091E8008E774A
:104E10008093E800CBCF2111CCCF0AC0809125032D
:104E2000882361F0853061F08091E80083FD0AC03D
:104E30008091E80082FFF2CF80E0089582E008953B
:104E400083E0089581E00895982F973068F5909356
:104E5000E900981739F07091EC002091ED00509125
:104E6000F00003C0242F762F50E021FD02C09F5F89
:104E7000ECCF3091EB003E7F3093EB003091ED00B2
:104E80003D7F3093ED003091EB0031603093EB00CB
:104E90007093EC002093ED005093F0002091EE0011
:104EA00027FDE5CF80E008958F708093E90081E0D1
:104EB00008958091260387FF11C08091E80082FD4C
:104EC00005C0809125038111F8CF11C08091E800C1
:104ED0008B770BC080912503882349F08091E800EF
:104EE00080FFF8CF8091E8008E778093E8000895E6
:104EF0002091E4003091E50095E64091EC00842F8C
:104F0000817040FF23C08091E80080FD1DC080912A
:104F10002503882399F0853099F08091EB0085FD79
:104F200011C04091E4005091E5002417350729F3A2
:104F3000915011F09A01E1CF84E0089582E0089544
:104F400083E0089581E0089580E008954091E800AD
:104F500042FFDDCF08950E941A280E942228E0EE29
:104F6000F0E0808181608083E8EDF0E080818F77E0
:104F7000808319BCA7EDB0E08C918E7F8C938081EB
:104F80008F7E80831092240308950F931F93CF93F5
:104F9000DF930E941A280E942228C8EDD0E0888161
:104FA0008F77888388818068888388818F7D8883D4
:104FB00019BC109225031092210310922303109222
:104FC000220300EE10E0F80180818B7F80838881CE
:104FD0008160888342E060E080E00E942427E1EE67
:104FE000F0E080818E7F8083E2EEF0E0808181605E
:104FF0008083808188608083F80180818E7F8083B8
:10500000888180618883DF91CF911F910F910895EE
:10501000E8EDF0E080818F7E8083E7EDF0E0808135
:105020008160808384E082BF81E0809324030E94BA
:10503000C5270895E8EDF0E080818E7F808310928F
:10504000E20008951092DA001092E10008951F9294
:105050000F920FB60F9211242F933F934F935F93AC
:105060006F937F938F939F93AF93BF93EF93FF9330
:105070008091E10082FF0BC08091E20082FF07C0B7
:105080008091E1008B7F8093E1000E94922A8091C1
:10509000DA0080FF1FC08091D80080FF1BC0809184
:1050A000DA008E7F8093DA008091D90080FF0DC0F6
:1050B00080E189BD82E189BD09B400FEFDCF81E0B8
:1050C000809325030E946B2405C019BC1092250310
:1050D0000E9479248091E10080FF19C08091E20054
:1050E00080FF15C08091E2008E7F8093E200809166
:1050F000E20080618093E2008091D800806280931A
:10510000D80019BC85E0809325030E947F248091FC
:10511000E10084FF30C08091E20084FF2CC080E178
:1051200089BD82E189BD09B400FEFDCF8091D80020
:105130008F7D8093D8008091E1008F7E8093E10085
:105140008091E2008F7E8093E2008091E200816096
:105150008093E20080912103882311F084E007C04E
:105160008091E30087FD02C081E001C083E080936D
:1051700025030E9488248091E10083FF29C080914B
:10518000E20083FF25C08091E100877F8093E100EA
:1051900082E080932503109221038091E1008E7FAD
:1051A0008093E1008091E2008E7F8093E200809105
:1051B000E20080618093E20042E060E080E00E94D3
:1051C00024278091F00088608093F0000E947C2466
:1051D000FF91EF91BF91AF919F918F917F916F91CF
:1051E0005F914F913F912F910F900FBE0F901F90A5
:1051F00018951F920F920FB60F9211242F933F9381
:105200004F935F936F937F938F939F93AF93BF93CE
:10521000CF93DF93EF93FF93C091E900CF7080911C
:10522000EC00D82FD17080FDD0E81092E900809179
:10523000F000877F8093F00078940E943D291092BF
:10524000E9008091F00088608093F000CD2BCF7052
:10525000C093E900FF91EF91DF91CF91BF91AF91A2
:105260009F918F917F916F915F914F913F912F917E
:105270000F900FBE0F901F901895AAE2B0E0E3E4E4
:10528000F9E20C945C2BE6E2F3E08091F10081936B
:1052900023E0EE32F207C9F70E94A8248091E800CB
:1052A00083FF2EC18091260390912703492F50E060
:1052B0004A30510508F024C1FA01EE59FF4F0C9411
:1052C000162B803821F0823809F01AC108C080916D
:1052D000220390912303992389F082600FC080916B
:1052E0002A038F70873008F00BC18093E90080910A
:1052F000EB0085FB882780F91092E9009091E80087
:10530000977F9093E8008093F1001092F100D1C054
:10531000282F2D7F09F0F4C0882319F0823061F026
:10532000EFC080912803813009F0EAC0933009F082
:1053300080E0809323032EC08091280381112AC02E
:1053400080912A038F702FEF280F263008F0D8C0E5
:105350008093E9002091EB0020FF1CC0933021F4E2
:105360008091EB00806214C09091EB00906190936B
:10537000EB0021E030E0A90102C0440F551F8A95DF
:10538000E2F74093EA001092EA008091EB00886017
:105390008093EB001092E9008091E800877F809372
:1053A000E8000E945927ACC08111AAC010912803BF
:1053B0001F778091E3008078812B8093E3008091B8
:1053C000E800877F8093E8000E9459278091E800D9
:1053D00080FFFCCF8091E30080688093E30011118F
:1053E00002C082E001C083E08093250389C0805819
:1053F000823008F085C080912803909129038C3D6C
:1054000053E0950779F583E08A838AE289834FB771
:10541000F894DE01139620E03EE051E2E32FF0E045
:1054200050935700E49120FF03C0E295EF703F5F77
:10543000EF708E2F90E0EA3010F0C79601C0C09652
:105440008D939D932F5F243149F74FBF8091E800E2
:10545000877F8093E8006AE270E0CE0101960E94A7
:10546000652616C060912A0370912B03AE014F5F31
:105470005F4F0E94AE25BC01892B09F441C0909179
:10548000E800977F9093E80089819A810E94C32663
:105490008091E8008B778093E80032C0803881F5F6
:1054A0008091E800877F8093E800809121038093BA
:1054B000F1008091E8008E7772CF811121C0809138
:1054C00028039091290399270297D4F48091E8004A
:1054D000877F8093E80080912803809321030E94B6
:1054E000592780912103811106C08091E30087FD37
:1054F00002C081E001C084E0809325030E949324D0
:105500008091E80083FF0AC08091E800877F809344
:10551000E8008091EB0080628093EB00AA96E3E0C4
:105520000C94782B0895CF93809125038823A1F0C4
:10553000C091E900CF709091EC00892F817090FDAF
:1055400080E8C82B1092E9008091E80083FD0E945A
:105550003D29CF70C093E900CF910895DB018F936F
:105560009F930E943A2BBF91AF91A29F800D911DF6
:10557000A39F900DB29F900D1124089587FB082ED4
:10558000062687FD819567FD61950E94842B0EF4A8
:10559000919507FC81950895AA1BBB1B51E107C09B
:1055A000AA1FBB1FA617B70710F0A61BB70B881FB3
:1055B000991F5A95A9F780959095BC01CD01089542
:1055C00097FB072E16F4009407D077FD09D00E94B0
:1055D000CC2A07FC05D03EF4909581959F4F089505
:1055E000709561957F4F0895A1E21A2EAA1BBB1BEF
:1055F000FD010DC0AA1FBB1FEE1FFF1FA217B3079F
:10560000E407F50720F0A21BB30BE40BF50B661FB4
:10561000771F881F991F1A9469F760957095809578
:1056200090959B01AC01BD01CF010895EE0FFF1FC6
:105630000590F491E02D09940E94242B332312F459
:105640008A1B9B0B0C94352BA29FB001B39FC0010A
:10565000A39F700D811D1124911DB29F700D811D9E
:105660001124911D08950E94242BB7FF0895821BD9
:10567000930B08950E94242BA59F900DB49F900D2D
:10568000A49F800D911D11240895B7FF0C943A2B0F
:105690000E943A2B821B930B08952F923F924F92B8
:1056A0005F926F927F928F929F92AF92BF92CF92B2
:1056B000DF92EF92FF920F931F93CF93DF93CDB7BB
:1056C000DEB7CA1BDB0B0FB6F894DEBF0FBECDBF33
:1056D00009942A88398848885F846E847D848C8404
:1056E0009B84AA84B984C884DF80EE80FD800C810D
:1056F0001B81AA81B981CE0FD11D0FB6F894DEBFF0
:105700000FBECDBFED010895991B79E004C0991F2C
:10571000961708F0961B881F7A95C9F7809508950B
:10572000FC014150504030F001900616D1F73197FE
:10573000CF010895882799270895FB01DC0104C053
:105740008D910190801921F441505040C8F7881B79
:10575000990B0895FB01DC0102C001900D924150AC
:105760005040D8F70895F999FECF92BD81BDF89ABF
:10577000992780B50895A6E1B0E044E050E00C948C
:10578000ED2BA8E1B0E042E050E00C94ED2B262F89
:10579000F999FECF92BD81BDF89A019700B4021627
:1057A00039F01FBA20BD0FB6F894FA9AF99A0FBED5
:1057B00008950396272F0E94C82B0E94C72B252FE0
:1057C0000E94C82B242F0C94C82B0196272F0E94CF
:1057D000C82B0C94C72BDC01CB01FC01F999FECF3F
:1057E00006C0F2BDE1BDF89A319600B40D92415069
:0A57F0005040B8F70895F894FFCF79
:1057FA005902280850011E0A1401010102000C0076
:10580A000C0C01191A1B1C1D1E1F202122D223F564
:10581A0023D62366246124D52301E200E900EA00A5
:10582A00B500B600B700CD008301CC008A01920111
:10583A0094012102230224022502260227022A02B7
:10584A00B300B4006F007000818283E200E900EACD
:10585A0000B500B600B700CD008301CC008A0192E2
:10586A000194012102230224022502260227022A88
:10587A0002B300B4006F007000818283F0F1C66742
:10588A0066369431F73534979633329091929395E0
:10589A000001020202020606060909090909090F9E
:1058AA000F0F0F0F0F15151518191919191919199D
:0658BA0019191923240056
:00000001FF
