:020000040800F2
:1000000000040020BD020008BF020008BF02000873
:10001000BF020008BF020008BF020008BF020008BC
:10002000BF020008BF020008BF0200081D7C0008D4
:10003000BF020008BF020008BF020008BF0200089C
:10004000BF020008BF020008BF020008BF0200088C
:10005000BF020008BF020008BF020008BF0200087C
:10006000BF020008BF020008BF020008857900082F
:10007000717900085D790008497900083579000830
:10008000217900080D790008BF020008BF020008AE
:10009000BF020008BF020008BF020008BF0200083C
:1000A0009D790008A5790008A179000899790008D0
:1000B0005175000801750008ED740008B976000854
:1000C00021760008BF020008BF020008BF02000836
:1000D000BF020008BF020008BF020008BF020008FC
:1000E000BF020008BF020008BF020008BF020008EC
:1000F00015750008BF020008BF020008BF02000813
:10010000BF020008BF020008BF020008BF020008CB
:10011000BF020008BF0200083D75000829750008ED
:10012000F9780008E5780008D1780008BD78000863
:10013000A9780008BF020008BF020008BF0200083B
:10014000BF020008BF020008BF020008BF0200088B
:10015000BF020008BF020008BF020008BF0200087B
:10016000BF020008BF020008BF0200082D7200088D
:10017000BF020008BF020008BF020008BF0200085B
:10018000BF020008BF020008BF020008BF0200084B
:10019000BF020008BF020008BF020008BF0200083B
:1001A00072B6374880F30888364880F309883648A5
:1001B0003649086040F20000CCF200004EF634717F
:1001C000CEF200010860BFF34F8FBFF36F8F40F294
:1001D0000000C0F2F0004EF68851CEF20001086037
:1001E000BFF34F8FBFF36F8F4FF00000E1EE100AA7
:1001F0004EF63C71CEF200010860062080F31488B0
:10020000BFF36F8F06F0C3FF07F07EFE4FF055304F
:100210001F491B4A91423CBF41F8040BFAE71D49B4
:10022000184A91423CBF41F8040BFAE71A491B4AAD
:100230001B4B9A423EBF51F8040B42F8040BF8E7FF
:1002400000201849184A91423CBF41F8040BFAE7D4
:1002500007F03CFE07F057FE144C154DAC4203DA94
:1002600054F8041B8847F9E70AF0D8FE114C124DE8
:10027000AC4203DA54F8041B8847F9E707F042BEA2
:1002800000040020000C00200000000808ED00E041
:100290000000002000040020641B0108000C002066
:1002A0001414002018140020643D0020A001000850
:1002B000A0010008A0010008A001000870E700F0FC
:1002C00000F8FEE72DE9F04F2DED108AC1F80CD0B3
:1002D000C3689D46BDEC108ABDE8F08F002383F310
:1002E00011882846A047002007F0C6FDFEE707F06A
:1002F000CFFD00DFFEE7000053B94AB9002908BF6F
:1003000000281CBF4FF0FF314FF0FF3000F074B9F0
:10031000ADF1080C6DE904CE00F006F8DDF804E05C
:10032000DDE9022304B070472DE9F047089E04463A
:100330008846002B40F085808A42154648D9B2FA9B
:1003400082F24AB1C2F1200701FA02F320FA07F75C
:10035000954047EA030894404FEA154E230CB8FB3A
:10036000FEF71FFA85FC0EFB178843EA084307FBDC
:100370000CF1994209D9EB1807F1FF3080F0E380C6
:10038000994240F2E080023F2B445B1AA4B2B3FBD7
:10039000FEF00EFB103344EA034400FB0CFCA445C2
:1003A00009D92C1900F1FF3380F0CB80A44540F22D
:1003B000C88002382C4440EA0740A4EB0C04002714
:1003C0001EB1D4400023C6E900433946BDE8F0879A
:1003D000002A53D0B2FA82F2002A40F0B680491BBC
:1003E0004FEA154E1FFA85F80127B1FBFEFC230CDE
:1003F0000EFB1C1143EA014308FB0CF1994207D99B
:10040000EB180CF1FF3002D2994200F2EC808446E6
:10041000591AA3B2B1FBFEF00EFB101443EA0444D8
:1004200008FB00F8A04507D92C1900F1FF3302D2D0
:10043000A04500F2DC801846A4EB080440EA0C401A
:10044000BEE78B4208D9002E78D00027C6E900010C
:1004500038463946BDE8F087B3FA83F77FB98B4257
:1004600002D3824200F2BD80841A61EB03030120B3
:100470009846002EA9D0C6E90048A6E7FFDEC7F1DE
:100480002005BB4022FA05FC4CEA030C01FA07F4F4
:1004900020FA05F821FA05F34FEA1C4E48EA040455
:1004A000B3FBFEF9210C0EFB19331FFA8CF841EA5D
:1004B000034309FB08FA9A4502FA07F200FA07F12A
:1004C0000BD91CEB030309F1FF3080F088809A45BB
:1004D00040F28580A9F102096344A3EB0A03A4B2A8
:1004E000B3FBFEF00EFB103344EA034400FB08F8B4
:1004F000A04508D91CEB040400F1FF336BD2A045E2
:1005000069D90238644440EA0940A4EB0804A0FB1E
:1005100002894C45C6464B4654D351D0002E69D073
:10052000B1EB0E0264EB030404FA05F522FA07F3BB
:10053000FC401D43C6E90054002746E737463046D5
:1005400043E7184637E707461FE7C2F1200320FAC2
:1005500003F7954001FA02F021FA03F34FEA154E32
:100560003843010CB3FBFEF71FFA85F80EFB173377
:1005700041EA034107FB08F38B4204FA02F407D96E
:10058000691807F1FF3C28D28B4226D9023F294443
:10059000CB1A81B2B3FBFEF00EFB103341EA0341EC
:1005A00000FB08F38B4207D9691800F1FF3C10D219
:1005B0008B420ED902382944C91A40EA074714E78A
:1005C0004145ABD2B8EB020E69EB0C020138134681
:1005D000A4E76046F0E7184695E76746D8E7814606
:1005E0007BE7384645E7ACF1020C2B4410E70238B4
:1005F0002C4421E73746E8E6704700BF81F0004110
:1006000002E000BF83F0004330B54FEA41044FEAF7
:10061000430594EA050F08BF90EA020F1FBF54EA92
:10062000000C55EA020C7FEA645C7FEA655C00F02E
:10063000E2804FEA5454D4EB5555B8BF6D420CDDFF
:100640002C4480EA020281EA030382EA000083EA82
:10065000010180EA020281EA0303362D88BF30BD22
:1006600011F0004F4FEA01314FF4801C4CEA113178
:1006700002D0404261EB410113F0004F4FEA0333D7
:100680004CEA133302D0524263EB430394EA050F62
:1006900000F0A780A4F10104D5F1200E0DDB02FAD1
:1006A0000EFC22FA05F2801841F1000103FA0EF265
:1006B000801843FA05F359410EE0A5F120050EF12B
:1006C000200E012A03FA0EFC28BF4CF0020C43FA5C
:1006D00005F3C01851EBE37101F0004507D54FF069
:1006E000000EDCF1000C7EEB00006EEB0101B1F5B9
:1006F000801F1BD3B1F5001F0CD349085FEA3000FF
:100700004FEA3C0C04F101044FEA445212F5800F09
:1007100080F09A80BCF1004F08BF5FEA500C50F1A6
:10072000000041EB045141EA050130BD5FEA4C0C89
:10073000404141EB010111F4801FA4F10104E9D112
:1007400091F0000F04BF01460020B1FA81F308BF09
:100750002033A3F10B03B3F120020CDA0C3208DDD5
:1007600002F1140CC2F10C0201FA0CF021FA02F1B0
:100770000CE002F11402D8BFC2F1200C01FA02F120
:1007800020FA0CFCDCBF41EA0C019040E41AA2BF45
:1007900001EB0451294330BD6FEA04041F3C1CDA0D
:1007A0000C340EDC04F11404C4F1200220FA04F02D
:1007B00001FA02F340EA030021FA04F345EA0301D7
:1007C00030BDC4F10C04C4F1200220FA02F001FA99
:1007D00004F340EA0300294630BD21FA04F029461B
:1007E00030BD94F0000F83F4801306BF81F48011B4
:1007F0000134013D4EE77FEA645C18BF7FEA655C27
:1008000029D094EA050F08BF90EA020F05D054EAF8
:10081000000C04BF1946104630BD91EA030F1EBFFD
:100820000021002030BD5FEA545C05D14000494101
:1008300028BF41F0004130BD14F580043CBF01F5F4
:10084000801130BD01F0004545F0FE4141F47001DA
:100850004FF0000030BD7FEA645C1ABF19461046B5
:100860007FEA655C1CBF0B46024650EA013406BFB6
:1008700052EA033591EA030F41F4002130BD00BF75
:1008800090F0000F04BF0021704730B54FF4806432
:1008900004F132044FF000054FF0000150E700BFB3
:1008A00090F0000F04BF0021704730B54FF4806412
:1008B00004F1320410F0004548BF40424FF00001FF
:1008C0003EE700BF42004FEAE2014FEA31014FEA42
:1008D00002701FBF12F07F4393F07F4F81F0605191
:1008E000704732F07F4208BF704793F07F4F04BFDC
:1008F00041F40021704730B54FF4607401F00045B9
:1009000021F000411CE700BF50EA010208BF704718
:1009100030B54FF000050AE050EA010208BF704709
:1009200030B511F0004502D5404261EB41014FF472
:10093000806404F132045FEA915C3FF4D8AE4FF07A
:1009400003025FEADC0C18BF03325FEADC0C18BF5D
:10095000033202EBDC02C2F1200300FA03FC20FAAE
:1009600002F001FA03FE40EA0E0021FA02F11444FB
:10097000BDE600BF70B54FF0FF0C4CF4E06C1CEA14
:1009800011541DBF1CEA135594EA0C0F95EA0C0F85
:1009900000F0DEF82C4481EA030621EA4C5123EAF8
:1009A0004C5350EA013518BF52EA033541F4801127
:1009B00043F4801338D0A0FB02CE4FF00005E1FBDA
:1009C00002E506F00042E0FB03E54FF00006E1FB24
:1009D00003569CF0000F18BF4EF0010EA4F1FF0467
:1009E000B6F5007F64F5407404D25FEA4E0E6D41A7
:1009F00046EB060642EAC62141EA55514FEAC520B8
:100A000040EA5E504FEACE2EB4F1FD0C88BFBCF533
:100A1000E06F1ED8BEF1004F08BF5FEA500E50F1E4
:100A2000000041EB045170BD06F0004646EA0101AA
:100A300040EA020081EA0301B4EB5C04C2BFD4EBDC
:100A40000C0541EA045170BD41F480114FF0000ED5
:100A5000013C00F3AB8014F1360FDEBF002001F043
:100A6000004170BDC4F10004203C35DA0C341BDCBD
:100A700004F11404C4F1200500FA05F320FA04F08F
:100A800001FA05F240EA020001F0004221F00041C3
:100A900010EBD37021FA04F642EB06015EEA430E36
:100AA00008BF20EAD37070BDC4F10C04C4F1200566
:100AB00000FA04F320FA05F001FA04F240EA020019
:100AC00001F0004110EBD37041F100015EEA430EEA
:100AD00008BF20EAD37070BDC4F1200500FA05F20A
:100AE0004EEA020E20FA04F301FA05F243EA020389
:100AF00021FA04F001F0004121FA04F220EA020098
:100B000000EBD3705EEA430E08BF20EAD37070BDDD
:100B100094F0000F0FD101F00046400041EB0101BD
:100B200011F4801F08BF013CF7D041EA060195F09F
:100B3000000F18BF704703F00046520043EB030359
:100B400013F4801F08BF013DF7D043EA0603704746
:100B500094EA0C0F0CEA135518BF95EA0C0F0CD051
:100B600050EA410618BF52EA4306D1D181EA030197
:100B700001F000414FF0000070BD50EA410606BF91
:100B80001046194652EA430619D094EA0C0F02D1D6
:100B900050EA013613D195EA0C0F05D152EA03361B
:100BA0001CBF104619460AD181EA030101F0004139
:100BB00041F0FE4141F470014FF0000070BD41F082
:100BC000FE4141F4780170BD70B54FF0FF0C4CF45C
:100BD000E06C1CEA11541DBF1CEA135594EA0C0F7B
:100BE00095EA0C0F00F0A7F8A4EB050481EA030EC8
:100BF00052EA03354FEA013100F088804FEA0333AF
:100C00004FF0805545EA131343EA12634FEA02227C
:100C100045EA111545EA10654FEA00260EF000413D
:100C20009D4208BF964244F1FD0404F5407402D28F
:100C30005B084FEA3202B61A65EB03055B084FEA20
:100C400032024FF480104FF4002CB6EB020E75EB1D
:100C5000030E22BFB61A754640EA0C005B084FEA45
:100C60003202B6EB020E75EB030E22BFB61A7546C2
:100C700040EA5C005B084FEA3202B6EB020E75EB0D
:100C8000030E22BFB61A754640EA9C005B084FEA85
:100C90003202B6EB020E75EB030E22BFB61A754692
:100CA00040EADC0055EA060E18D04FEA051545EA81
:100CB00016754FEA06164FEAC30343EA52734FEA2A
:100CC000C2025FEA1C1CC0D111F4801F0BD141EAA3
:100CD00000014FF000004FF0004CB6E711F4801F08
:100CE00004BF01430020B4F1FD0C88BFBCF5E06FE8
:100CF0003FF6AFAEB5EB030C04BFB6EB020C5FEAF8
:100D0000500C50F1000041EB045170BD0EF0004E4C
:100D10004EEA113114EB5C04C2BFD4EB0C0541EA7E
:100D2000045170BD41F480114FF0000E013C90E67B
:100D300045EA060E8DE60CEA135594EA0C0F08BF3F
:100D400095EA0C0F3FF43BAF94EA0C0F0AD150EA3E
:100D500001347FF434AF95EA0C0F7FF425AF1046D1
:100D600019462CE795EA0C0F06D152EA03353FF4F9
:100D7000FDAE1046194622E750EA410618BF52EA76
:100D800043067FF4C5AE50EA41047FF40DAF52EA4A
:100D900043057FF4EBAE12E74FF0FF3C06E000BFE7
:100DA0004FF0010C02E000BF4FF0010C4DF804CDF4
:100DB0004FEA410C7FEA6C5C4FEA430C18BF7FEAB4
:100DC0006C5C1BD001B050EA410C0CBF52EA430CE2
:100DD00091EA030F02BF90EA020F0020704710F162
:100DE000000F91EA030F58BF994208BF90422CBFF1
:100DF000D8176FEAE37040F0010070474FEA410CEA
:100E00007FEA6C5C02D150EA013C07D14FEA430C07
:100E10007FEA6C5CD6D152EA033CD3D05DF8040B78
:100E2000704700BF8446104662468C4619466346AA
:100E300000E000BF01B5FFF7B7FF002848BF10F181
:100E4000000F01BD4DF808EDFFF7F4FF0CBF0120C6
:100E500000205DF808FB00BF4DF808EDFFF7EAFF42
:100E600034BF012000205DF808FB00BF4DF808EDFD
:100E7000FFF7E0FF94BF012000205DF808FB00BFF2
:100E80004DF808EDFFF7CEFF94BF012000205DF87C
:100E900008FB00BF4DF808EDFFF7C4FF34BF012089
:100EA00000205DF808FB00BF4FEA410C7FEA6C5C54
:100EB00002D150EA013C0AD14FEA430C7FEA6C5C54
:100EC00002D152EA033C02D14FF0000070474FF0CC
:100ED000010070474FEA4102B2F1E04324BFB3F58D
:100EE000001CDCF1FE5C0DD901F0004C4FEAC002A1
:100EF0004CEA5070B2F1004F40EB830008BF20F085
:100F00000100704711F0804F21D113F13872BCBF3E
:100F100001F00040704741F480114FEA5252C2F193
:100F20001802C2F1200C10FA0CF320FA02F018BFDC
:100F300040F001004FEAC1234FEAD32303FA0CFC2F
:100F400040EA0C0023FA02F34FEA4303CCE77FEABE
:100F5000625307D150EA01331EBF4FF0FE4040F408
:100F60004000704701F0004040F0FE4040F40000B7
:100F7000704700BF014B1868704700BF000C00208D
:100F800038B5124B1C68A26B05461AB10023C2E9A2
:100F9000045338BD182000F0B3F80246A06378B1BE
:100FA000012000210A4B1360C2E904010B23094808
:100FB000094993810023C2E90101C2E9045338BD04
:100FC000064B0748422100F055F800BF000C0020F6
:100FD0000E33CDAB34126DE6ECDE0500941A010839
:100FE000AC1A010838B51A4B1C68A26B92B114698F
:100FF00018495369184801FB04F100FB0313A4FBD3
:101000000045611C1D4445F1000323F00040C2E986
:10101000041338BD182000F073F80246A06388B1AD
:1010200001200021C2E904010A480C4C0C4B0D4977
:101030000D4D146053600B24034695609481C2E902
:10104000041338BD094B0A484E2100F013F800BFC5
:10105000000C00202DF451582D7F954C0E33CDAB54
:1010600034126DE62E7F954CECDE0500941A0108D3
:10107000AC1A010800B50A4C2668054685B01C4626
:10108000F06852B1074B0091CDE9013206492B4679
:10109000224600F021F800F071FD044B1A46F2E7F9
:1010A000000C0020E01A0108F01A0108EC1A0108EF
:1010B00008B513460022FFF7DDFF00BF0CB400B5F2
:1010C00083B004AB53F8042B019300F027F903B06D
:1010D0005DF804EB02B070470EB410B583B005ABF9
:1010E000064C53F8042B01930146206800F016F9D2
:1010F00003B0BDE8104003B0704700BF000C0020F3
:10110000024B0146186800F061B800BF000C0020D7
:10111000024B0146186800F003B800BF000C002025
:1011200000293CD038B551F8043C0C1F002BB8BF47
:10113000E418054601F0FEFA234B1A682AB1A242D0
:101140000DD921686018824223D0626028461C6055
:10115000BDE8384001F0F0BAA34203D81A465368FC
:10116000002BF9D111685018A04219D024D8216859
:101170006018834206D0636054602846BDE838405A
:1011800001F0DABAD3E900030144636021605460DE
:10119000F3E7D2E90002014462602160D6E77047BC
:1011A00020680144501883421160E6D1D3E900035E
:1011B000014453601160E0E70C232B602846BDE832
:1011C000384001F0B9BA00BF18140020F8B5CD1CA2
:1011D00025F0030508350C2D38BF0C25002D0646DB
:1011E00033DBA94231D82A4F01F0A4FA3A6852B150
:1011F00013685B1B04D43FE023685B1B29D52246A0
:101200005468002CF8D1796800293BD02946304633
:1012100005F0E2FF431C28D0C41C24F00304A042C4
:1012200005D0211A304605F0D7FF01301DD02560CA
:10123000304601F081FA04F10B0020F00700231D75
:10124000C21A01D01B1AA350F8BD0C223260002034
:10125000F8BD0B2B05D8A242636811D05360E7E7B5
:10126000144623601C442560E2E70C2330463360BB
:1012700001F062FA0020F8BD0B2BF1D85368144638
:101280003B60D5E7304605F0A7FF7860BEE700BFBA
:10129000181400209368013B002B936011DA10B4FE
:1012A0009469A34209DB0A2907D01368581C10600F
:1012B000197008465DF8044B70475DF8044B00F068
:1012C0007DBB1368581C106019700846704700BF3A
:1012D0009BB1F8B513440F4606465D1E541E01E04F
:1012E000AC4208D03A4614F8011F3046FFF7D2FF4F
:1012F000431CF5D1F8BD0020F8BD0020704700BFA9
:10130000936810B5144613B95360184610BD00F029
:101310001DFE0023C4E9013310BD00BF2DE9F04FCD
:101320009FB08B4690461C46039018B18369002BF2
:1013300000F0B780A24B9B4500F0B980A14B9B45C4
:1013400000F0C780A04B9B4504BF039BD3F80CB0B3
:10135000BBF80C30180740F1B280DBF81030002BDE
:1013600000F0AD8030238DF8323098F800300594CD
:10137000002120220B918DF83120944E0127002B63
:1013800000F08780252B00F01581454603E0252BD2
:1013900000F0A38025466B786C1C002BF7D1B4EBD2
:1013A000080A76D04246534659460398FFF790FF05
:1013B00001306ED00B9B6A7853440B93002A68D09F
:1013C00000234FF0FF3201340693CDE908338DF846
:1013D0005B301C93079205E0069A07FA03F3134368
:1013E0002C4606932546052215F8011B304600F0D1
:1013F000FFFFAA46831B0028EED1069BD90644BFF7
:1014000020228DF85B2021781A0744BF2B228DF80B
:101410005B202A2966D1059A1168043200290592B9
:10142000C0F29D8009916178A51C2E2973D0684C6B
:101430000322204600F0DCFF002800F08680001B1D
:10144000069B402404FA00F00343069305F10108CB
:10145000297860488DF83010062200F0C9FF002876
:1014600000F083805C4B002B72D005AB00935A4692
:101470005A4B039806A9AFF300808146B9F1FF3FAC
:1014800007D00B9B4B440B9398F80030002B7FF454
:1014900079AFBBF80C305B0618D40B981FB0BDE8D1
:1014A000F08F00F033FD464B9B457FF447AF039B25
:1014B000D3F804B0BBF80C3018073FF54EAF5946CF
:1014C000039800F0DBFA00283FF44CAF4FF0FF30F8
:1014D000E4E7039BD3F808B03AE7B4EB080A3FF41B
:1014E0006FAF5FE7A1F13002092A88BFA2469CD8FE
:1014F000099B01E02C460135297803EB830302EBBD
:101500004303A1F13002092AAA46F3D92E2904F196
:10151000020509938BD19AF801102A292FD1059B36
:101520009AF802101A6807920433002A05930AF108
:1015300003050AF1020338DB254C032220469A46B4
:1015400000F056FF00287FF47AAFA84655467FE7A3
:10155000059B073323F007030833059391E74942BE
:1015600043F00203099106935DE705AB00935A46E9
:101570001A4B039806A900F0D5F881467EE7A1F141
:1015800030020023092A079301D915E055466978EE
:1015900003EB830302EB4303A1F13002092A05F1B7
:1015A000010AF3D90235079341E74FF0FF329A461B
:1015B00007923CE7444603E7AA46013537E700BFF8
:1015C000A00801088008010860080108201B010824
:1015D000281B01082C1B010800000000D112000884
:1015E00010B4044C13460A46014620685DF8044BCB
:1015F000FFF794BE000C00202DE9F0470C46914601
:101600000A698968DDF820808A42B8BF0A46C9F8AD
:10161000002094F8431006461F4611B10132C9F864
:101620000020236899065CD5D9F800200232C9F859
:101630000020236813F0060F19461DD1E1688A1AAD
:10164000002AD8BF194617DD04F1190A002505E064
:10165000E368D9F800209B1AAB420CDD0123524607
:1016600039463046C047013005F10105F0D14FF051
:10167000FF30BDE8F087216894F84330003318BF8D
:1016800001238A060AD5E1185A1C302081F843004C
:10169000224494F8451082F84310023304F14302C7
:1016A00039463046C0470130E1D02368A26821693D
:1016B00003F00603042B1DD08A4226DD4FF00009FB
:1016C000521A91441A34002501E04D451DDA0123D8
:1016D000224639463046C047013005F10105F4D1B4
:1016E000C5E713F0060F13D094F84330003318BF4A
:1016F0000123D3E7D9F80000E3688A42A3EB000393
:1017000023EAE379DCDC002BDCDC0020BDE8F08799
:10171000E168D9F800208A1A002AD8BF194693DC5C
:10172000AAE700BF2DE9F0430C46097E85B06E297B
:10173000064617460C98984604F1430E6DD039D9E9
:10174000732900F0F68044D9752900F004817829C6
:1017500040F0118178232268DFF858C284F84530C0
:101760000168150651F8043B016040F1A180D107E2
:1017700044BF42F020022260002B00F09380102230
:10178000002184F843106068A0600028C0F2C8807F
:10179000216821F004012160002B40F0A380002883
:1017A00040F0C0807546082A00F0AC80AEEB05031F
:1017B000236141E0632900F0E5801AD8002938D080
:1017C000582940F0D88084F845102268DFF8E8C135
:1017D000C6E76F2900F0BF80702940F0CC802268F6
:1017E000DFF8D0C142F020027823226084F845302F
:1017F000B6E7642902D0692940F0BD8022680368F9
:10180000110603F1040557D5196805600B46002938
:1018100059DBDFF8A4C10A22B5E7036822686169D1
:101820001D1D056015061B6802D4500600F1BD8021
:101830001960002375462361CDF800803B4603AA5A
:1018400021463046FFF7D8FE013020D02A462369D2
:1018500039463046C047013019D022680398E36802
:10186000920719D51A1A002A16DD04F11909002564
:1018700004E0E36803981A1AAA420DDD01234A46E0
:1018800039463046C047013005F10105F1D14FF02E
:10189000FF3005B0BDE8F0839842B8BF184605B0E8
:1018A000BDE8F083226822F020022260102267E760
:1018B000500648BF9BB25AE75106A5D5B3F9003090
:1018C00005601946A3E76168A1602D200029C3F1D6
:1018D000000384F8430002DB22F004022260DFF8F8
:1018E000D8C00A22754600E00B46B3FBF2F102FBBA
:1018F000113093421CF8000005F8010DF4D2082ABB
:101900007FF454AF2368DB077FF550AF626823692B
:101910009A423FF74BAF302305F8013C013D45E7C4
:10192000002BDFD19CF8003084F8423004F14205EE
:1019300039E703686268191D01601D6800212846A7
:1019400000F056FD002832D0401B6060206100236B
:1019500084F8433070E72268036812F0800F03F1C7
:1019600004051AD01B6805606F290CBF08220A22E3
:10197000DFF844C004E7012384F84210236104F136
:101980004205E4E703681A68191D0123016004F1A8
:10199000420584F842202361D9E712F0400F0DBFC1
:1019A0001B6805601B880560DEE7198041E76068F9
:1019B000CCE700BF481B0108341B0108F8B50D46F1
:1019C0001446064608B1836943B3254B9C422AD08E
:1019D000244B9C4229D0244B9C4208BFF468A38925
:1019E000A269A2601A0722D5236903B3226861693C
:1019F000D31AEDB299422F4629DD0133A168501C5C
:101A00000139A1602060157062699A4216D0A389DD
:101A1000DB0701D50A2D11D03846F8BD00F076FA63
:101A20000F4B9C42D4D17468D9E7B468D7E72146FC
:101A3000304600F023F838B92369D7E7214630460D
:101A400000F03AF90028E7D04FF0FF37E4E72146ED
:101A5000304600F031F90028F6D122680123CDE7A5
:101A6000A00801088008010860080108024B0A4626
:101A700001461868FFF7A2BF000C00203B4B70B571
:101A80001D6806460C460DB1AB69DBB1384B9C4274
:101A90001ED0384B9C424AD0374B9C4208BFEC6862
:101AA000B4F90C2093B2190718D5206908B313F0C4
:101AB00001022CD0636900225B42A361A26060B383
:101AC000002070BD284600F021FA294B9C42E0D14D
:101AD0006C68B4F90C2093B21907E6D4DD063CD546
:101AE000580726D4206942F00803A3819BB200283E
:101AF000DDD103F42072B2F5007FD8D03046214604
:101B000000F026FCA389206913F00102D2D19907C5
:101B100058BF6269A2600028D2D1B4F90C301A060D
:101B2000CFD543F04003A3814FF0FF3070BDAC68C8
:101B3000B6E7616B51B104F14403994204D03046D9
:101B4000FFF7EEFAB4F90C20002363630023206949
:101B5000636022F024022060C5E742F040020923BE
:101B600033604FF0FF30A28170BD00BF000C002039
:101B7000A0080108800801086008010808B50620CF
:101B800000F088FE012005F00FFB00BF8B891A07CB
:101B90002DE9F0410C46804641D44A68002A59DDBF
:101BA000E66A002E53D00022D8F80050216AC8F807
:101BB000002013F4805251D101234046B047431C0A
:101BC0005FD0A389E66A216A5F0705D56268636B07
:101BD000801A0BB1236CC01A024600234046B0475E
:101BE000461C45D1D8F80030B4F90C20002B55D054
:101BF0001D2B01D0162B5AD123690022C4E90032D3
:101C0000616BC8F8005011B304F14403994202D04B
:101C10004046FFF785FA00206063BDE8F0810E6959
:101C2000AEB10D680E6099070CBF63690023AD1B50
:101C3000A3600AE02B463246A76A216A4046B847AD
:101C40000028A5EB000506440ADD002DF2DC00208B
:101C5000BDE8F0810A6C002AA2DCF8E7606DB3E70A
:101C6000A38943F04003A3814FF0FF30BDE8F0812A
:101C70002269A389226000226260DA04C0D560650F
:101C8000BEE7D8F80030002B9BD01D2B0CD0162BB4
:101C90000AD0A38943F04003A381D9E72169C4E9AD
:101CA0000013D304ACD5EAE7C8F80050CFE742F000
:101CB0004002A281CCE700BF0B6923B310B50446F4
:101CC00082B008B18369BBB1104B994212D0104B5E
:101CD000994216D00F4B994208BFE168B1F90C3018
:101CE0002BB1204602B0BDE81040FFF74FBF0020E7
:101CF00002B010BD6168F1E7019100F007F90199A8
:101D0000E2E7A168EAE70020704700BFA0080108E9
:101D1000800801086008010820B1054B01461868D9
:101D2000FFF7CABF034B0449186800F0B9BA00BFF7
:101D3000000C00205C080108B91C00080020704756
:101D4000014900F0ADBA00BFB91C0008002070477F
:101D500070B54A1E682505FB02F50E4605F17401B3
:101D6000FFF734FA044640B100210C30666005F1FB
:101D700068022160A06000F08DFC204670BD00BFAD
:101D80001E4B70B51D68AB69064643B34835D5E9AF
:101D90000134013B05D51EE0013B5A1C04F16804E7
:101DA00019D0B4F90C20002AF6D10025144B656631
:101DB000C4E90055A560C4E90455A5612946E3605E
:101DC000082204F15C0000F065FCC4E90D55C4E98B
:101DD0001255204670BD2C682CB12546D7E7284601
:101DE00000F010F8D2E704213046FFF7B1FF0446B7
:101DF00028600028F1D10C233360EAE75C08010871
:101E00000100FFFF2DE9F84F334B34491A68816216
:101E100090424FF00003C0E91233036504BF012371
:101E200083610546FFF7ACFF68602846FFF7A8FF0F
:101E3000A8602846FFF7A4FF6E68E860002404232A
:101E4000F3607466C6E90044B460C6E90444B46152
:101E5000214606F15C00082200F01CFCDFF888B087
:101E6000AF68DFF888A0DFF88890DFF888801C4B27
:101E7000C6F83080C6E9086BC6E90AA92146FB60AE
:101E800008227C66C7E90044BC60C7E90444BC6121
:101E900007F15C0000F0FEFBEE68124BC7F83080E3
:101EA000C7E9087BC7E90AA92146F3607466C6E959
:101EB0000044B460C6E90444B46106F15C00082241
:101EC00000F0E8FB0123C6E9086BC6E90AA9C6F8D9
:101ED0003080AB61BDE8F88F5C080108411D000847
:101EE0000900010012000200052900082D29000840
:101EF0006D2900088D290008024B0349186800F07D
:101F0000CFB900BF5C080108B91C0008836903B998
:101F100078E77047704700BF704700BF704700BF49
:101F2000704700BF024B0349186800F093B900BF27
:101F3000000C00203D1D0008024B0349186800F00A
:101F400089B900BF000C00204D1D00089368002BCC
:101F500000F002812DE9F04FB1F90C309BB20C4634
:101F6000190783B08246904635D522699AB313F09B
:101F70000202D8F800603DD00027D4F828B0D4F889
:101F800020C0DFF8CC923D464D452B463A4628BF4F
:101F90004B4661465046D5B1D847002840F3D28021
:101FA000D8F808301B1A07442D1AC8F80830002B3F
:101FB00000F0B780D4F820C0D4F828B04D452B46A7
:101FC0003A4628BF4B4661465046002DE4D1D6E93B
:101FD00000750836D8E721465046FFF74FFD002828
:101FE00040F03081B4F90C30D8F800609BB213F0A7
:101FF0000202C1D113F0010940F0B080A768206847
:102000004D46002D54D09A0540F1BC80AF42BB46EE
:1020100000F2E78013F4906F2FD0D4E9041707EB98
:102020004707A0EB010B07EBD777681C7F105844DC
:10203000B8423A4684BF07463A465B0540F1E9801C
:1020400011465046FFF7C2F8002800F0F5805A46C6
:102050002169019000F01CFAA289019B22F4906290
:1020600042F08002A281A7EB0B0203EB0B00676139
:1020700023612060A2602F46AB465A46494600F0D5
:10208000A1FAA2682368D21B5B442F46A26023609A
:102090000025D8F80830DB1BB944C8F80830002BFD
:1020A0003FD0B4F90C30A76820689BB2002DAAD1AC
:1020B000D6E900950836A4E70BF1080353E9026757
:1020C0009B460833002FF9D03A460A21304600F0EB
:1020D0008FF9002853D00130A0EB06094B46D4E914
:1020E00004122068BB4228BF3B46884203D9A5683A
:1020F0001544AB4219DC9A427DDC1346A56A216A7D
:1021000032465046A847051E1CDDB9EB05096BD0C9
:102110000120D8F808305B1B2E447F1BC8F808301C
:1021200013BB002003B0BDE8F08F31462A4600F013
:1021300049FA23682B44236021465046FFF7BCFD33
:102140000028E2D0B4F90C3043F040034FF0FF30E8
:10215000A38103B0BDE8F08F00207047334691465D
:10216000104617464E469B46002FA5D00028B5D1F5
:102170003A460A21304600F03BF90028ABD17B1CDF
:102180009946ACE72369834215D36169A94212D805
:102190002E4BA76A9D4294BF2B466FF000434A46E0
:1021A00093FBF1F3504601FB03F3216AB847071E86
:1021B000C8DDED1B6DE7AF4228BF2F463A464946C2
:1021C00000F000FAA3682268DB1B3A44A360226097
:1021D000002BEED121465046FFF76EFD0028E8D0D7
:1021E000B0E72F46AB4648E721465046FFF764FD6F
:1021F00000288ED0A6E71A463146019300F0E2F996
:10220000019BA1682268C91A1A44A16022601D4678
:102210007BE7504600F092FA034600287FF423AF94
:1022200021695046FEF77CFFB4F90C300C2223F0F4
:102230008003CAF8002087E70C23CAF80030B4F9FD
:102240000C3081E74FF0FF306CE700BFFEFFFF7FEF
:1022500000FCFF7F2DE9F04110F148071BD08846B4
:102260000026D7E90154013D0FD4A389012B05F1C4
:10227000FF3506D9B4F90E300133204601D0C047EE
:1022800006436B1C04F16804EFD13F68002FE8D1CE
:102290003046BDE8F0813E463046BDE8F08100BFE3
:1022A0002DE9F84310F148071FD0884606464FF045
:1022B0000009D7E90154013D11D4A389012B05F18F
:1022C000FF3508D9B4F90E3001332146304602D02B
:1022D000C04749EA00096B1C04F16804EDD13F686E
:1022E000002FE6D14846BDE8F883B9464846BDE828
:1022F000F88300BF70B50C46B1F90E10002996B0F6
:1023000016461D4613DB6A4604F05AFF00280EDB12
:10231000019A02F47042A2F50052B2FA82F2520916
:102320004FF4806300202A60336016B070BDA3892B
:1023300000221B062A6004D540230020336016B01B
:1023400070BD4FF480630020336016B070BD00BFD5
:102350008A8992070B4606D501F1470201211A60CE
:10236000C3E90421704770B582B001AB6A460C46E0
:102370000646FFF7BFFF009905463046FEF726FFE9
:10238000B4F90C3070B11649B162019A009920601D
:1023900043F08003A381C4E904018AB92B43A381DC
:1023A00002B070BD9A05FBD423F0030304F1470289
:1023B00043F002030121A3812260C4E90421EFE775
:1023C0003046B4F90E1004F0F9FE10B9B4F90C302F
:1023D000E4E7A38923F0030343F001031BB2DDE725
:1023E000411D000800000000000000000000000087
:1023F00001F0FF01102A2BDB10F0070F08D010F8B6
:10240000013B013A8B422DD010F0070F42B3F6D1B9
:10241000F0B441EA012141EA014122F007047FF0D2
:1024200000070023F0E80256083C85EA010586EA29
:10243000010685FA47F5A3FA87F586FA47F6A5FA65
:1024400087F68EB9EED1F0BC01F0FF0102F0070271
:1024500032B110F8013B013A83EA010313B1F8D11C
:102460000020704701387047002D06BF35460338FD
:10247000073815F0010F07D1013015F4807F02BF36
:10248000013015F4C03F0130F0BC0138704700BF87
:10249000844641EA000313F003036DD1403A41D36F
:1024A00051F8043B40F8043B51F8043B40F8043B2E
:1024B00051F8043B40F8043B51F8043B40F8043B1E
:1024C00051F8043B40F8043B51F8043B40F8043B0E
:1024D00051F8043B40F8043B51F8043B40F8043BFE
:1024E00051F8043B40F8043B51F8043B40F8043BEE
:1024F00051F8043B40F8043B51F8043B40F8043BDE
:1025000051F8043B40F8043B51F8043B40F8043BCD
:1025100051F8043B40F8043B51F8043B40F8043BBD
:10252000403ABDD2303211D351F8043B40F8043B5D
:1025300051F8043B40F8043B51F8043B40F8043B9D
:1025400051F8043B40F8043B103AEDD20C3205D36D
:1025500051F8043B40F8043B043AF9D2043208D065
:10256000D2071CBF11F8013B00F8013B01D30B88D7
:1025700003806046704700BF082A13D38B078DD0B5
:1025800010F003038AD0C3F10403D21ADB071CBF87
:1025900011F8013B00F8013B80D331F8023B20F8F1
:1025A000023B7BE7043AD9D3013A11F8013B00F82A
:1025B000013BF9D20B7803704B7843708B788370B2
:1025C000604670478842F0B40DD98B1883420AD90F
:1025D000841832B1224613F8014D02F8014D994298
:1025E000F9D1F0BC70470F2A0ED80346541E002ABA
:1025F000F7D001340C44013B11F8012B03F8012FF3
:10260000A142F9D1F0BC704740EA01039B073BD1DE
:10261000A2F110073F0901F1200606EB071601F1B0
:10262000100300F1100453F8105C44F8105C53F8E8
:102630000C5C44F80C5C53F8085C44F8085C53F8F4
:10264000045C44F8045C1033B34204F11004EAD192
:102650007B1C1B0112F00C0F194402F00F05034400
:1026600015D0043DAD0803EB850C1C1F0E4656F833
:10267000047B44F8047F6445F9D10135AD002B4457
:10268000294402F00302B1E7541E0346B1E72A468B
:10269000ACE700BFF0B4860746D0541E002A3CD0F9
:1026A000CAB2034602E014F1FF3436D303F8012B1B
:1026B0009D07F8D1032C29D9CDB245EA05250F2C69
:1026C00045EA054533D9A4F11006360903F1200780
:1026D00007EB061703F1100242E9045542E90255DF
:1026E0001032BA42F8D1721C14F00C0F03EB021234
:1026F00004F00F0613D0331F23F0030304331344F5
:1027000042F8045B9342FBD106F003042CB1C9B23A
:102710001C4403F8011B9C42FBD1F0BC70473446BB
:102720001346002CF3D1F8E714460346C2E71A46D5
:102730002646E0E7704700BF704700BF09B3F8B511
:102740001446CAB106460D4600F024F9A04202D351
:102750002F463846F8BD21463046FEF737FD07467E
:102760000028F6D022462946FFF792FE3046294639
:10277000FEF7D6FC3846F8BD2746FEF7D1FC3846B2
:10278000F8BD1146FEF722BD10B580210446FEF7C4
:102790001DFD606440B1031F00227C3043F8042F0C
:1027A0008342FBD1002010BD4FF0FF3010BD00BFB1
:1027B000436C0BB100207047E6E700BF1F2970B5DE
:1027C000054608D8436C16460C464BB153F8240016
:1027D00043F8246070BD162202604FF0FF3070BDD8
:1027E000FFF7D2FF08B96B6CF0E74FF0FF3070BD18
:1027F0001F2938B521D8426C05460C466AB152F8FB
:10280000213053B1012B16D0591C10D00025204681
:1028100042F824509847284638BD284600F070F802
:10282000224601462846BDE8384000F055B8162338
:102830000360012038BD002038BD162303604FF02F
:10284000FF3038BD1F2921D838B5436C05460C46EA
:1028500083B153F8242003EB84034AB1511C10D0F8
:10286000012A0CD0002520461D609047284638BD1F
:10287000012038BDFFF788FF28B96B6CE9E703201A
:1028800038BD022038BD4FF0FF3038BD4FF0FF306B
:10289000704700BF024B01461868FFF7A9BF00BF91
:1028A000000C0020024B0A4601461868FFF786BF5D
:1028B000000C0020034B1868436C0BB100207047DC
:1028C00062E700BF000C0020024B01461868FFF7CA
:1028D000B9BF00BF000C002038B50B46074C0546B9
:1028E000114618460023236004F054FC431C00D01A
:1028F00038BD2368002BFBD02B6038BD603D002025
:1029000004F046BC10B50C46B1F90E1004F088FC7A
:10291000002803DB636D0344636510BDA38923F4C2
:102920008053A38110BD00BF002070472DE9F04106
:102930001646B1F90C201F46D3050C460546B1F9E1
:102940000E1009D422F48052A2813B46324628461A
:10295000BDE8F04104F060BC0022022304F05EFCFC
:10296000B4F90C20B4F90E10ECE700BF10B50C461A
:10297000B1F90E1004F052FCA389421C0EBF23F4DF
:10298000805343F480536065A38110BDB1F90E10EC
:1029900004F040BC51F8043C181F002BBCBF0B587E
:1029A000C0187047032A70B412D940EA0105AD0778
:1029B00004460B4620D11946204653F8045B54F8D0
:1029C000046BAE4218D1043A032A20461946F2D8C5
:1029D000541E72B103780A789A4208BF241806D0B0
:1029E0000CE010F8013F11F8012F934206D1A042EC
:1029F000F7D1002070BC7047541EEBE7981A70BCEA
:102A0000704700BFF8B52DED028B57EC106B55ECFD
:102A1000114B00F00BF91C4BB0EE408AF0EE608ACF
:102A200093F90030013314D022462B462046294624
:102A3000FEF73AFA68B932463B4630463946FEF769
:102A400033FA30B92046294600220023FEF7FAF96E
:102A500030B9B0EE480AF0EE680ABDEC028BF8BD62
:102A6000FEF788FA00220023212101601046194652
:102A7000FEF7AAF841EC180BB0EE480AF0EE680A2F
:102A8000BDEC028BF8BD00BF640C0020000000000C
:102A9000F8B52DED028B57EC106B55EC114B00F097
:102AA000FBF9614BB0EE408AF0EE608A93F900309A
:102AB00001332AD022462B4620462946FEF7F4F958
:102AC00018BB32463B4630463946FEF7EDF9002842
:102AD00044D10022002330463946FEF7B3F9D8B17D
:102AE0000022002320462946FEF7ACF900283DD1FC
:102AF00045EC104B01F012F838B12046294600226F
:102B00000023FEF7A9F900285BD1B0EE480AF0EEE9
:102B1000680ABDEC028BF8BDB0EE480AF0EE680A18
:102B200000F0FCFF58B30022002351EC180BFEF715
:102B300089F90028E9D047EC106B00F0EFFF00287E
:102B4000E3D045EC104B00F0E9FF0028DDD0FEF7A4
:102B500011FA222303609FED2C8BD6E720462946ED
:102B600000220023FEF76EF90028CED09FED288BBF
:102B7000B0EE480AF0EE680ABDEC028BF8BD47ECF7
:102B8000106B00F0CBFF0028CDD045EC104B00F0CF
:102B9000C5FF0028C7D053EC182B18EE100A1946B1
:102BA000FEF782F918BBFEF7E5F922230360002245
:102BB000002330463946FEF74FF948B99FED168B92
:102BC000A3E7FEF7D7F9212303609FED158B9CE760
:102BD00045EC104B00F0B4FF22462B4651EC100B95
:102BE000FEF730F90028E9D19FED0D8B8DE7FEF758
:102BF000C1F9002200232121016010461946FDF78A
:102C0000E3FF41EC180B80E700000000000000002B
:102C1000000000000000F03F000000000000F07F16
:102C2000000000000000F0FF640C002053EC112BAA
:102C30002DE9F04723F0004858EA020651EC100B4A
:102C400033D08E4F21F00049B9450E462DDC574256
:102C50001743DFF82CC248EAD777674511EE10EA30
:102C600023D8C1451C4611EE105A10EE10AA10EEE2
:102C7000103A01F0004706DCC0F2B5807045C0F0A4
:102C8000B28000F0E4807E4A3240C2B9B9F1000F50
:102C900040F0C680BAF1000F52467A4813DD520068
:102CA000002A00F1FF30FADC0DE0FDF763FE02467A
:102CB0000B46FDF789FF41EC100BBDE8F0874FEAAA
:102CC0002950A0F2FF306E4A22407AB9B8F1000FC5
:102CD00040F09980BEF1000F7246DFF8A8C109DD0F
:102CE0005200002A0CF1FF3CFADC03E04FEA285CBA
:102CF000ACF2FF3C644A904267DBC6F3130242F435
:102D0000801261498C4551DBC4F3130646F48016EA
:102D1000A0EB0C0007E051EA04033FD0E20F630090
:102D200002EB41020138911B5C1B58B1AB4238BF2A
:102D300001F1FF3100294FEAD37EECDA0EEB4202BB
:102D40005B00EFE7AB4238BF01F1FF310029A4BFC0
:102D500023460A4652EA030120D04C48824208DC4E
:102D6000D90F01EB420282420CF1FF3C4FEA4303D0
:102D7000F6DD45498C455FDAA1EB0C0114296DDCC9
:102D80000CF21E40CB4002FA00F042FA01F103437C
:102D90000F433946184641EC100B8EE73C4BFF0FB2
:102DA00003EBC70797ED000BBDE8F087A1EB0C0123
:102DB0001F2921DC0CF21E4608FA01F82EFA06F64D
:102DC0000EFA01F546EA0806A2E7131A1F2B0DDCDE
:102DD00000F21E4209FA03F92AFA02F20AFA03F390
:102DE00042EA09028DE741EC100B66E7294A121A04
:102DF0000AFA02F2002384E7264EA6EB0C060EFA2E
:102E000006F6002584E74FEAC822002ADFF878C0DA
:102E10007FF770AF5200002A0CF1FF3CFADC69E743
:102E20004FEAC922002A18487FF74DAF5200002A06
:102E300000F1FF30FADC46E7A2F5801217430CF2EE
:102E4000FF3C47EA0C51184641EC100B35E7104B9C
:102E5000FF0F03EBC70393ED000B2EE71F2906DCE2
:102E60000CF21E4C02FA0CF2CB40134391E7094BD3
:102E7000A3EB0C0342FA03F38BE700BFFFFFEF7FE6
:102E80000000F07FEDFBFFFF02FCFFFFFFFF0F00E4
:102E9000C0080108E2FBFFFF2DE9F04F51EC110BD8
:102EA00021F0004555EA000393B03DD059EC108B5A
:102EB000694B29F000449C424E4610EE10AA2CDCCF
:102EC0000F4611EE10CA36D09D4226DC624B9D4261
:102ED00020D0002ECDE9000138DB4FF0000BBCF113
:102EE000000F4ED15C4B9D4200F094805B4B9D42A5
:102EF00000F0A180B7F1804F00F09E84584B9F42B4
:102F00003FD1002E3DDB49EC108B13B0BDE8F04FF4
:102F100000F02EBDBCF1000FDBD004F1404404F5FD
:102F2000801454EA0A030BD14C49002041EC100BE9
:102F300013B0BDE8F08FB8F1000F01D1A542C5DD97
:102F4000484813B0BDE8F04F00F0F2BD464B9D423B
:102F500077DCA3F154739D420EDD2B15A3F2FF33F2
:102F6000142B40F37184C3F134032CFA03F202FAF8
:102F700003F3634500F0B7844FF0000BBCF1000F82
:102F8000B4D049EC108B00F0BFFD51EC100BBAF13E
:102F9000000F22D124B1314B26F040429A421CD17D
:102FA000002F05DA02460B4600202C49FDF70CFEE7
:102FB000002EBBDA04F1404404F5801454EA0B03FC
:102FC00040F0648402460B4610461946FDF71AFB92
:102FD00002460B46FDF7F8FDA8E7F30F03F1FF3AB1
:102FE0005BEA0A0330D0214B9D4243DD03F10473B9
:102FF0009D4240F3AF831E4B9C4240F33B83002F26
:1030000040F33B8312A3D3E9002310461946FDF792
:10301000B1FC8BE704F1404303F5801353EA0A0344
:1030200082D0134B9C4240F35383002FC0F2258380
:10303000DDE900017AE7002FC0F2F68340464946F9
:1030400074E74FF0020B4AE742464B46BCE700BF2D
:103050009C7500883CE4377E0000F07F0000F03F64
:103060000000E03FEC1A0108FFFF3F430000E04191
:10307000FFFFEF3FD24B3340002B40F0D3830022C1
:10308000D04BFDF777FC6FF034060C462315CE4A83
:10309000C4F31304A3F2FF3344F07F559E19944206
:1030A0000D9645F4401540F3B083C84B9C4240F365
:1030B000F6839FEDAD7B8DED087B8DED107B9FED55
:1030C000AC7B8DED067B01360D96A5F580154FF096
:1030D0000008DDE9062329460646FDF793FADDE9F7
:1030E0000623CDE90A0130462946FDF78DFA02464E
:1030F0000B460020B649FDF767FD03460C46CDE9B7
:103100000E3402460B46DDE90A01FDF733FC6B1075
:1031100043F0005303F500230A462F46014603EB14
:1031200008050023CDE902120293DDE9028900249B
:10313000CDE904122B46224640464946FDF71AFCCB
:1031400002460B46DDE90A01FDF75CFADDE90623DC
:10315000CDE90A0120462946FDF754FA02460B46FE
:1031600030463946FDF74EFA42464B46FDF702FC23
:1031700002460B46DDE90A01FDF744FADDE90E23BC
:10318000FDF7F8FBDDE90445CDE9060122462B46B3
:1031900020462946FDF7EEFB77A3D3E9002304463A
:1031A0000D46FDF7E7FB76A3D3E90023FDF72CFAE4
:1031B00022462B46FDF7DEFB73A3D3E90023FDF780
:1031C00023FA22462B46FDF7D5FB71A3D3E9002352
:1031D000FDF71AFA22462B46FDF7CCFB6EA3D3E986
:1031E0000023FDF711FA22462B46FDF7C3FB6CA323
:1031F000D3E90023FDF708FA224606460F462B4680
:1032000020462946FDF7B6FB02460B4630463946B6
:10321000FDF7B0FB424604460D464B46DDE904018E
:10322000FDF7F2F9DDE90623FDF7A4FB22462B4664
:10323000FDF7EAF9424606460F464B4640464946E8
:10324000FDF798FB0022634BCDE90A01FDF7DCF99D
:1032500032463B46FDF7D8F902980D460446224611
:103260002B4640464946FDF785FB002280468946AD
:10327000584B20462946FDF7C5F9DDE90A23FDF73D
:10328000C1F902460B4630463946FDF7BBF9DDE988
:103290000423FDF76FFB224606460F462B46DDE969
:1032A0000601FDF767FB02460B4630463946FDF73F
:1032B000ABF906460F4602460B4640464946FDF727
:1032C000A3F9029838A3D3E9002304460D46FDF77D
:1032D00051FB4246CDE904014B4620462946FDF705
:1032E00091F902460B4630463946FDF78BF930A37B
:1032F000D3E90023FDF73EFB2FA3D3E900230646C5
:103300000F4620462946FDF735FB02460B46304660
:103310003946FDF779F9DDE91023FDF775F9044623
:103320000D980D46FDF7BCFA224606460F462B4681
:10333000DDE90401FDF768F9DDE90823FDF764F92B
:1033400032463B46FDF760F9029832463B468046DE
:103350008946FDF757F9DDE90823FDF753F9DDE963
:10336000042339E0AFF300800000000000000000FB
:10337000000000000000F03FEF4E454A287ECA3FA3
:1033800065DBC9934A86CD3F01411DA96074D13FD9
:103390004D268F515555D53FFFAB6FDBB66DDB3FEB
:1033A000033333333333E33F000000E009C7EE3F1C
:1033B000FD033ADC09C7EE3FF5015B14E02F3EBE8A
:1033C0000000F07F000040438E98030079B60B00A8
:1033D0000000F03F00000840FDF714F90B460246DC
:1033E00029462046FDF70EF90BF1FF3353EA0A0395
:1033F000CDE9020140F067819FEDB97B8DED047B43
:10340000DDE9002300261046194632461F46FDF727
:10341000F9F842464B46FDF7ADFADDE90023824656
:103420008B46DDE90201FDF7A5FA02460B46504640
:103430005946FDF7E9F832468B4682463B46404600
:103440004946CDE900ABFDF795FA0B4602468046AA
:10345000894650465946FDF7D7F8B94B994204467C
:103460000D468B4640F30C8101F13F4303F5E00329
:10347000034340F0FD819CA3D3E90023DDE9000173
:10348000FDF7C2F8424606460F464B4620462946FF
:10349000FDF7B8F802460B4630463946FDF7FAFC10
:1034A000002840F0E581CBF30A534FF48012A3F2D9
:1034B000FE3342FA03F35B44C3F30A52A14DA2F276
:1034C000FF321541C3F3130423EA05010020C2F1C2
:1034D000140A44F48014BBF1000F02460B4644FA70
:1034E0000AFA40464946B8BFCAF1000AFDF78AF811
:1034F000804689464246DDE900014B46FDF784F8E7
:103500004FEA0A5B0D46002479A3D3E90023204645
:103510002946FDF72FFA424606460F464B462046FF
:103520002946FDF76FF802460B46DDE90001FDF77D
:1035300069F871A3D3E90023FDF71CFA70A3D3E95E
:1035400000238046894620462946FDF713FA0246A5
:103550000B4640464946FDF757F8804689460246E5
:103560000B4630463946FDF74FF832463B46044697
:103570000D46FDF747F802460B4640464946FDF723
:1035800041F82246804689462B4620462946FDF7CB
:10359000F1F95DA3D3E9002306460F46FDF7EAF9EA
:1035A0005BA3D3E90023FDF72DF832463B46FDF738
:1035B000E1F959A3D3E90023FDF726F832463B464B
:1035C000FDF7D8F956A3D3E90023FDF71BF83246DF
:1035D0003B46FDF7CFF954A3D3E90023FDF714F8D8
:1035E00032463B46FDF7C6F902460B4620462946C1
:1035F000FDF708F806460F4602460B4620462946C8
:10360000FDF7B8F90022CDE900014FF080433046C4
:103610003946FCF7F7FF02460B46DDE90001FDF7EE
:10362000D3FA424606460F464B4620462946FDF74A
:10363000A1F942464B46FCF7E7FF02460B463046EF
:103640003946FCF7DFFF22462B46FCF7DBFF02463C
:103650000B4600203C49FCF7D5FF8B44BBF5801F8F
:1036600002460B46C0F237815946DDE90423FDF7D7
:1036700081F95BE4002FFFF6C5AC0020002155E482
:10368000DFF8CCC021F00043634540F3EB802F4BC3
:103690000B4403430AD142464B46FCF7B3FFDDE936
:1036A0000023FDF7EDFB00283FF4FDAEDDE904014A
:1036B0001FA3D3E90023FDF75DF91DA3D3E9002380
:1036C000FDF758F932E49FED1C7B8DED047B97E606
:1036D000002FD2DADDE90034184604F1004125E478
:1036E000000000000000F0BFFE822B654715973CEC
:1036F00000000000432EE63FEF39FAFE422EE63F7F
:10370000396CA80C615C20BED0A4BE726937663EDD
:10371000F16BD2C541BDBB3E2CDE25AF6A56113FD1
:1037200093BDBE166CC1663F3E5555555555C53FB8
:1037300059F3F8C21F6EA501000000000000F03F21
:10374000FFFF8F40FFFF0F000000F03F00346F3F8E
:10375000FFCB9040824B9C428CDD824B9C423FF7DA
:103760004EAC00227F4BFCF74DFF69A3D3E9002349
:1037700004460D46FDF7FEF867A3D3E9002306468D
:103780000F4620462946FDF7F5F800228046894677
:10379000754B20462946FDF7EDF802460B4660A121
:1037A000D1E90001FCF72EFF22462B46FDF7E2F897
:1037B00002460B4600206D49FCF724FF2246CDE966
:1037C00002012B4620462946FDF7D4F802460B4657
:1037D000DDE90201FDF7CEF853A3D3E90023FDF79D
:1037E000C9F802460B4640464946FCF70BFF024625
:1037F0000B4604460D4630463946FCF705FF0020CF
:103800008046894632463B46E6E59FED497B8DED95
:10381000087B8DED107B9FED487B4FF000088DED10
:10382000067B56E4002631E442464B4600204D49D3
:10383000FDF7CAF9FFF77ABB42464B464046494678
:10384000FDF798F8FFF772BBBCF1000F36D1C3F15A
:10385000140345FA03F202FA03F3AB424DD0E346F8
:10386000FFF744BB414A93424DDCB346B2464AE6B9
:10387000DDE9040132A3D3E90023FDF77BF830A38F
:10388000D3E90023FDF776F8FFF750BBBBF1010F3A
:103890007FF44CAB01F100431946FFF747BB9FEDA6
:1038A0002A7B8DED087B9FED2A7B8DED107B9FEDB4
:1038B0002A7B4FF480288DED067B0AE449EC108BBF
:1038C00000F022F951EC100BBAF1000F7FF4BCAB01
:1038D000D346FFF75FBB504643EC102B00F0C0F916
:1038E00051EC100BC1E602F00102C2F1020BBCF177
:1038F000000F3FF4FBAAFFF744BB02F00102C2F144
:10390000020BFFF7F3BA1B15CFE500BFAFF3008042
:10391000000000604715F73F44DF5DF80BAE543EF2
:10392000555555555555D53FFE822B654715F73FE3
:103930000000000000000000000000000000F03F58
:103940009C7500883CE4377E0000004003B8E23FED
:1039500006D0CF43EBFD4C3E000000000000F83FD6
:10396000FEFFEF3F0000F03F0000D03F0000E03FCF
:103970002DE9F041634955EC104BA94300F09F80BD
:10398000002D2B4610EE102A52DD5FEA255E00F076
:10399000B180C3F31303AEF2FF3E43F48013D10FA3
:1039A0001EF0010F01EB43034FEA420403D0E40F82
:1039B00004EB430394004FF0000C4FEA6E0E664692
:1039C00016254FF40012B118994202DC5B1A8E18CA
:1039D00094445B00013D03EBD4734FEA52024FEA7B
:1039E0004404F0D12F4620204FF0004209E041D09E
:1039F000E10F01384FEA520201EB43034FEA44045E
:103A000041D0B34202EB0501F1DD002901EB0205D3
:103A100009DBB0469B1BA14288BF03F1FF33641A48
:103A200017444646E4E7002DF3DB06F10108F1E711
:103A300025F00041214339D0002D50D1D40A153B47
:103A400052052146002CF9D0E50256D4002000E0B2
:103A500028464900CC0200F10105F9D50C46114673
:103A6000AA40C5F1200521FA05F5A3EB000E45EAB1
:103A700004038EE7A142BBD8002901EB0205D2DB8B
:103A800098460023CBE7234312D178084FEA6C0114
:103A900001F17F511CF0010F01F5001118BF40F03A
:103AA000004001EB0E53024643EC102BBDE8F081C1
:103AB0007B1C16BF781C0CF1010C4008E6E710EEE9
:103AC000102A2B4610EE100A2946FCF753FF224617
:103AD0002B46FCF799FD41EC100BBDE8F081204628
:103AE0002946FCF78FFD02460B46FDF76DF841ECC9
:103AF000100BDBE729467346A8E7114620254FF057
:103B0000FF30B0E70000F07F51EC100B10EE102AF0
:103B100021F0004343EC102B704700BF10EE903AA9
:103B200043F0004000F58010C00F70470000000017
:103B30009FED010B704700BF000000000000F87F00
:103B4000F0B553EC102BC3F30A56A6F2FF3013283E
:103B500083B019464FEAD37410EE105A37DC0028B0
:103B60002DDB3D4E064103EA060717432BD07608AE
:103B700033401D430CD04FF48023132821EA06065E
:103B800043FA00F141EA06010CBF4FF00045002561
:103B9000324800EBC4042A46D4E900450B462046CF
:103BA0002946FCF731FDCDE9000122462B46DDE92F
:103BB0000001FCF727FD41EC100B03B0F0BD23F032
:103BC0000040104322D143EC102B03B0F0BD33284A
:103BD00009DDB0F5806FF6D110EE100AFCF714FD88
:103BE00041EC100BF1E7A6F213464FF0FF30F04026
:103BF0000242E8D040080242CAD04FF0804325EA92
:103C0000000043FA06F640EA0605C1E7C3F31300D5
:103C1000104345420543114800EBC400D0E900675A
:103C2000590C2D0B490405F4002545EA01033046E3
:103C30003946FCF7E9FCCDE900013B463246DDE9B7
:103C40000001FCF7DFFC21F0004343EAC47141ECC2
:103C5000100B03B0F0BD00BFFFFF0F00D00801083C
:103C600038B553EC102BC3F30A511C46054681BBF3
:103C700010EE101A23F00044214329D019460022E7
:103C80003D4B3E4C10EE100AFCF774FEA542024676
:103C90000B4616DB0C46C1F30A513639294440F273
:103CA000FE70814221DC002947DC11F1350F34DA46
:103CB0004CF250318D4218DC002B27A1D1E90001D4
:103CC00044DB25A3D3E90023FCF754FE41EC100BA1
:103CD00038BD40F2FF708142E0D110EE100A194663
:103CE000FCF792FC41EC100B38BD002B1CA1D1E974
:103CF000000107DB1AA3D3E90023FCF73BFE41ECEC
:103D0000100B38BD18A1D1E9000115A3D3E9002398
:103D1000FCF730FE41EC100BF3E724F0FF4424F4F1
:103D2000E004363144EA0153104619460022144B90
:103D3000FCF720FE41EC100B38BD24F0FF4424F4C6
:103D4000E00444EA015343EC102B38BD08A1D1E94B
:103D50000001B6E7AFF3008059F3F8C21F6EA5016A
:103D60009C7500883CE4377E9C7500883CE437FEF7
:103D700059F3F8C21F6EA58100005043B03CFFFF0D
:103D80000000903C124B30B503F11004D96144603F
:103D90001C698260022A046038BF022260604FF012
:103DA0008044186188186063002020610220E06070
:103DB000656A6D1A954203D301300D186563F7E704
:103DC000022882BFDA6A42F00102DA6230BD00BF27
:103DD0006029002010B5302383F311880B4B01229A
:103DE00002FA00F1DA6822EA0102DA60DB6900F126
:103DF0000C0203EB820200245460DA680221814045
:103E000022EA0102DA6084F3118810BDD014002088
:103E10002DE9F0434B4C994694F84730042B85B07C
:103E200007460D4690461FD1666B26B3411E0323FD
:103E300091FBF3F101EB410189B28DF80D20421A9B
:103E40008DF80C508DF80E9003ABD2B22046B047DF
:103E5000E46B34B1CDF8009043462A4639463948E0
:103E6000A04705B0BDE8F08302283BD003280DD061
:103E700001285AD00027A66B002EE9D0CDF800907B
:103E800043462A4639462F48B047E1E701F0F003A0
:103E9000A02B18D005D8802B13D0902BEBD1A6687F
:103EA00006E0E02B11D0F02B11D0B02BE3D16668E7
:103EB000002EE0D0F22D0FD04B46424605F00F0108
:103EC0000DE0E668F4E72669F2E76669F0E7F229B3
:103ED000D1D1A669002ECED04B464246F2211948D8
:103EE000B047B5E701F0F003D02B0ED0F02B0ED089
:103EF000C02BC0D1E369002BBDD005F0FD02F12A33
:103F00000AD0424605F00F0108E0236AF3E7F329DF
:103F100007D1636A002BAED042462946094898472C
:103F200096E7F129A7D1A36AF4E7F72906D9E36A4E
:103F3000002BA0D029460348984789E7F6299AD153
:103F4000236BF5E72C330020002303758268036997
:103F50001B6899689142FBD25A6803604260106006
:103F60005860704770B56FF00104002503689842EF
:103F700000D170BD1A680260996850601A699C612E
:103F80001D75126896688E42FBD251681A6059609E
:103F90000B605360EAE70368984207D01A68026032
:103FA000506000229A611846FFF7CEBF70474B68F9
:103FB00043608B688360CB68C3600B6943614B6966
:103FC00003628B6943620B680360704700EB8103F7
:103FD00070B5DD682B6813F0030344D0022B45D97C
:103FE000032B0CBF4FF4C0644FF40074244B1A6DC4
:103FF0006B6902F1804202F5C04202EB01126BB123
:10400000002353602B8AD0F88460013323F001032E
:104010003344C0F8843044F020041660AB69C3B167
:104020006D8A3E2D05F1FF3322D943F01F03013382
:10403000144E5B0946EA83239BB2D360D0F88430E8
:10404000013525F001051D44C0F8845044F40054A6
:1040500093608B0003F1804303F5B8430C431A6867
:104060001A601C6070BD4FF40074BFE70024BDE708
:1040700043F0010301335B0203F47C43DDE700BF3F
:10408000005C00400080FFFF0B4B0C4800218022A9
:1040900019655964DA644268D2688A420CBF4FF4E9
:1040A0003C424FF43E421A644023C0F88430044B33
:1040B000C360FFF78BBF00BF005C004014150020F9
:1040C00098100108134BDA6942F40002DA61DA69E8
:1040D0001A6942F400021A611A6922F400021A6194
:1040E0000D4A1B69012313640C4BD02183F84A133A
:1040F0004FF48061C3F888119960E02183F84B1375
:104100004FF40061C3F88811996000231364FFF72E
:10411000BBBF00BF00100240005C004000E100E0B7
:104120000E4B1B6D03F1804303F5C04303EB0010FE
:1041300010B50368426003F1005303F540535B0080
:104140001144002AA1EB020400DC10BD2078647841
:1041500040EA042043F8040B023AF2E7005C004016
:10416000C36970B51A69DD681540EAB2D243AE077B
:1041700004461A6103D543681B6903B19847680771
:1041800004D563689B690BB120469847290704D57D
:1041900063681B6A0BB120469847EA0604D563683A
:1041A0009B6A0BB120469847EB0706D563689B686E
:1041B0001BB12046BDE87040184770BDC36819693F
:1041C000DA680A40D1B2C943D20719610FD5027823
:1041D000042A08D10222027000221A601A61DA68E9
:1041E00022F0FF02DA6043685B6803B1184770474A
:1041F000C36A016B5B6840685A684B68806810B599
:1042000023F0FF73FF2A23F4803394BF00244FF080
:10421000807443EA000388BFFF22234343EA02433A
:104220004B6010BD836A5B6830B5046B59684368A6
:1042300062689B68FF2988BFFF2122F0FF7243EA72
:10424000014322F4803294BF00254FF08075134360
:104250002B4343F48063636030BD00002DE9F041DF
:104260002F4D0124D5F800E004FA00F616EA0E0FEF
:1042700003D0013050D126460020441CDFF8A8802E
:1042800045F8342005EBC4040701636016F07F0F86
:104290004EEA060308EB070C2B60444605D0214B81
:1042A000586940F0010058615B6916F4786F05D0D9
:1042B0001C4B586940F0020058615B69E2B1E0199B
:1042C0006A6883681A4215D1C37B03F1604000F528
:1042D00061400901C9B280F8001303F01F005B09B7
:1042E0009B0003F1604303F5614301218140C3F862
:1042F0008011196016436E60E119E0594B68497BE3
:104300001A6822F00F021A600E228A4042600022D0
:104310001A606046BDE8F0814FF0000CF9E700BF7D
:10432000142C002000100240940C010810B4046802
:10433000437B21684268D940126801F00E010A42AD
:104340000FD0827B01FA03F363600132064B53F80E
:10435000324034B103EBC203586823465DF8044B86
:1043600018475DF8044B7047142C002070B51E4EA2
:10437000857B71683468012202FA05F3DB431C4037
:104380000B40816873600B40346014D1C17B01F035
:104390001F0002FA00F04A09920002F1604202F5A1
:1043A0006142C2F88000C2F8800101F1604202F56A
:1043B000614282F800336B1C002246F8332006EB82
:1043C000C3035A60630605D1084B5A6922F0010203
:1043D0005A615B6914F4786F05D1044B5A6922F075
:1043E00002025A615B6970BD142C0020001002406B
:1043F00010B50446C06A4268136823F00F031360C7
:10440000417B02680E238B405360FFF7AFFFA16A28
:104410000868CA6889680023E36203681A40236950
:104420005B6843F001038B401343036010BD0369D5
:104430009B78012B0DD013B1022B11D07047806AED
:10444000036821B90833416843F8212070475A6155
:104450007047806A036809B90C33F4E79A617047C2
:10446000806A036809B91033EDE7DA61704700002C
:10447000114B984208BF114B70B408BFDA69846AC7
:104480000569266804BF42F00052DA61E26808BF9D
:10449000DB693368A46802EA03026B6843F0010336
:1044A00003FA04F343EA020333602A880CBF0121B4
:1044B000002170BCFFF7BBBF501400200010024069
:1044C00038B50C46012511460289A54015430581E2
:1044D00000EB84000025C2685069128A03609A428A
:1044E00028BF1A4681604560C56002612046A4006D
:1044F00004F1804404F5B844FFF712FE236823F466
:10450000F04323F0400383F0300343F4004343F0CF
:104510008003236038BD000090F86420152A38B568
:10452000044617D80123934040F6416213421ED13E
:1045300013F480150FD19B020CD50B2380F8643047
:10454000302383F311882B462A462946FFF7B8FF0C
:1045500085F3118838BDC3689B695B68002BF9D16E
:10456000036F03B19847002384F86430F2E70E49E3
:104570000B6823F4F04323F0400383F0100248F269
:1045800080052A430A600B6823F4904323F07003EC
:1045900083F480532B430B6043681B680BB10621E7
:1045A00098470623E0E700BF005C004070B54689ED
:1045B000012404FA01F53543458100EB8100C5680B
:1045C000A8698260002203604260C2602BB16A8ADF
:1045D000013B1344B3FBF2F39CB2890001F180412B
:1045E00001F5B84104820B6823F4904323F0700373
:1045F00083F4405343F4004343F080030B6070BDE9
:1046000038B590F864300446152B39D8DFE803F04C
:104610003E38383838383E38380B29393838383849
:10462000383838383E3E90F87B1090F87A20C36EC8
:1046300042EA0122934214D2C268128AB3FBF2F515
:1046400002FB15356DB9302383F311882B462A46BA
:104650002946FFF735FF85F311880A2384F8643073
:104660000EE0142384F86430302383F31188002390
:104670001A4619462046FFF799FF002383F3118855
:1046800038BD036F03B198470023E7E70E490B6875
:1046900023F4F04323F0400383F0100248F280003B
:1046A00002430A600B6823F4904323F0700383F401
:1046B000805303430B6063681B6813B106212046D7
:1046C00098470623CAE700BF005C004090F87630A8
:1046D000074A80F87E3043F0800310B5D364436806
:1046E0001B6804460BB1012198470323237010BDBA
:1046F000005C004003691960C268013AC260C26987
:10470000134482690361934224BF436A0361002317
:104710008362036B03B118477047436902699A4289
:1047200001D1C26822B9184650F8043B0B607047AB
:1047300000207047C368C269013BC36043691344EA
:1047400082694361934224BF436A436100238362C9
:10475000036B03B118477047302383F31188104B64
:104760005B6813F4006317D0F1EE103AEFF309839E
:10477000683B4FF08072DA610A4AD2681A6683F3A6
:104780000988094A1168D2688968926891428CBF89
:10479000064A074A9A61704783F31188704700BF41
:1047A00000ED00E030EF00E060290020EF0200089B
:1047B000F2020008F8B5046805460E460027AC4230
:1047C00000D1F8BDE3683343E36023691E420AD099
:1047D0006068A368C2691343027DC3610A2A04D1D9
:1047E0008269134207D12468E9E70B2AFBD1826969
:1047F00032EA0303F7D18761FFF7A6FBF3E703680B
:104800002BB10022026099611846FFF79DBB7047EB
:1048100038B50D46290704461FD5FFF7E9FD2046A8
:10482000FFF7E6FD63689B684BB10522227000210B
:10483000204698472378052B04BF022323700025C8
:104840006560302383F311884FF0FF3104F11400C9
:10485000FFF7D5FF85F3118838BD6A0703D5436894
:104860005B6803B19847AB07F6D563685B68002BBC
:10487000F2D004222270204698472378042B04BFEC
:1048800003232370E8E70000F8B590F8643004468D
:1048900013B1002380F86430BD4B1B6D03F18043DE
:1048A00003F5C04303EB011304F174029B6803F1A9
:1048B000005303F540535B0003F1100153F8040B60
:1048C00022F8020B8B42F9D163689B681BBB94F8FA
:1048D000743013F0600546D0AD490B6823F4F04303
:1048E00023F0400383F0100248F2800002430A6084
:1048F0000B6823F4904323F0700383F48053034345
:104900000B6063681B6813B1062120469847062395
:1049100084F86430F8BD204698470028D7D094F832
:104920007B2094F87A3043EA0223E26E9A4288BFF1
:10493000E36694F97430E56E002B4FF0300380F29B
:104940006181002D00F05081092284F8642083F3F6
:1049500011880021E36EA26E2046FFF7B1FD00230F
:1049600083F31188D6E794F8752003F07F0343EAB8
:10497000022340F20232934200F0148125D8022B28
:1049800000F0BA8009D8002B3ED0012BA4D1814B76
:10499000A3660223E36600233BE0B3F5817F00F0CA
:1049A000C580B3F5407F36D0B3F5807F94D194F8BD
:1049B0007630012B90D1B4F87C3023F00203A4F8B8
:1049C0007C30A566E5662567A9E740F2016293425F
:1049D0000AD8B3F5C06F28D2B3F5A06F7FF47CAFCF
:1049E000A566E5666C4B14E0B3F5106F33D040F666
:1049F00002429342CBD0B3F5006F7FF46DAF04F168
:104A00007F03A366012324E004F17C02A266022254
:104A1000E266236783E794F87630012B7FF45CAF7E
:104A2000B4F87C3043F00203C9E794F87920616858
:104A300094F878304E6894F8771043EA02232046C1
:104A400094F87620B04700283FF446AF4368A36649
:104A50000368E366B7E72378042B3CD1302383F364
:104A60001188A36803F00113A36004F1100604F198
:104A70002C0756F8043B7BB1586920B16FF0010157
:104A80000C30FFF7BCFE56F8043C986920B16FF07B
:104A900001010C30FFF7B3FEB74246F8045CE8D1E1
:104AA0004023C4F8843001220021930003F18043A5
:104AB00003F5B843013218681860082A1960F4D168
:104AC00081F3118884F87F106368032121701B68CB
:104AD0000BB12046984794F876304BB184F87F307C
:104AE0000423237063681B6813B102212046984792
:104AF0000023A366E3668CE794F8783003F00F0296
:104B000013F0800F224B53F8223008D013F03003FB
:104B10003FF4E2AE102B14BF204B214B38E713F4C7
:104B200040533FF4D9AEB3F5805FF4E794F87630A4
:104B3000002B7FF4D1AE94F8782012F00F03D7D079
:104B40001BB29B0003F1804303F5B84312F0800FC2
:104B50001A680DD002F03002302AC9D01A6822F447
:104B6000F04222F0400282F0200242F400420BE0C8
:104B700002F44052B2F5405FBAD01A6822F4F04213
:104B800022F0400242F4204242F080021A60AFE775
:104B9000005C0040241A0108CD460008540D0108AD
:104BA000F012010894F87630002B7FF495AE94F85B
:104BB000782012F00F039BD01BB29B0003F18043BF
:104BC00003F5B84312F0800F1A6806D022F4F042C1
:104BD00022F0400282F01002C7E722F4904222F055
:104BE000700282F48052C0E7142284F8642083F3B8
:104BF00011882B462A4629462046FFF7D7FC85F325
:104C0000118887E65DB1152284F8642083F311884A
:104C10000021E36EA26E2046FFF7C8FC9FE60B2240
:104C200084F8642083F311882B462A4629462046BF
:104C3000FFF746FCE3E700BFFEE708B5302383F348
:104C400011880A7D0023052A06D8DFE802F00C054A
:104C50000503130F8A6913604FF0FF338B61084619
:104C6000FFF772F9002383F3118808BD8A699368FE
:104C7000013393604A680B6813605A60ECE70000E8
:104C8000022910B538BF022102234FF08044421898
:104C90006263626A101A814203D8013319461046D2
:104CA000F5E7022B81BF034AD36A43F00103D362C5
:104CB00010BD00BF60290020194A1369984210B442
:104CC0000FD00368416884680B605960996821447B
:104CD0009960002303604FF0FF3393615DF8044B4C
:104CE00070471346016843F8101F4B6000210160B4
:104CF00014699C4203D14FF08043D960EEE781688C
:104D0000A3680B444FF08041A360486AD169421AFE
:104D10009342E3D9091A19445DF8044BFFF7B0BF79
:104D20006029002010B503689C68A2420CD85C681A
:104D30008A600B604C602160596099688A1A9A6099
:104D40004FF0FF33836010BD121B1B68ECE70000BF
:104D5000F8B54FF08043114C5D6A2346074653F87F
:104D6000106F9E420A4604D12946BDE8F840FFF77D
:104D700009B8E369EB1ACB1838BF1C46B36828BFE3
:104D80000C46A34202D92846FFF77AFF224639464D
:104D90000348BDE8F840FFF7C5BF00BF6029002009
:104DA0007029002070B5094C236805460E4613B1E2
:104DB0002046FFF781FF064BE36000232661636115
:104DC00029460248BDE87040FFF7C2BFF03100201D
:104DD0001D510008704700F0F003B02B2AD009D80D
:104DE000902B27D0A02B25D0802B08BF032018BFE5
:104DF00000207047D02B21D003D8C02B08BF022041
:104E0000F5E7E02B16D0F02B16D100F10F03DBB243
:104E10000E2B11D8012000FA03F346F6A0721342BC
:104E20000DD113F0050F09D113F0020F0CBF0020B4
:104E3000032070470320704700207047022070470E
:104E400073B510469DF818608DF8052014461D4670
:104E50008DF806308DF80760FFF7BDFF00BB022913
:104E60001AD0032905D0012912D1F72C12D105231C
:104E700002E0F72E0ED107238DF804300A48D0F84F
:104E8000283204225B680DEB020100F50A70984796
:104E900002B070BD0423EFE7F72DFBD10623EBE74B
:104EA00024098DF80440E9E7A80E002070477047F8
:104EB00000EB81032DE9F3419C6A05460E465CB385
:104EC000302383F3118805EB86070821201DFFF7A7
:104ED00071FCFB685B691B6804F1440873B1236DC6
:104EE000226E01332365A36D1344E26DA3659342E3
:104EF00024BFA36EA3654046FFF74DF801A94046C5
:104F0000FFF70BFC024650B1019B31462846FFF7E4
:104F1000D7FA002383F3118802B0BDE8F081FB6863
:104F20005A691268002AF4D01B8A013B1342F0D15F
:104F3000E36F1B7E002BECD105F17402E5E713B59E
:104F4000446BE36F1A681178042915D1217A02297C
:104F500012D11979128901238B4013420CD101A976
:104F600004F14400FFF7D9FB024628B1E46F019B2E
:104F700021792068FFF7A4FA02B010BD38B5C36FDD
:104F80001C682278042A18D1027A022A15D159798C
:104F90006289012303FA01F515420ED1C269056A3F
:104FA000AA4201D1856945B9043206D0836A2046F8
:104FB000043BFFF7FBFA002038BD0120FCE711316C
:104FC00010B550F821402CB3302383F3118804210D
:104FD0006018FFF7EFFBE26F1368527903EB82036F
:104FE00004F10C00DB689B695A68E3691A60A269E6
:104FF0000132A261A26A1344626AE361934224BF50
:10500000236BE361FEF7C7FF2046FFF7B7FF0023DE
:1050100083F3118810BD406BFFF7B0BF064BD3F888
:10502000D42010B454680146202203F1D400234652
:105030005DF8044B184700BFA80E002038B5074C98
:10504000D4F8283201461D6A0422002304F50A70B0
:10505000A847031F5842584138BD00BFA80E002082
:10506000F7B50446002501A8FFF7E8FF08B903B02B
:10507000F0BD9DF805100846FFF7ADFE9DF806301F
:105080008DF801309DF807308DF800108DF8023052
:1050900050B99DF80430042B33D0072B31D0062BA8
:1050A00031D0052BDFD101200023302702AA1A447A
:1050B00012F808EC87F3118894F80D1194F80E613A
:1050C00001F1010CBCFBF6F206FB12C294F80C6174
:1050D000B2421FBFD4F8102102F801E094F80D216C
:1050E00094F80E611FBF0132B2FBF6F106FB1122EC
:1050F00084F80D2185F311880133DAB29042D5D8B6
:10510000B1E70320D0E70220CEE770477047704731
:10511000014B1878704700BF0832002070B530236B
:105120000E4683F311880B78042B03D0002383F3FE
:10513000118870BD154B1B78DB09F7D1144C227810
:10514000002AF3D0134B1B78002BEFD00B899B0761
:1051500005D40823104A01213046FFF7B1F90F4B5F
:10516000247840F2E730A4FB034520184FF00001FB
:105170004FF47A724FF0000345EB0101FBF7BCF8E6
:1051800031468000FFF70EFED0E700BF2A32002034
:10519000EC3100205411002009320020A0860100CB
:1051A000F8B590F8743003F07F02212A04467FD1CD
:1051B00013F080022DD0002A7AD090F875000228D2
:1051C00022D0032816D0012872D194F878302BB160
:1051D000022B09D00023A366E3662CE0504AA266A6
:1051E0002022E2662367F8BD4E4BA3660523E366E3
:1051F0000023F7E7B4F87820002A59D14A4BA36678
:105200000120E0662267EEE7484BA3660120E066D6
:10521000EEE790F875200A2A41D00B2A0ED0092A11
:1052200046D190F878200AB1032A41D1404BA366B9
:105230000223E3663F4B23670120D4E7B0F87830C0
:10524000002BC7D190F87650374B002D14BF0121A9
:1052500000211970384B1A7861F3C7121A70B9D14E
:10526000324B1A78002AB5D0302282F311881E788A
:10527000324B40F2E730A6FB036730184FF00001D5
:105280004FF47A724FF0000347EB0101FBF734F85B
:1052900021468000FFF786FD85F311889AE72649AD
:1052A000224B0D7890F877201A70ED0992D1D9E74A
:1052B000B4F8741040F28162914208D0204A92F80A
:1052C000B610D1B992F80A22BAB900208BE794F847
:1052D0007920616894F878304D6894F8771043EA43
:1052E0000223204694F87620A8470028EDD0436892
:1052F000A3660368E36600239DE703F06003202BA9
:10530000E3D194F87530202BDFD3212B03D9222B46
:105310003FF460AFD9E70B4BA3660723EAE700BF72
:10532000093200206134002054110020EC310020AB
:1053300038380020495300082A320020A086010096
:10534000A80E00205511002090F87A10054B022974
:105350001A7804D1012A01D0062A02D15A78024BC8
:105360001A707047383800200832002010B5084AFB
:10537000084C117824784B1C03F00F039C421DBF8E
:10538000054C13706054002018BF012010BD00BFF1
:10539000BC2C0020BD2C0020AC2C002042EA0121B6
:1053A00009B2C1F30722032A12D006D8012A25D058
:1053B000022A26D000231A4619E0212A11D0222AD7
:1053C000F8D1032BF6D8104A104952F8232006E0F2
:1053D000C9B20329EED80E4B53F821200D4BCB5CFC
:1053E00005E0032BE6D80C4A52F8232009230B488A
:1053F000002A4260036008BF104670471223084A23
:10540000F5E7D823074AF2E7040A0108140A01085D
:10541000E0090108F0090108F4090108082C00203E
:10542000F00A0108180A01080F4B104A99880A204F
:10543000B1FBF0F111700E4AD98811700D4A5989EB
:1054400011700D4A998911700C49DA89B2FBF0F29A
:105450000A700B4A198A11700A4A598A11709A8A7D
:10546000094B1A70704700BFF0140020443400202C
:105470005C1100205D1100205E1100205F110020F2
:10548000601100206111002062110020024B1A8877
:10549000024B1A80704700BFF01400208A0C0020D5
:1054A00010B5074B074C0848084900225A610132E1
:1054B000202A9C60D860196103F11803F6D110BD51
:1054C0005438002091970008C99700086198000897
:1054D000B0F5B84F04D1034B1B68002B08BF002068
:1054E000704700BF683C00202E28F0B514D80B4C44
:1054F000DFF830C004EB800514F82040AF78EE7878
:105500006D7804F00304C02000FB04C04155C2556F
:105510008355034B01221A55F0BD00BFBC10010892
:105520004D2E00208D2D0020F8B505460E4617465D
:10553000002420463B46324629460134FFF7D4FF7B
:105540002F2CF6D1F8BD0000054A1379103B23EA51
:10555000E3731371034A137843F001031370704728
:1055600028380020102C0020064A13791033FF2B16
:1055700028BFFF231371044A137843F0010313700B
:10558000704700BF28380020102C002030B5064C92
:105590002578AD0706D0E270044AA17011786070DA
:1055A0000B43137030BD00BF28380020102C0020A2
:1055B0000548C27881784078103A22EAE2720123E5
:1055C000D2B2FFF7E3BF00BF283800200548C278F9
:1055D000817840781032FF2A28BFFF220123D2B2FF
:1055E000FFF7D4BF2838002005488178C27840787A
:1055F000103921EAE1710123C9B2FFF7C7BF00BF2B
:105600002838002005488178C27840781031FF2979
:1056100028BFFF210123C9B2FFF7B8BF28380020F7
:1056200004494878CA7889780838012380B2FFF79E
:10563000ADBF00BF2838002003494878CA78897870
:1056400001230830FFF7A2BF2838002084B0BDF83E
:1056500010200190D21A92B2FF2A28BFFF22C0F375
:105660000740D24350FA82F2FF2A28BFFF228DF86A
:105670000620019B0020DAB262F30700C3F3072281
:1056800062F30F20C3F3074363F3174004B070477E
:1056900084B0C0F30741BDF810200190D31A9BB22B
:1056A000FF2B28BFFF23DBB2DA4351FA82F2FF2A35
:1056B00053FA80F028BFFF228DF804008DF80620F1
:1056C000019B0020DAB262F30700C3F3072262F302
:1056D0000F20C3F3074363F3174004B07047000083
:1056E0001FB5482B0190C0F3074030D8BDF81840D3
:1056F000E31A9BB2FF2B28BFFF23083189B2102980
:1057000005D902F1080189B2112928BFFF231149E7
:10571000DB4350FA83F3002A4978B8BF0332FF2BEA
:1057200001EBA20228BFFF238DF804208DF806307C
:10573000019B0020DAB262F30700C3F3072262F391
:105740000F20C3F3074363F3174004B010BDFF23DA
:10575000D3E700BF283800201FB50029B8BF494251
:10576000002AB8BF524209B2090112B21201FF2940
:10577000BDF818400190A8BFFF21FF2AA8BFFF2253
:1057800009B2234414B2A142A8BF214611FA83F3FF
:105790009BB2FF2B28BFFF23C0F30740DB4350FA27
:1057A00083F3FF2B28BFFF238DF80630019B0020D9
:1057B000DAB262F30700C3F3072262F30F20C3F3E8
:1057C000074363F3174004B010BD84B003EB8303B9
:1057D000BDF8102001901A4492B2FF2A28BFFF2280
:1057E000C0F30740D24350FA82F2FF2A28BFFF22BB
:1057F0008DF80620019B0020DAB262F30700C3F3A4
:10580000072262F30F20C3F3074363F3174004B08A
:10581000704784B0C9B20190C1F18201C0B20029C1
:10582000A8BF40188DF80400019B0020DAB262F393
:105830000700C3F3072262F30F20C3F3074363F3A8
:10584000174004B0704784B0C9430190C9B2C0F397
:10585000074011FB00F109128DF80610019B002092
:10586000DAB262F30700C3F3072262F30F20C3F337
:10587000074363F3174004B070470000114B183121
:1058800084B013F8111001908B1A5BB2002BBCBFCF
:10589000521A53B2DBB2C0B203EB430300EB531313
:1058A0008DF80430019B0020DAB262F30700C3F3E5
:1058B000072262F30F20C3F3074363F3174004B0DA
:1058C000704700BF7811010830B5174D183305EB4C
:1058D000430485B064780190203C624315F813407E
:1058E000A4F170035BB2002BBCBFC4F170035BB2C8
:1058F000C3F1380301FB032111EB4101C0B248BFE2
:105900007F3100EBE1118DF80410019B0020DAB229
:1059100062F30700C3F3072262F30F20C3F30743C8
:1059200063F3174005B030BD781101081FB5124C64
:105930000190183304EB430014F813304078703BA7
:105940005943203802FB0012002A9DF80410B8BF0A
:105950003F3201EBA2128DF80420019B0020DAB245
:1059600062F30700C3F3072262F30F20C3F3074378
:1059700063F3174004B010BD781101081FB5124C35
:105980000190183304EB430014F813304078703B57
:105990005943203802FB0012002A9DF80410B8BFBA
:1059A0007F3201EBE2128DF80420019B0020DAB275
:1059B00062F30700C3F3072262F30F20C3F3074328
:1059C00063F3174004B010BD7811010884B003EBF5
:1059D00043039DF81020019002EB53028DF8042040
:1059E000019B0020DAB262F30700C3F3072262F3DF
:1059F0000F20C3F3074363F3174004B07047000060
:105A00007FB5124D0190183105EB4103C0B25E78AD
:105A100015F81130A6F1200464B2002CBCBFC6F109
:105A2000200464B29B1A234403448DF80430019B84
:105A30000020DAB262F30700C3F3072262F30F20FB
:105A4000C3F3074363F3174004B070BD7811010836
:105A50000C4B03EB410184B091F8313001909A1A5C
:105A60008DF80420019B0020DAB262F30700C3F333
:105A7000072262F30F20C3F3074363F3174004B018
:105A8000704700BF7811010818310B4B13F8113023
:105A900084B09A1A01908DF80420019B0020DAB29C
:105AA00062F30700C3F3072262F30F20C3F3074337
:105AB00063F3174004B070477811010884B0019077
:105AC0008DF80420019B0020DAB262F30700C3F3D3
:105AD000072262F30F20C3F3074363F3174004B0B8
